:020000040800F2
:10000000205B0020C901000861550008A54F0008C9
:1000100035550008410A0008756600080000000018
:100020000000000000000000000000004156000831
:10003000B10D000800000000D155000899560008D5
:10004000E3010008E3010008E3010008E301000800
:10005000E3010008E3010008E3010008E3010008F0
:10006000E3010008E3010008E3010008A90B000810
:10007000B90B0008E3010008C90B0008D90B000800
:10008000E3010008E90B0008E3010008E3010008B0
:10009000450A0008550A0008E3010008E3010008CA
:1000A000E3010008B5570008E3010008E301000878
:1000B000E3010008E3010008E3010008E301000890
:1000C000E3010008E3010008E3010008E301000880
:1000D000E301000845660008E301000855660008D2
:1000E000E3010008E3010008E3010008E301000860
:1000F000E3010008E3010008E3010008E301000850
:10010000E3010008E3010008E3010008E30100083F
:10011000E3010008E3010008E3010008E30100082F
:10012000E3010008F90B0008090C0008E3010008CE
:10013000E3010008E3010008E3010008E30100080F
:10014000650A0008750A0008E3010008E3010008D9
:10015000E3010008E3010008E30100086566000808
:10016000E3010008E3010008E3010008E3010008DF
:10017000E3010008E3010008E301000800000000BB
:10018000E3010008E3010008195D0008295D00088B
:10019000E3010008E3010008E3010008E3010008AF
:1001A0000000000000000000E3010008DFF814D0A8
:1001B00000F008FC00F076F800480047F52201083E
:1001C00000F01CFC205B00200648804706480047E2
:1001D000FEE7FEE7FEE7FEE7FEE7FEE7FEE7FEE7F7
:1001E000FEE7FEE7A1570008AD0100082DE9F05F2A
:1001F0000546002092469B46884606468146402496
:100200001BE0284641464746224600F095FA5346F1
:100210005A46C01A914110D311461846224600F0A2
:100220007CFA2D1A67EB01084F4622460120002177
:1002300000F073FA17EB00094E41201EA4F10104EF
:10024000DFDC484631462A464346BDE8F09F40EA97
:1002500001039B0703D009E008C9121F08C0042A44
:10026000FAD203E011F8013B00F8013B521EF9D22B
:100270007047D2B201E000F8012B491EFBD2704753
:100280000022F6E710B513460A4604461946FFF762
:10029000F0FF204610BD421C10F8011B0029FBD1C5
:1002A000801A70477CB507480090074801900546C2
:1002B000009C04E02046016808448047241DAC42AD
:1002C000F8D17CBD704F0108844F01080B460146F0
:1002D000184600F074BA2DE9FE4F804681EA03000B
:1002E000C00F0C46009021F0004123F00045B8EB10
:1002F0000200A94105D24046214690461C460B46C5
:10030000024623F00040104347D0270DC7F30A00F0
:10031000C3F30A510290401A019040286BDAC3F3EC
:10032000130040F4801B0098924620B10023D2EBCA
:10033000030A63EB0B0B01985946C0F1400250468B
:1003400000F0EBF906460D4650465946019A00F07A
:1003500003FA10EB08006141002487EA115284EA95
:10036000E7731A4340D0009A62B3019A012A4FEA18
:10037000075215DC001B61EB02014FF0004202EA5C
:100380000752CDE90042001C41F5801132462B4650
:1003900000F072FA03B0BDE8F08F40462146F9E75D
:1003A000001B61EB0201001C41F5801300185B414A
:1003B0002018A2F5001747EB030140EAD570B619E3
:1003C0006D4111E06D084FEA360645EAC0754FEA07
:1003D0000752001B61EB0201001C41F58011490826
:1003E0004FEA30000019514132462B4603B0BDE8B8
:1003F000F04F00F032BA0098012240000023D0EB09
:10040000020263EBE073009821464FEAE074B8EB18
:10041000000061EB0401E9E783F000435BE781F052
:10042000004158E72DE9FE4F81EA030404F000443F
:1004300021F0004100944FF0000B23F0004350EAFC
:1004400001045ED052EA03045BD0C3F30A54C1F343
:100450000A552C44A4F2F3340194A0FB0254C1F3D6
:10046000130141F48011C3F3130343F4801301FB20
:10047000024400FB034E840A970A44EA815447EA87
:100480008357A4FB076802958D0A05FB07854FEA91
:10049000932C04FB0C542705029D4FEA065847EAAB
:1004A0001637B5EB08056EEB070C870E920E47EA80
:1004B000811742EA8312A7FB0201B6EB0B0164EB42
:1004C00000042B0D43EA0C335E1844EB1C50DA4653
:1004D0005146E7FB0201C5F313044FEA0B3343EA2D
:1004E00014534FEA0432019C43EA0603A4F10C04BE
:1004F0000294009CCDE900B400F0BEF903B0BDE861
:10050000F08F00200146F9E72DE9F04D81EA030460
:1005100004F0004B21F0004514464FF0000A23F090
:10052000004150EA050220D054EA01021DD0C5F373
:100530000A570246C5F31303C1F31300C1F30A5669
:1005400040F4801543F48013A7EB0608101BD64631
:1005500008F2FD3873EB050002D308F1010801E051
:1005600092185B41B8F1000F03DA00200146BDE8A4
:10057000F08D00204FF48011064684460EE0171BD4
:1005800073EB050705D3121B63EB050306434CEA27
:10059000010C49084FEA300092185B4150EA01070C
:1005A000EDD152EA030012D082EA040083EA050189
:1005B000084305D0101BAB4106D20122002306E000
:1005C00000224FF0004302E06FF0010253101AEBDB
:1005D00006004CEB085110EB0A0041EB0B01BDE8A3
:1005E000F04D00F03AB930B5041E71F1000404DB9F
:1005F0004FF00044404264EB0101141E73F100040B
:1006000005DB1C464FF00043524263EB0403801AA3
:10061000994101D3012030BD002030BD30B5041E0A
:1006200071F1000404DB4FF00044404264EB01012F
:10063000141E73F1000405DB1C464FF000435242C8
:1006400063EB0403101A8B4101D3012030BD00205D
:1006500030BD0EB5C10F80EAE0700844CA07002122
:1006600040F233438DE80E000A460B4600F004F9D1
:1006700003B000BD0EB540F2334102910021CDE937
:1006800000110A460B4600F0F7F803B000BD00F079
:10069000004230F000400AD0C10D01F56071C0F396
:1006A000160042EA0151C20840071143704700207A
:1006B0000146704701F0004330B421F0004150EA98
:1006C000010206D00A0DA2F56072C1F31301002ADF
:1006D00002DC30BC00207047440F44EAC104C10072
:1006E000E01830BC00EBC25000F080B880E8FF1F7B
:1006F000C0F834D0C0F838E0C0F83CE04FF000005B
:10070000704700BF80EC200B704700BF80EC200BCF
:10071000704700BFC0EC200B7047202A04DB203A52
:1007200000FA02F1002070479140C2F1200320FA44
:1007300003F3194390407047202A04DB203A21FA42
:1007400002F00021704721FA02F3D040C2F12002EA
:100750009140084319467047202A06DBCB17203A00
:1007600041FA02F043EAE07306E041FA02F3D040B6
:10077000C2F120029140084319467047704710B5F6
:10078000002200E0521C835C8C5CA34201D1002B50
:10079000F8D1D8B2E1B2401A10BD10B50446481ED7
:1007A000014201D1042901D2052010BD104613F0E9
:1007B000E3F810B12060002010BD062010BD2DE927
:1007C000F041074615460E46102013F05CFB04006E
:1007D0000AD06760C4E9026500F00CF90168216085
:1007E00004600020BDE8F0810120FBE70029A8BFDC
:1007F0007047401C490008BF20F00100704710B44A
:10080000B0FA80FC00FA0CF050EA010404BF10BCFE
:10081000704749B1CCF1200421FA04F411FA0CF12B
:1008200018BF012121430843A3EB0C01CB1D4FEA64
:1008300000614FEA102042BF002010BC704700EB5F
:10084000C35010440029A4BF10BC7047401C49008D
:1008500008BF20F0010010BC704710B5141E73F1E2
:10086000000408DA401C41F1000192185B411A4370
:1008700001D120F0010010BD2DE9F04D92469B46BC
:1008800011B1B1FA81F202E0B0FA80F22032904662
:10089000FFF743FF04460F4640EA0A0041EA0B0116
:1008A00053465A46084313D0114653EA010019D063
:1008B000C8F140025046FFF73FFF05460E4650463E
:1008C00059464246FFF729FF084305D0012004E0BE
:1008D00020463946BDE8F08D0020054346EAE07623
:1008E0002C4337430A986305E40AA0EB0800002272
:1008F000FD0A44EA47540A3002D500200146E9E7E0
:10090000010510196941DDE9084500196941BDE893
:10091000F04DA2E72DE9FE4FC3F30A5701F0004561
:100920000024C1F30A56C3F31303C1F3130143F4C4
:10093000801312EB020AA64641F48011009543EBA6
:10094000030CA7F1010B16E0B0EB0A0061EB0C0100
:10095000071E71F1000707DA4FF00008D0EB08001E
:1009600085F0004568EB0101171A73EB0107EBD323
:10097000761E001849415E45F6DA50EA010209D0B8
:10098000CDE900E5002213460296FFF775FF03B09C
:10099000BDE8F08F20460099F9E7000086469EE802
:1009A000FF1FDEF834D0DEF83CE0704790EC200BFF
:1009B000704700BF90EC200B704700BFD0EC200BBD
:1009C000704700001CB50948009009480190054691
:1009D000009C06E0E06840F0010394E807009847B7
:1009E0001034AC42F6D3FFF7E5FB0000504F01088E
:1009F000704F0108004870470C0000202DE9F041BD
:100A00000646FFF7F7FF8046454613E016B1E0685B
:100A1000B0420ED120682860D4E90101D8F80070F6
:100A20008847204612F0F8FFD8F80000B842EBD112
:100A300000E025462C68002CE8D1BDE8F081704725
:100A4000FFE7FEE780B540F61850C2F2000000F064
:100A5000CBFC80BD80B540F61850C2F2000000F01B
:100A6000C3FC80BD80B540F64050C2F2000000F0EB
:100A7000BBFC80BD80B540F64050C2F2000000F0E3
:100A8000B3FC80BD80B58CB00B9007F0F3F9FFE7A5
:100A900040F2C000C2F2000009F074FA00EE100A41
:100AA000B8EEC00A8DED0A0A40F63C30C2F20000F2
:100AB00090ED030A8DED040A40F62830C2F20000E2
:100AC00090ED040A8DED050A40F24840C2F20000A4
:100AD000012102910CF0DCFA8DED060A41F25C2056
:100AE000C2F20000019000210EF022F902998DED72
:100AF000070A40F22020C2F2000003900CF0BAFB7B
:100B0000019802998DED080A0EF012F903988DED07
:100B1000090A02210CF0AEFBDDED040A9DED051A79
:100B2000DDED061ADDED072A9DED083ADDED093A07
:100B3000B0EE404A9DED0A0A9FED042A07F006FF39
:100B400007F080F9052011F013FCA1E700007A43BB
:100B500080B584B003900AF0ABFD0AF0FBFE07F00D
:100B60008FFAFFE70AF0A4FD0AF0FEFE40F2101033
:100B7000C2F2000000900EF0B7F901460098029111
:100B80000EF0B8F9019006F035FA01990246029884
:100B900040F64023C2F2000306F052FE06F08CFE3F
:100BA000012011F0E5FBDDE780B540F68860C2F278
:100BB000000001F01DF980BD80B540F6C850C2F2BA
:100BC000000001F015F980BD80B540F66850C2F212
:100BD000000001F00DF980BD80B540F64870C2F20A
:100BE000000001F005F980BD80B540F62860C2F232
:100BF000000001F0FDF880BD80B540F6A870C2F29B
:100C0000000001F0F5F880BD80B540F6E860C2F262
:100C1000000001F0EDF880BD82B0019001980078ED
:100C200010384AF6AB21CAF6AA21A0FB0110000930
:100C30000090009944F25C60C0F60100405C0199AC
:100C4000C8650098042807D3FFE7019908680422C3
:100C500062F30900886506E00199086840F2FF32F6
:100C600090438865FFE70198806D02B070470000EF
:100C700086B0059000208DF813000598806A0390D7
:100C80000598806910BBFFE70398029003281BD8E2
:100C90000299DFE801F0020D0218059890F82F0084
:100CA000C00720B1FFE701208DF81300FFE70CE03B
:100CB0000598C06AB0F1C07F04D1FFE701208DF82C
:100CC0001300FFE701E000E0FFE745E005988069D9
:100CD000B0F5005F25D1FFE70398019003281ED8E7
:100CE0000199DFE801F00206021101208DF81300DE
:100CF00016E0059890F82F00C00720B1FFE701200B
:100D00008DF81300FFE70BE00598C06AB0F1C07FD3
:100D100004D1FFE701208DF81300FFE700E0FFE7B3
:100D200019E003980090032804D3FFE700980328F4
:100D300004D00EE001208DF813000BE0059890F828
:100D40002F00C00720B1FFE701208DF81300FFE757
:100D500000E0FFE7FFE7FFE79DF8130006B07047EC
:100D600084B003900291019200930398016808688F
:100D700020F480200860009803990968486003986F
:100D80008068402809D1FFE70198039909688860C5
:100D9000029803990968C86008E0029803990968F5
:100DA0008860019803990968C860FFE704B070473C
:100DB0007047000072B6FFE7FEE7000084B00290C3
:100DC0000191029890F820008DF803009DF803002F
:100DD000012805D0FFE79DF8030002280AD1FFE7AC
:100DE000019A0298016848691043486100208DF813
:100DF0000F0008E00299486A40F480204862012010
:100E00008DF80F00FFE79DF80F0004B07047000059
:100E100088B00690059104920393069890F82000FC
:100E20008DF8070006980068806800900598806833
:100E300008B9FFE700E0FFE79DF80700012806D0AA
:100E4000FFE79DF80700022840F08080FFE79DF84B
:100E50000300400700280CD4FFE79DF803000007BB
:100E6000002806D4FFE79DF80300C006002864D5DB
:100E7000FFE70098C0F301600290029901208840CA
:100E8000039908600598806868B9FFE705980168CC
:100E9000C06840EA415006990968029A01EB0211C4
:100EA000C1F880010EE005994A688868C96840EA7F
:100EB000C200084306990968029A01EB0211C1F8C1
:100EC0008001FFE70598006906990968029A01EB1D
:100ED0000211C1F884010598007D01280CD1FFE7BB
:100EE00006980068029900EB0111D1F8840140F4E2
:100EF0008070C1F88401FFE704984068069909688A
:100F0000029A01EB0211C1F88C010498006806995D
:100F10000968029A01EB0211C1F88801069800687D
:100F2000029900EB0111D1F8800140F00100C1F8F5
:100F3000800100208DF81F0011E00699486A40F4F6
:100F40000010486201208DF81F0008E00699486AE9
:100F500040F48020486201208DF81F00FFE79DF8D3
:100F60001F0008B07047000086B0049003910498F9
:100F700090F820008DF803009DF80300012806D0AA
:100F8000FFE79DF80300022840F0B080FFE746F23B
:100F90000040C4F2000001900199D1F8000240F035
:100FA0000100C1F800020199D1F8000220F47C5040
:100FB000C1F800020398426A0199D1F8000240EAA0
:100FC0000220C1F800020398406900F01F010120CF
:100FD00088400290029A0199D1F81C029043C1F80E
:100FE0001C020398C069F0B9FFE7029A0199D1F891
:100FF0000C029043C1F80C02039A9088D1685269A0
:1010000040EA0140019901EBC201C1F84002039A94
:1010100010889168526940EA0140019901EBC201D0
:10102000C1F84402FFE70398C06901281ED1FFE719
:10103000029A0199D1F80C021043C1F80C02039AEC
:1010400090881168526940EA0140019901EBC201A0
:10105000C1F84002039A90899168526940EA0140C0
:10106000019901EBC201C1F84402FFE703988069CE
:1010700040B9FFE7029A0199D1F804029043C1F800
:10108000040207E0029A0199D1F804021043C1F862
:101090000402FFE70398006940B9FFE7029A01994B
:1010A000D1F814029043C1F8140207E0029A0199A2
:1010B000D1F814021043C1F81402FFE70398006A44
:1010C000012808D1FFE7029A0199D1F81C021043C8
:1010D000C1F81C02FFE70199D1F8000220F00100DD
:1010E000C1F8000200208DF8170008E00499486A52
:1010F00040F48020486201208DF81700FFE79DF83A
:10110000170006B07047000081B0009001B0704732
:1011100084B00390029100200190039890F8200081
:101120008DF803009DF80300012805D0FFE79DF826
:101130000300022812D1FFE7029838B9FFE70398AD
:101140000068C06800F00300019006E003980068A2
:10115000006900F003000190FFE7FFE7019804B089
:101160007047000086B004900391029201930498A6
:1011700090F820008DF803009DF80300012806D0A8
:10118000FFE79DF80300022840F0E880FFE703989E
:1011900080B9FFE704980068C068800748B9FFE796
:1011A0000499486A40F40010486201208DF8170045
:1011B000DDE00FE0049800680069800748B9FFE7A8
:1011C0000499486A40F40010486201208DF8170025
:1011D000CDE0FFE704980068039900EB0110D0F818
:1011E000B00100F00400029988600298806858B944
:1011F000FFE704980068039900EB0110D0F8B001F4
:10120000400D029908600AE004980068039900EB19
:101210000110D0F8B001C00802994860FFE70498B7
:101220000068039900EB0110D0F8B00100F0020053
:101230000299C86004980068039900EB0110D0F887
:10124000B40100F00F00082804D3FFE7029908203A
:1012500008610BE004980068039900EB0110D0F8D6
:10126000B40100F00F0002990861FFE704980068DC
:10127000039900EB0110D0F8B40180B2000A029982
:10128000886104980068039900EB0110D0F8B4015C
:10129000000C0299486104980068039900EB011062
:1012A000D0F8B8010199087004980068039900EB20
:1012B0000110D0F8B801000A01994870049800683C
:1012C000039900EB0110D0F8B801000C0199887067
:1012D00004980068039900EB0110D0F8B801000EE3
:1012E0000199C87004980068039900EB0110D0F8C8
:1012F000BC010199087104980068039900EB011082
:10130000D0F8BC01000A019948710498006803995B
:1013100000EB0110D0F8BC01000C01998871049811
:101320000068039900EB0110D0F8BC01000E019990
:10133000C871039838B9FFE704980168C86840F09D
:101340002000C86006E004980168086940F02000A9
:101350000861FFE700208DF8170008E00499486A4B
:1013600040F48020486201208DF81700FFE79DF8C7
:10137000170006B07047000083B002900020019073
:10138000029890F820008DF803009DF803000128D2
:1013900005D0FFE79DF80300022822D1FFE702985D
:1013A000006880684001002804D5FFE701980130FB
:1013B0000190FFE70298006880680001002804D5CA
:1013C000FFE7019801300190FFE70298006880680C
:1013D000C000002804D5FFE7019801300190FFE725
:1013E000FFE7019803B0704780B58AB009900020EC
:1013F000089009980068406907900998006840685B
:101400000690099800688068059009980068C0688F
:101410000490099800680069039009980068806941
:1014200002909DF81C00C007002800F09480FFE7A0
:101430009DF81400C00758B3FFE709980168012020
:1014400088609DF814008007002804D5FFE70998FC
:1014500000F01EFC1BE09DF814004007002805D595
:10146000FFE7089840F4006008900FE09DF8140032
:101470000007002805D5FFE7089840F48050089041
:1014800003E0099800F000FCFFE7FFE7FFE7FFE754
:101490009DF81500C00760B3FFE7099801684FF495
:1014A000807088609DF815008007002804D5FFE74C
:1014B000099800F0F5FB1BE09DF815004007002897
:1014C00005D5FFE7089840F4005008900FE09DF81C
:1014D00015000007002805D5FFE7089840F4804074
:1014E000089003E0099800F0D7FBFFE7FFE7FFE76C
:1014F000FFE79DF81600C00760B3FFE70998016891
:101500004FF4803088609DF816008007002804D5CD
:10151000FFE7099800F0CCFB1BE09DF816004007A0
:10152000002805D5FFE7089840F4004008900FE038
:101530009DF816000007002805D5FFE7089840F43D
:101540008030089003E0099800F0AEFBFFE7FFE76A
:10155000FFE7FFE7FFE79DF81C000007002810D514
:10156000FFE79DF81000C006002809D5FFE708989E
:1015700040F400700890099801681020C860FFE7E7
:10158000FFE79DF81C00400700280FD5FFE79DF8F6
:1015900010000007002808D5FFE709980168082017
:1015A000C860099800F0E2FAFFE7FFE79DF81C0029
:1015B000800700280BD5FFE709980068C0688007FE
:1015C00020B1FFE7099800F0D5FAFFE7FFE79DF8A3
:1015D0001C004006002810D5FFE79DF80C00C0064F
:1015E000002809D5FFE7089840F480600890099822
:1015F000016810200861FFE7FFE79DF81C008006E6
:1016000000280FD5FFE79DF80C000007002808D53B
:10161000FFE70998016808200861099800F0C8FAF6
:10162000FFE7FFE79DF81C00C00600280BD5FFE789
:10163000099800680069800720B1FFE7099800F069
:10164000BBFAFFE7FFE79DF81E00800700280FD5D3
:10165000FFE79DF81800C006002808D5FFE70998A5
:10166000016810204860099800F0C4FAFFE7FFE71E
:101670009DF81E00C00778B1FFE79DF8180000072D
:10168000002808D5FFE709980168082048600998F4
:1016900000F012FBFFE7FFE79DF81D0000060028A1
:1016A00040F18D80FFE79DF818004007002840F1C9
:1016B0008180FFE79DF81D00C00750B1FFE79DF84E
:1016C0000800C00728B1FFE7089840F00100089023
:1016D000FFE79DF81D00800700280BD5FFE79DF868
:1016E00008008007002805D5FFE7089840F00200B1
:1016F0000890FFE79DF81D00400700280BD5FFE785
:101700009DF808004007002805D5FFE7089840F03D
:1017100004000890FFE79DF81D000007002848D549
:10172000FFE79DF8080010F0700F42D0FFE7029825
:1017300000F0700001460191102814D0FFE70198D5
:10174000202815D0FFE70198302816D0FFE7019830
:10175000402817D0FFE70198502818D0FFE70198DC
:10176000602819D01DE0089840F00800089019E0A2
:10177000089840F01000089014E0089840F020000D
:1017800008900FE0089840F0400008900AE00898A0
:1017900040F08000089005E0089840F480700890C0
:1017A00000E0FFE709980168886920F0700088610F
:1017B000FFE7FFE70998016804204860FFE7089801
:1017C00048B1FFE7089A0999486A104348620998A6
:1017D000FFF79AFCFFE70AB080BD000080B584B037
:1017E0000290029820B9FFE701208DF80F00E0E099
:1017F000029890F8200020B9FFE7029800F0DEF888
:10180000FFE702980168086840F00100086000F0F6
:1018100091FF0190FFE7029800684068C007A8B9EF
:10182000FFE700F087FF0199401A0B280DD3FFE76F
:101830000299486A40F4003048620299052081F814
:10184000200001208DF80F00B3E0E4E70298016862
:10185000086820F00200086000F06CFF0190FFE7CC
:101860000298006840688007002815D5FFE700F05F
:1018700061FF0199401A0B280DD3FFE70299486ACE
:1018800040F4003048620299052081F820000120D0
:101890008DF80F008DE0E3E70298007E012807D164
:1018A000FFE702980168086840F08000086006E0E1
:1018B00002980168086820F080000860FFE702983D
:1018C000407E012807D1FFE702980168086840F0D0
:1018D0004000086006E002980168086820F04000B7
:1018E0000860FFE70298807E012807D1FFE7029891
:1018F0000168086840F02000086006E0029801686E
:10190000086820F020000860FFE70298C07E0128E8
:1019100007D1FFE702980168086820F0100008600E
:1019200006E002980168086840F010000860FFE7D0
:101930000298007F012807D1FFE702980168086834
:1019400040F00800086006E002980168086820F08E
:1019500008000860FFE70298407F012807D1FFE7F1
:1019600002980168086840F00400086006E00298E8
:101970000168086820F004000860FFE7029B19680E
:101980005A689868D3F80CC040EA0C00D3F810C02D
:1019900040EA0C005B691843013A1043C8610299A0
:1019A00000204862029A012182F820108DF80F0071
:1019B000FFE79DF80F0004B080BD000080B594B033
:1019C000139000201290119010900F900E90139889
:1019D000006846F20041C4F20001884253D1FFE79B
:1019E00040F27810C2F20000016801310160006825
:1019F000012812D1FFE7FFE700200D9043F64000D9
:101A0000C4F20200016841F000710160006800F05A
:101A100000700D900D98FFE7FFE7FFE700200C90A6
:101A200043F63000C4F20200016841F00801016091
:101A3000006800F008000C900C98FFE703200E905F
:101A400002210F910021079110911190092012900D
:101A500040F60040C4F202000EA900F073FC079AA1
:101A6000142005900521069100F038FF059800F03C
:101A70002BFF0699079A1520089000F02FFF089871
:101A800000F022FF6FE01398006846F60001C4F2F0
:101A90000001884266D1FFE7FFE700200B9043F684
:101AA0004000C4F20200016841F0806101600068FA
:101AB00000F080600B900B98FFE740F27810C2F2C4
:101AC00000000168013101600068012812D1FFE7C0
:101AD000FFE700200A9043F64000C4F202000168CC
:101AE00041F000710160006800F000700A900A98EF
:101AF000FFE7FFE7FFE70020099043F63000C4F25C
:101B00000200016841F002010160006800F002007B
:101B100009900998FFE74FF440500E9002200F9073
:101B2000002003901090032011900920129040F2A1
:101B30000040C4F202000EA900F004FC039A402009
:101B400001900521029100F0C9FE019800F0BCFE51
:101B50000299039A4120049000F0C0FE049800F01E
:101B6000B3FEFFE7FFE714B080BD000081B0009036
:101B700001B0704780B58AB009900BF02BFC01686A
:101B80008A680021904702900998019002980168A4
:101B90008969884701460198884206D1FFE7029883
:101BA00001684A6903A99047FFE70AB080BD0000B9
:101BB00081B0009001B0704780B58AB009900BF0F9
:101BC00009FC01688A6801219047029009980190F8
:101BD000029801688969884701460198884206D1C0
:101BE000FFE7029801684A6903A99047FFE70AB036
:101BF00080BD000081B0009001B0704780B584B016
:101C00000290029890F8200001282FD1FFE7029956
:101C1000022081F8200002980168086820F0010085
:101C2000086000F087FD0190FFE7029800684068B7
:101C3000C007A8B1FFE700F07DFD0199401A0B280D
:101C40000DD3FFE70299486A40F4003048620299D8
:101C5000052081F8200001208DF80F000FE0E4E757
:101C60000299002048628DF80F0008E00299486A46
:101C700040F40020486201208DF80F00FFE79DF836
:101C80000F0004B080BD000081B0009001B070472B
:101C900081B0009001B0704781B0009001B07047F2
:101CA00081B0009001B0704781B0009001B07047E2
:101CB00081B0009001B0704781B0009001B07047D2
:101CC00080B584B002900298806D019000F032FDE2
:101CD0000090029890F8350002280DD0FFE7029995
:101CE00080204865FFE70299002081F83400FFE773
:101CF00001208DF80F0055E002980168086820F077
:101D00001600086002980168486920F08000486168
:101D10000298006C20B9FFE70298806C38B1FFE7A9
:101D200002980168086820F008000860FFE7029840
:101D30000168086820F001000860FFE70298006869
:101D40000068C007C8B1FFE700F0F4FC0099401A32
:101D5000062811D3FFE70299202048650299032045
:101D600081F83500FFE70299002081F83400FFE791
:101D700003208DF80F0015E0E0E70298C16D3F20C9
:101D80008840019988600299012081F83500FFE7B9
:101D90000299002081F83400FFE7FFE700208DF86A
:101DA0000F00FFE79DF80F0004B080BD82B00090E7
:101DB000009890F83500022807D0FFE700998020AE
:101DC000486501208DF807000EE00099052081F894
:101DD000350000980168086820F001000860FFE7FE
:101DE00000208DF80700FFE79DF8070002B070475C
:101DF00080B586B005900020039040F21000C2F23A
:101E00000000006848F2B511C1F64E31A0FB011088
:101E1000800A02900598806D0190019800680490F6
:101E200004980599C96DC840000700281AD5FFE736
:101E30000598006800684007002812D5FFE705985C
:101E40000168086820F0040008600598C16D08204A
:101E50008840019988600599486D40F00100486507
:101E6000FFE7FFE704980599C96DC840C007A0B116
:101E7000FFE7059800684069000600280CD5FFE7D9
:101E80000598C16D01208840019988600599486DC9
:101E900040F002004865FFE7FFE704980599C96D27
:101EA000C8404007002814D5FFE70598006800687F
:101EB000800700280CD5FFE70598C16D04208840F5
:101EC000019988600599486D40F004004865FFE776
:101ED000FFE704980599C96DC840C006002847D59A
:101EE000FFE7059800680068000700283FD5FFE776
:101EF0000598C16D10208840019988600598006898
:101F00000068400300281AD5FFE7059800680068BC
:101F10000003002809D4FFE70598006C20B1FFE713
:101F20000598016C8847FFE708E00598806C20B1B0
:101F3000FFE70598816C8847FFE7FFE716E0059803
:101F400000680068C005002807D4FFE7059801680D
:101F5000086820F008000860FFE70598006C20B1D1
:101F6000FFE70598016C8847FFE7FFE7FFE7FFE71A
:101F700004980599C96DC8408006002840F18D80FD
:101F8000FFE7059800680068C006002840F18480DB
:101F9000FFE70598C16D2020884001998860059869
:101FA00090F83500052834D1FFE7059801680868E6
:101FB00020F01600086005980168486920F080004C
:101FC00048610598006C20B9FFE70598806C38B12E
:101FD000FFE705980168086820F008000860FFE73F
:101FE0000598C16D3F2088400199886005990120BE
:101FF00081F83500FFE70599002081F83400FFE7FC
:102000000598006D20B1FFE70598016D8847FFE74F
:102010007BE0059800680068400300281AD5FFE7B8
:102020000598006800680003002809D4FFE70598B8
:10203000406C20B1FFE70598416C8847FFE708E056
:102040000598C06B20B1FFE70598C16B8847FFE793
:10205000FFE720E0059800680068C005002811D45B
:10206000FFE705980168086820F0100008600599EE
:10207000012081F83500FFE70599002081F8340040
:10208000FFE7FFE70598C06B20B1FFE70598C16B3C
:102090008847FFE7FFE7FFE7FFE70598406DA0B33C
:1020A000FFE70598406DC00730B3FFE705990520AD
:1020B00081F8350005980168086820F00100086083
:1020C000FFE70398013003900299884201D9FFE7A6
:1020D00007E0FFE7059800680068C0070028F0D116
:1020E000FFE70599012081F83500FFE705990020F9
:1020F00081F83400FFE7FFE70598C06C20B1FFE7E7
:102100000598C16C8847FFE7FFE706B080BD000077
:1021100080B586B004900020039000F00BFB029085
:10212000049820B9FFE701208DF81700A3E0049878
:10213000406A08B1FFE7FFE70499022081F8350003
:10214000FFE70499002081F83400FFE70498016854
:10215000086820F001000860FFE704980068006844
:10216000C00790B1FFE700F0E5FA0299401A06288F
:102170000AD3FFE70499202048650499032081F8D9
:1021800035008DF8170076E0E7E7049800680068EE
:102190000390039848F23F01CFF2100108400390EA
:1021A000049900914868D1F808C0CB680A6940EAF0
:1021B0000C00184310434A6910438A691043CA69E6
:1021C0001043096A01430398084303900498406A46
:1021D000042808D1FFE70499C86A096B01430398F2
:1021E00008430390FFE7039804990968086004987E
:1021F000006840690390039820F00700039004985A
:10220000416A0398084303900498406A04281AD14D
:10221000FFE70498816A0398084303900498C06A12
:1022200080B1FFE70498FEF723FD50B1FFE7049962
:10223000402048650499012081F835008DF8170089
:1022400019E0FFE7FFE703980499096848610498DB
:10225000FEF7E2FC01900498C16D3F20884001998F
:102260008860049900204865049A012182F835109D
:102270008DF81700FFE79DF8170006B080BD00003D
:1022800080B588B0069005910492039300208DF8E4
:102290000B000698806D0190FFE7069890F83400D7
:1022A000012804D1FFE702208DF81F0045E00699C0
:1022B000012081F83400FFE7FFE7069890F8350029
:1022C00001282BD1FFE70699022081F835000699F5
:1022D0000020486506980599049A039BFEF740FD87
:1022E0000698C16D3F208840019988600698016872
:1022F000086840F0160008600698006C38B1FFE7E7
:1023000006980168086840F008000860FFE7069832
:102310000168086840F00100086009E0FFE70699DD
:10232000002081F83400FFE702208DF80B00FFE762
:102330009DF80B008DF81F00FFE79DF81F0008B007
:1023400080BD000090B00F900E9100200C900B907B
:102350000A900D90FFE70D980F2800F2E881FFE743
:102360000D99012088400C900E9800680C99084047
:102370000B900B980C99884240F0D481FFE70E989F
:10238000406800F00300012807D0FFE70E9840687E
:1023900000F0030002282FD1FFE70F9880680A9011
:1023A0000D984100032000FA01F10A9888430A9031
:1023B0000E98C0680D99490000FA01F10A98084387
:1023C0000A900A980F9988600F9840680A900D99B2
:1023D000012000FA01F10A9888430A900E9840689B
:1023E000C0F300100D9900FA01F10A9808430A9011
:1023F0000A980F994860FFE70E98406800F00300C4
:10240000032818D0FFE70F98C0680A900D98410084
:10241000032000FA01F10A9888430A900E98806818
:102420000D99490000FA01F10A9808430A900A98A8
:102430000F99C860FFE70E98406800F0030002287B
:1024400026D1FFE70F980D996FF0030202EA5101C0
:102450000844006A0A900D9800F0070081000F20E0
:1024600000FA01F10A9888430A900E9800690D99C4
:1024700001F00701890000FA01F10A9808430A9067
:102480000A980F990D9B02EA530211440862FFE774
:102490000F9800680A900D984100032000FA01F19E
:1024A0000A9888430A900E98406800F003000D993E
:1024B000490000FA01F10A9808430A900A980F9916
:1024C00008600E9880798007002800F02A81FFE7D5
:1024D000FFE70020099043F64400C4F202000168BF
:1024E00041F480410160006800F48040099009983F
:1024F000FFE70D9820F0030043F60801C4F2010144
:1025000040580A900D9800F0030081000F2000FA57
:1025100001F10A9888430A900F980021C4F2020141
:10252000884203D1FFE7002008907AE00F9840F23C
:102530000041C4F20201884203D1FFE70120079065
:102540006CE00F9840F60001C4F20201884203D10A
:10255000FFE7022006905EE00F9840F60041C4F2CB
:102560000201884203D1FFE70320059050E00F9855
:1025700041F20001C4F20201884203D1FFE70420C6
:10258000049042E00F9841F20041C4F202018842F7
:1025900003D1FFE70520039034E00F9841F60001D6
:1025A000C4F20201884203D1FFE70620029026E030
:1025B0000F9841F60041C4F20201884203D1FFE7BF
:1025C0000720019018E00F9842F20001C4F20201C6
:1025D000884203D1FFE7082000900AE00F9942F2F9
:1025E0000042C4F202020A20914208BF0920009072
:1025F000FFE700980190FFE701980290FFE702983B
:102600000390FFE703980490FFE704980590FFE725
:1026100005980690FFE706980790FFE7079808904F
:10262000FFE70898C0B20D9901F00301890000FA94
:1026300001F10A9808430A900A980D9921F00301C4
:1026400043F60802C4F20102885043F60840C4F27F
:10265000010000680A900B990A9888430A900E9826
:102660008079C006002805D5FFE70B990A98084332
:102670000A90FFE70A9843F60841C4F20101086096
:1026800043F60C40C4F2010000680A900B990A98C6
:1026900088430A900E9880798006002805D5FFE7C8
:1026A0000B990A9808430A90FFE70A9843F60C41F1
:1026B000C4F20101086043F60440C4F2010000685E
:1026C0000A900B990A9888430A900E98807980079F
:1026D000002805D5FFE70B990A9808430A90FFE701
:1026E0000A9843F60441C4F20101086043F6004031
:1026F000C4F2010000680A900B990A9888430A9076
:102700000E988079C00728B1FFE70B990A98084313
:102710000A90FFE70A9843F60041C4F201010860FD
:10272000FFE7FFE7FFE70D9801300D9013E610B0CB
:102730007047000045F21810C2F2000000687047B0
:1027400040F24C00C2F20000027845F21811C2F2C9
:1027500000010868104408607047000080B543F627
:102760000041C4F20201086840F400700860086883
:1027700040F480600860086840F4807008600320BE
:1027800000F0C6F80F2000F005F800F071F8002006
:1027900080BD000080B58CB00B90002005900490A7
:1027A000FFE70020019043F64400C4F202000168F4
:1027B00041F001010160006800F001000190019802
:1027C000FFE706A803A900F03DFA00F07DFA4000FB
:1027D000059005984DF68361C4F21B31A0FB010101
:1027E0004FF0FF3000EB9140049041F20800C2F23C
:1027F00000000021C4F20101016040F2E731C16034
:1028000004994160002101618160816100F04AFE0C
:102810008DF80B009DF80B0028BBFFE741F2080084
:10282000C2F2000000F090FE8DF80B009DF80B0046
:10283000C0B9FFE7192000F047F80B980F280CD813
:10284000FFE70B991920002200F048F80B9840F29E
:102850005001C2F20001086003E001208DF80B0076
:10286000FFE7FFE7FFE79DF80B000CB080BD00001D
:1028700080B582B0FFE70020019043F64400C4F227
:102880000200016841F480410160006800F480406A
:1028900001900198FFE7FFE70020009043F6400019
:1028A000C4F20200016841F080510160006800F04C
:1028B000805000900098FFE76FF001000F21002288
:1028C00000F00CF802B080BD80B582B08DF8070032
:1028D0009DF907000EF04CFE02B080BD80B586B0B9
:1028E0008DF8170004910392002002900EF058FE1C
:1028F00002909DF91700019002980499039A02F042
:1029000031FE014601980EF053FE06B080BD000076
:1029100080B582B0019001980EF06CFE02B080BDCF
:1029200080B584B000200290FFE70020019043F6BC
:102930004000C4F20200016841F08051016000686B
:1029400000F0805001900198FFE74021C4F20E2171
:1029500001200860FFF7EEFE0290FFE747F2040057
:10296000C4F20000006800F48030B0F5803F0DD064
:10297000FFE7FFF7DFFE0299401AB0F57A7F04D92E
:10298000FFE703208DF80F0025E0E7E74421C4F2BC
:102990000E2101200860FFF7CDFE0290FFE747F20D
:1029A0000400C4F20000006800F40030B0F5003FFD
:1029B0000DD0FFE7FFF7BEFE0299401AB0F57A7F0F
:1029C00004D9FFE703208DF80F0004E0E7E70020BB
:1029D0008DF80F00FFE79DF80F0004B080BD0000E8
:1029E00080B584B002900191029820B9FFE70120E0
:1029F0008DF80F0021E1019843F60041C4F2020175
:102A0000096801F00F01884212D9FFE7019943F6E6
:102A10000040C4F202000170006800F00F0001994C
:102A2000884204D0FFE701208DF80F0005E1FFE7A1
:102A300002980078800700282AD5FFE702980078DE
:102A40004007002809D5FFE743F60801C4F2020158
:102A5000086840F4E0500860FFE70298007800073B
:102A6000002809D5FFE743F60801C4F2020108680F
:102A700040F460400860FFE743F60801C4F2020139
:102A8000086820F0F000029A926810430860FFE79F
:102A900002980078C00700286ED0FFE702984068CF
:102AA000012811D1FFE743F60000C4F202000068DC
:102AB00000F400310020B0EB514F04D1FFE70120BA
:102AC0008DF80F00B9E02CE002984068022805D08C
:102AD000FFE702984068032811D1FFE743F60000A2
:102AE000C4F20200006800F000710020B0EB516FEA
:102AF00004D1FFE701208DF80F009EE010E043F6BF
:102B00000000C4F20200006800F002010020B0EBF7
:102B1000510F04D1FFE701208DF80F008DE0FFE792
:102B2000FFE743F60801C4F20201086820F0030041
:102B3000029A526810430860FFF7FCFD0090FFE71F
:102B400043F60800C4F20200006800F00C0002998D
:102B50004968B0EB810F0ED0FFE7FFF7EBFD00995E
:102B6000401A41F28931884204D3FFE703208DF8EF
:102B70000F0062E0E4E7FFE7019843F60041C4F28A
:102B80000201096801F00F01884212D2FFE70199A2
:102B900043F60040C4F202000170006800F00F002C
:102BA0000199884204D0FFE701208DF80F0044E02E
:102BB000FFE702980078400700280CD5FFE743F6AE
:102BC0000801C4F20201086820F4E050029AD268B9
:102BD00010430860FFE702980078000700280DD531
:102BE000FFE743F60801C4F20201086820F46040E0
:102BF000029A126940EAC2000860FFE700F076F826
:102C000043F60801C4F202010968C9B20A0944F294
:102C10004461C0F60101895CC84040F21001C2F273
:102C20000001086040F25000C2F200000068FFF7A7
:102C3000B1FD00208DF80F00FFE79DF80F0004B0F4
:102C400080BD000082B00190009101990F200860C2
:102C500043F60800C4F20200016801F00301019A82
:102C60005160016801F0F001019A9160016801F47E
:102C7000E051019AD160006800F46040C0080199F9
:102C8000086143F60040C4F20200006800F00F0043
:102C90000099086002B0704740F21000C2F20000D4
:102CA0000068704780B5FFF7F7FF43F60801C4F2EC
:102CB00002010968C1F3822244F25461C0F60101A5
:102CC000895CC84080BD000080B5FFF7E5FF43F692
:102CD0000801C4F20201096889B24A0B44F2546146
:102CE000C0F60101895CC84080BD000080B586B097
:102CF0000020059004900390029043F60800C4F26F
:102D00000200006800F00C000146019140B1FFE7AD
:102D1000019804280AD0FFE7019808280CD04FE05A
:102D200042F20040C0F2F40002904FE041F6003061
:102D3000C0F2B700029049E043F60400C4F202007A
:102D4000016801F03F01059100684002002813D599
:102D5000FFE743F60400C4F202000068C0F38810E5
:102D600041F60031C0F2B701A0FB0101059A002332
:102D7000FDF73CFA049012E043F60400C4F20200AE
:102D80000068C0F3881042F20041C0F2F401A0FBD9
:102D90000101059A0023FDF729FA0490FFE743F6A5
:102DA0000400C4F20200006800F44031022000EB8D
:102DB000D130039004980399B0FBF1F0029005E044
:102DC00042F20040C0F2F4000290FFE7029806B021
:102DD00080BD000080B586B00490049820B9FFE75C
:102DE00001208DF8170050E304980078C0070028F0
:102DF00000F0A580FFE743F60800C4F20200006877
:102E000000F00C00042813D0FFE743F60800C4F2DA
:102E10000200006800F00C0008281ED1FFE743F60E
:102E20000400C4F2020000684002002815D5FFE744
:102E300043F60000C4F20200006800F400310020F4
:102E4000B0EB514F08D0FFE70498406820B9FFE786
:102E500001208DF8170018E370E0FFE70498406840
:102E6000B0F5803F09D1FFE743F60001C4F202014B
:102E7000086840F48030086020E004984068B0F5AD
:102E8000A02F0DD1FFE743F60001C4F2020108684C
:102E900040F480200860086840F4803008600CE04E
:102EA00043F60001C4F20201086820F48030086093
:102EB000086820F480200860FFE7FFE7FFE7049838
:102EC0004068E8B1FFE7FFF735FC0390FFE743F602
:102ED0000000C4F20200006800F400310020B0EBF2
:102EE000514F0CD1FFE7FFF725FC0399401A6528E5
:102EF00004D3FFE703208DF81700C6E2E7E71CE0E4
:102F0000FFF718FC0390FFE743F60000C4F202004D
:102F1000006800F400310020B0EB514F0CD0FFE707
:102F2000FFF708FC0399401A652804D3FFE7032044
:102F30008DF81700A9E2E7E7FFE7FFE7FFE704984E
:102F400000788007002840F19680FFE743F60800EC
:102F5000C4F20200006810F00C0F13D0FFE743F634
:102F60000800C4F20200006800F00C0008282CD110
:102F7000FFE743F60400C4F20200006840020028A4
:102F800023D4FFE743F60000C4F20200006800F01B
:102F900002010020B0EB510F09D0FFE70498C06890
:102FA000012804D0FFE701208DF817006DE243F6F9
:102FB0000001C4F20201086820F0F800049A1269C6
:102FC00040EAC2000860FFE754E00498C06870B3AC
:102FD000FFE70021C4F2472101200860FFF7AAFBA8
:102FE0000390FFE743F60000C4F20200006800F01F
:102FF00002010020B0EB510F0CD1FFE7FFF79AFB65
:103000000399401A032804D3FFE703208DF8170023
:103010003BE2E7E743F60001C4F20201086820F052
:10302000F800049A126940EAC200086021E0002119
:10303000C4F2472100200860FFF77CFB0390FFE704
:1030400043F60000C4F20200006800F00201002014
:10305000B0EB510F0CD0FFE7FFF76CFB0399401A60
:10306000032804D3FFE703208DF817000DE2E7E7FC
:10307000FFE7FFE7FFE704980078000700284BD53B
:10308000FFE70498406918B3FFE740F68061C4F297
:10309000472101200860FFF74DFB0390FFE743F64F
:1030A0007400C4F20200006800F002010020B0EBDE
:1030B000510F0CD1FFE7FFF73DFB0399401A03289E
:1030C00004D3FFE703208DF81700DEE1E7E722E0F5
:1030D00040F68061C4F2472100200860FFF72AFB18
:1030E0000390FFE743F67400C4F20200006800F0AA
:1030F00002010020B0EB510F0CD0FFE7FFF71AFBE5
:103100000399401A032804D3FFE703208DF8170022
:10311000BBE1E7E7FFE7FFE70498007840070028F6
:1031200040F1CE80FFE700208DF8070043F6400015
:10313000C4F202000068C000002815D4FFE7FFE7D2
:103140000020009043F64000C4F20200016841F004
:1031500080510160006800F0805000900098FFE707
:1031600001208DF80700FFE747F20000C4F20000DD
:103170000068C005002822D4FFE747F20001C4F22E
:103180000001086840F480700860FFF7D3FA0390EC
:10319000FFE747F20000C4F200000068C005002805
:1031A0000CD4FFE7FFF7C6FA0399401A032804D3AB
:1031B000FFE703208DF8170067E1EAE7FFE7FFE785
:1031C00004988068012809D1FFE743F67001C4F232
:1031D0000201086840F0010008601FE00498806860
:1031E00005280DD1FFE743F67001C4F2020108681B
:1031F00040F004000860086840F0010008600CE03E
:1032000043F67001C4F20201086820F00100086072
:10321000086820F004000860FFE7FFE7FFE7049874
:103220008068F8B1FFE7FFF785FA0390FFE743F600
:103230007000C4F20200006800F002010020B0EB50
:10324000510F0ED1FFE7FFF775FA0399401A41F2CB
:103250008931884204D3FFE703208DF8170014E179
:10326000E5E71EE0FFF766FA0390FFE743F670001C
:10327000C4F20200006800F002010020B0EB510F20
:103280000ED0FFE7FFF756FA0399401A41F2893151
:10329000884204D3FFE703208DF81700F5E0E5E747
:1032A000FFE79DF80700012809D1FFE743F6400139
:1032B000C4F20201086820F080500860FFE7FFE7D1
:1032C00004988069002800F0DC80FFE743F60800DE
:1032D000C4F20200006800F00C00082800F08580AD
:1032E000FFE70498806902285CD1FFE76021C4F2FF
:1032F000472100200860FFF71DFA0390FFE743F61F
:103300000000C4F20200006800F000710020B0EB81
:10331000516F0CD0FFE7FFF70DFA0399401A03280D
:1033200004D3FFE703208DF81700AEE0E7E7049928
:10333000C869D1F820C04B6A8A6A40EA0C0040EAAA
:103340008310D2034FF6FF739A43A2F580321043E5
:10335000C96A40EA016043F60401C4F20201086050
:103360006021C4F2472101200860FFF7E3F90390D0
:10337000FFE743F60000C4F20200006800F00071AD
:103380000020B0EB516F0CD1FFE7FFF7D3F90399A1
:10339000401A032804D3FFE703208DF8170074E0D8
:1033A000E7E721E06021C4F2472100200860FFF731
:1033B000C1F90390FFE743F60000C4F20200006881
:1033C00000F000710020B0EB516F0CD0FFE7FFF769
:1033D000B1F90399401A032804D3FFE703208DF8BD
:1033E000170052E0E7E7FFE74AE004988069012808
:1033F00004D1FFE701208DF8170046E043F60400F2
:10340000C4F202000068029004988069012831D05B
:10341000FFE7029800F480000499C969884229D125
:10342000FFE7029800F03F000499096A884221D121
:10343000FFE7029847F6C07108400499496AB0EB6B
:10344000811F17D1FFE7029800F440300499896A80
:10345000C9034FF6FF729143A1F58031884209D12B
:10346000FFE7029800F070600499C96AB0EB016F41
:1034700004D0FFE701208DF8170006E0FFE7FFE723
:10348000FFE700208DF81700FFE79DF8170006B052
:1034900080BD000081B0009001B0704781B0009005
:1034A00001B0704780B582B00090009820B9FFE766
:1034B00001208DF807003FE0009890F83D0040B9EA
:1034C000FFE70099002081F83C00009800F038F8F0
:1034D000FFE70099022081F83D00009951F8040BA4
:1034E00002F070F90099012081F84600FFE7009989
:1034F000012081F83E00009981F83F00009981F891
:103500004000009981F84100FFE7FFE700990120A2
:1035100081F84200009981F84300009981F8440045
:10352000009981F84500FFE70099012081F83D00EE
:1035300000208DF80700FFE79DF8070002B080BD6E
:1035400081B0009001B0704783B00190019890F86D
:103550003D00012804D0FFE701208DF80B006AE050
:103560000199022081F83D0001980168C86840F087
:103570000100C860019800680021C4F2010188427E
:103580003CD0FFE701980068B0F1804F36D0FFE7EC
:103590000198006840F20041C4F2000188422DD039
:1035A000FFE70198006840F60001C4F2000188427C
:1035B00024D0FFE70198006840F60041C4F2000102
:1035C00088421BD0FFE70198006840F20041C4F236
:1035D0000101884212D0FFE70198006844F200011F
:1035E000C4F20101884209D0FFE70198006841F662
:1035F0000001C4F20001884212D1FFE7019800687F
:10360000806800F0070000900098062807D0FFE7C8
:1036100001980168086840F001000860FFE706E0D3
:1036200001980168086840F001000860FFE7002089
:103630008DF80B00FFE79DF80B0003B0704700000A
:1036400081B0009001B0704780B584B003900398BA
:103650000068C068029003980068006901909DF8B6
:1036600004008007002824D5FFE79DF808008007A4
:1036700000281DD5FFE7039801686FF0020008617C
:10368000039901200877039800688069800720B1BA
:10369000FFE70398FFF7D4FF06E0039800F018F95E
:1036A000039800F029FAFFE7039900200877FFE765
:1036B000FFE79DF804004007002825D5FFE79DF8A7
:1036C0000800400700281ED5FFE7039801686FF047
:1036D0000400086103990220087703980068806954
:1036E00010F4407F04D0FFE70398FFF7A9FF06E03E
:1036F000039800F0EDF8039800F0FEF9FFE7039956
:1037000000200877FFE7FFE79DF804000007002886
:1037100024D5FFE79DF80800000700281DD5FFE726
:10372000039801686FF00800086103990420087786
:1037300003980068C069800720B1FFE70398FFF78E
:103740007FFF06E0039800F0C3F8039800F0D4F977
:10375000FFE7039900200877FFE7FFE79DF80400E3
:10376000C006002825D5FFE79DF80800C006002800
:103770001ED5FFE7039801686FF0100008610399F8
:103780000820087703980068C06910F4407F04D0CF
:10379000FFE70398FFF754FF06E0039800F098F85E
:1037A000039800F0A9F9FFE7039900200877FFE7E5
:1037B000FFE79DF80400C00778B1FFE79DF8080017
:1037C000C00748B1FFE7039801686FF00100086186
:1037D000039800F0B3FAFFE7FFE79DF80400000646
:1037E000002810D5FFE79DF808000006002809D53D
:1037F000FFE7039801686FF0800008610398FFF706
:1038000049FEFFE7FFE79DF804004006002810D5B9
:10381000FFE79DF808004006002809D5FFE7039858
:1038200001686FF040000861039800F097FAFFE725
:10383000FFE79DF804008006002810D5FFE79DF8FB
:1038400008008006002809D5FFE7039801686FF09B
:10385000200008610398FFF721FEFFE7FFE704B0AF
:1038600080BD000080B588B00790002006900590CC
:103870000490039002900798006841F60001C4F29A
:103880000001884222D1FFE7FFE70020019043F6C4
:103890003000C4F20200016841F08001016000685C
:1038A00000F0800001900198FFE740200290022084
:1038B00003900020049005900920069041F60040F6
:1038C000C4F2020002A9FEF73DFDFFE708B080BD8B
:1038D00081B0009001B0704780B586B0049003912C
:1038E000029200208DF80700FFE7049890F83C0052
:1038F000012804D1FFE702208DF8170089E0049920
:10390000012081F83C00FFE7FFE7029800900C28B7
:1039100000F270800099DFE801F0076D6D6D206D99
:103920006D6D3A6D6D6D530004980068039902F057
:1039300037F804980168886940F0080088610498A5
:103940000168886920F0040088610398026904987E
:10395000016888691043886150E004980068039901
:1039600002F094F804980168886940F40060886166
:1039700004980168886920F480608861039802696E
:1039800004980168886940EA0220886136E004985A
:103990000068039902F0F4F804980168C86940F0DF
:1039A0000800C86104980168C86920F00400C86173
:1039B0000398026904980168C8691043C8611DE052
:1039C00004980068039902F055F904980168C869E1
:1039D00040F40060C86104980168C86920F4806000
:1039E000C8610398026904980168C86940EA022026
:1039F000C86103E001208DF80700FFE7FFE70499A5
:103A0000002081F83C00FFE79DF807008DF81700C3
:103A1000FFE79DF8170006B080BD000080B582B0BA
:103A20000090009820B9FFE701208DF807003FE0E3
:103A3000009890F83D0040B9FFE70099002081F818
:103A40003C00009800F038F8FFE70099022081F868
:103A50003D00009951F8040B01F0B4FE00990120DB
:103A600081F84600FFE70099012081F83E000099A7
:103A700081F83F00009981F84000009981F84100E9
:103A8000FFE7FFE70099012081F84200009981F8E3
:103A90004300009981F84400009981F84500FFE750
:103AA0000099012081F83D0000208DF80700FFE714
:103AB0009DF8070002B080BD82B0019001980068B7
:103AC00041F60001C4F20001884212D1FFE7FFE78E
:103AD0000020009043F64000C4F20200016841F06B
:103AE00040010160006800F0400000900098FFE78E
:103AF000FFE702B07047000081B0009001B070474E
:103B000080B58EB00C900B9100208DF82B000B9897
:103B100028B9FFE70C9890F83E0008901CE00B983D
:103B2000042805D1FFE70C9890F83F00079010E0BB
:103B30000B98082805D1FFE70C9890F840000690F4
:103B400004E00C9890F841000690FFE70698079073
:103B5000FFE707980890FFE70898012804D0FFE7DF
:103B600001208DF83700E5E00B9828B9FFE70C99A4
:103B7000022081F83E001EE00B98042806D1FFE7E2
:103B80000C99022081F83F00059012E00B9808285C
:103B900006D1FFE70C99022081F84000049005E06F
:103BA0000C99022081F841000490FFE704980590E9
:103BB000FFE70598FFE70B9803900C2825D8039999
:103BC000DFE801F0072323230E23232315232323D8
:103BD0001C000C980168C86840F00200C86018E03A
:103BE0000C980168C86840F00400C86011E00C98A7
:103BF0000168C86840F00800C8600AE00C980168D5
:103C0000C86840F01000C86003E001208DF82B0068
:103C1000FFE79DF82B00002840F08780FFE70C9815
:103C200000680B990122019201F09EFE01980C9907
:103C300009680022C4F20102914202900CD0FFE711
:103C40000C9800684FF60041CBF6FE710844B0FABC
:103C500080F040090290FFE70298C00738B1FFE703
:103C60000C980168486C40F400404864FFE70C98E9
:103C700000680021C4F2010188423CD0FFE70C98A3
:103C80000068B0F1804F36D0FFE70C98006840F232
:103C90000041C4F2000188422DD0FFE70C98006873
:103CA00040F60001C4F20001884224D0FFE70C98DE
:103CB000006840F60041C4F2000188421BD0FFE7D3
:103CC0000C98006840F20041C4F20101884212D011
:103CD000FFE70C98006844F20001C4F20101884239
:103CE00009D0FFE70C98006841F60001C4F200011A
:103CF000884212D1FFE70C980068806800F0070046
:103D000009900998062807D0FFE70C980168086811
:103D100040F001000860FFE706E00C9801680868C1
:103D200040F001000860FFE7FFE79DF82B008DF8E9
:103D30003700FFE79DF837000EB080BD80B582B038
:103D40000190019800680021C4F20101884203D16A
:103D5000FFE7FEF7F5FCFFE702B080BD81B0009001
:103D600001B0704780B586B004900391ADF80A2089
:103D7000049890F84200202848D1FFE7039820B12A
:103D8000FFE7BDF80A0020B9FFE701208DF8170012
:103D900040E00499012008630499002048630498D6
:103DA0000399BDF80A2002F0BDFA8DF809000498C5
:103DB000006B012821D1FFE7FFE700200190049864
:103DC00000680068019004980068406801900198BC
:103DD000FFE7FFE7FFE70498006850E8030F40F0B3
:103DE00010000090FFE700990498026842E8031071
:103DF0000028F0D1FFE7FFE703E001208DF809007C
:103E0000FFE79DF809008DF8170003E002208DF808
:103E10001700FFE79DF8170006B080BD80B58CB095
:103E20000B90ADF82A100B98006847F60001C4F219
:103E30000001884227D1FFE744F25C51C0F601013E
:103E4000086849680991089009F068FF01688A6864
:103E50000321904707900B98039007980168896B9E
:103E600088470146039888420CD1FFE7079801680C
:103E70008A6A08A902919047029907980268126B12
:103E80009047FFE730E00B98006841F20001C4F270
:103E90000101884227D1FFE744F25451C0F60101E5
:103EA000086849680691059009F038FF01688A683A
:103EB0000021904704900B98019004980168896B49
:103EC00088470146019888420CD1FFE704980168B1
:103ED0008A6A05A900919047009904980268126BBC
:103EE0009047FFE7FFE7FFE70CB080BD80B592B0D9
:103EF00011901198006847F60041C4F20001884211
:103F000055D1FFE7FFE70020109011980068006886
:103F1000109011980068406810901098FFE7FFE734
:103F200000200F901198006800680F9011980068A9
:103F300040680F900F98FFE7FFE700200E90119860
:103F4000006800680E901198006840680E900E9806
:103F5000FFE7FFE700200D901198006800680D90C2
:103F60001198006840680D900D98FFE744F2745175
:103F7000C0F60101086849680C910B9009F0CEFE6B
:103F800001688A68042190470A90119801900A9864
:103F90000168896B884701460198884206D1FFE78E
:103FA0000A9801684A690BA99047FFE757E0119802
:103FB000006847F60001C4F20001884222D1FFE701
:103FC000FFE7002009901198006800680990119897
:103FD0000068406809900998FFE744F26C51C0F608
:103FE0000101086849680891079009F097FE016887
:103FF0008A68032190470690069801688A6A07A993
:1040000090472BE01198006841F20001C4F20101D1
:10401000884222D1FFE7FFE7002005901198006851
:104020000068059011980068406805900598FFE7C2
:1040300044F26451C0F60101086849680491039094
:1040400009F06CFE01688A6800219047029002988E
:1040500001688A6A03A99047FFE7FFE7FFE712B00C
:1040600080BD000080B592B0119011980068006882
:10407000109011980068C0680F901198006840690E
:104080000E9000200D900C90109800F00F000D90F5
:104090000D9888B9FFE79DF84000800600280AD5F2
:1040A000FFE79DF83C008006002804D5FFE7119843
:1040B00001F0E6FF02E2FFE70D98002800F0C28061
:1040C000FFE79DF83800C00738B9FFE7BDF83C00AE
:1040D00010F4907F00F0B680FFE79DF84000C00725
:1040E00058B1FFE79DF83D00C00730B1FFE71199D7
:1040F000486C40F001004864FFE79DF8400040072D
:1041000000280BD5FFE79DF83800C00730B1FFE766
:104110001199486C40F002004864FFE79DF84000A8
:10412000800700280BD5FFE79DF83800C00730B1A5
:10413000FFE71199486C40F004004864FFE79DF8E0
:1041400040000007002811D5FFE79DF83C008006DD
:10415000002805D4FFE79DF83800C00730B1FFE71D
:104160001199486C40F008004864FFE71198406CD2
:10417000002866D0FFE79DF84000800600280AD599
:10418000FFE79DF83C008006002804D5FFE7119862
:1041900001F076FFFFE7119800684069C0F38010D6
:1041A0000C901198406C0007002804D4FFE70C988D
:1041B00000283ED0FFE7119801F0E8FE1198006852
:1041C0004069400600282FD5FFE7FFE7FFE7119879
:1041D000006850E8050F20F040000B90FFE70B99B6
:1041E0001198026842E805100028F0D1FFE7FFE7C8
:1041F0001198C06B98B1FFE71198C16B45F6395023
:10420000C0F6000008651198C06BFDF7CFFD28B11E
:10421000FFE71198C06B016D8847FFE703E0119835
:10422000FFF764FEFFE703E01198FFF75FFEFFE78B
:1042300006E01198FFF75AFE119900204864FFE745
:10424000FFE73BE11198006B012840F01781FFE781
:104250009DF84000C006002840F11081FFE79DF85E
:104260003C00C006002840F10981FFE7FFE700207D
:104270000A901198006800680A90119800684068D8
:104280000A900A98FFE711980068406940060028E4
:1042900040F19A80FFE71198C06B00684068ADF864
:1042A0002600BDF82600002875D0FFE7BDF82600DF
:1042B0001199898D88426EDAFFE7BDF826001199C1
:1042C000C8851198C06BC069B0F5807F58D0FFE7F2
:1042D000FFE7FFE71198006850E8030F20F48070B3
:1042E0000890FFE708991198026842E80310002837
:1042F000F0D1FFE7FFE7FFE7FFE71198006850E81C
:10430000050F20F001000790FFE707991198026858
:1043100042E805100028F0D1FFE7FFE7FFE7FFE7DD
:104320001198006850E8050F20F040000690FFE764
:1043300006991198026842E805100028F0D1FFE7BD
:10434000FFE71199202081F84200119900200863AD
:10435000FFE7FFE71198006850E8030F20F0100016
:104360000590FFE705991198026842E803100028BC
:10437000F0D1FFE7FFE71198C06BFDF7A1FCFFE765
:104380001199022048631198818DC28D891A89B2D2
:10439000FFF744FD17E0BDF826001199898D88428A
:1043A00010D1FFE71198C06BC069B0F5807F08D1CC
:1043B000FFE71199022048631198818DFFF72EFDC8
:1043C000FFE7FFE7FFE779E01199888DC98D401A73
:1043D000ADF812001198C08D00284ED0FFE7BDF84F
:1043E0001200002849D0FFE7FFE7FFE711980068B7
:1043F00050E8030F20F490700390FFE703991198A1
:10440000026842E803100028F0D1FFE7FFE7FFE76A
:10441000FFE71198006850E8050F20F001000290B6
:10442000FFE702991198026842E805100028F0D1D0
:10443000FFE7FFE71199202081F842001199002041
:104440000863FFE7FFE71198006850E8030F20F0CA
:1044500010000190FFE701991198026842E80310EB
:104460000028F0D1FFE7FFE7119902204863119877
:10447000BDF81210FFF7D2FCFFE71FE09DF84000E7
:10448000000600280AD5FFE79DF83C00000600283A
:1044900004D5FFE7119802F00FF80FE09DF84000F7
:1044A000400600280AD5FFE79DF83C00400600289A
:1044B00004D5FFE7119801F0B3FDFFE712B080BD0E
:1044C00080B582B00090009820B9FFE701208DF8F8
:1044D000070040E00098806908B1FFE700E0FFE7CF
:1044E000009890F8410040B9FFE70099002081F85A
:1044F0004000009800F034F8FFE70099242081F88C
:10450000410000980168C86820F40050C860009815
:1045100001F06AFE00980168086920F49040086183
:1045200000980168486920F02A00486100980168F5
:10453000C86840F40050C860009900204864009AA0
:10454000202182F84110009A82F8421000994863B5
:104550008DF80700FFE79DF8070002B080BD00005E
:1045600080B5A2B02190002020901F901E901D9039
:104570001C902198006847F60001C4F200018842AF
:1045800040F09380FFE7FFE700201B9043F64000D8
:10459000C4F20200016841F080410160006800F04F
:1045A00080401B901B98FFE7FFE700201A9043F61E
:1045B0003000C4F20200016841F01001016000689F
:1045C00000F010001A901A98FFE74FF4C0701C908A
:1045D00002201D90002010901E9003201F900820A4
:1045E000209041F20000C4F202001CA9FDF7AAFECF
:1045F000109940F66850C2F20000119046F258023D
:10460000C4F2020202604FF0206242608160C16029
:104610004FF48062026141618161C1610162416266
:10462000FDF776FD18B1FFE7FCF7C4FBFFE7FFE7F6
:10463000219840F66851C2F20001C1632198886355
:10464000FFE740F6C850C2F200000F9046F2280182
:10465000C4F2020101604FF020614160402181609D
:104660000021C1604FF48062026141618161C161DA
:1046700001624162FDF74CFD18B1FFE7FCF79AFBC0
:10468000FFE7FFE7219840F6C851C2F200018163BD
:1046900021988863FFE752200E9005210022FEF743
:1046A0001DF90E98FEF710F9F0E12198006847F621
:1046B0000041C4F20001884240F09180FFE7FFE72B
:1046C0000020199043F64000C4F20200016841F056
:1046D00000410160006800F0004019901998FFE760
:1046E000FFE70020189043F63000C4F20200016892
:1046F00041F010010160006800F010001890189857
:10470000FFE703201C9002211D9100210C911E91B6
:104710001F900820209041F20000C4F202001CA962
:10472000FDF710FE0C9940F62860C2F200000D90D3
:1047300046F2A002C4F2020202604FF02062426020
:104740008160C1604FF48062026141618161C16139
:1047500001624162FDF7DCFC18B1FFE7FCF72AFBC0
:10476000FFE7FFE7219840F62861C2F20001C1632C
:1047700021988863FFE740F68860C2F200000B9042
:1047800046F21001C4F2020101604FF02061416065
:10479000402181600021C1604FF48062026141616B
:1047A0008161C16101624162FDF7B2FC18B1FFE7AE
:1047B000FCF700FBFFE7FFE7219840F68861C2F2B3
:1047C0000001816321988863FFE753200A90052147
:1047D0000022FEF783F80A98FEF776F855E1219853
:1047E000006841F20001C4F20101884267D1FFE78D
:1047F000FFE70020179043F64400C4F2020001686E
:1048000041F010010160006800F010001790179847
:10481000FFE7FFE70020169043F63000C4F20200E5
:10482000016841F002010160006800F0020016908A
:104830001698FFE7C0201C9002201D9000200890D1
:104840001E9003201F900720209040F20040C4F2E9
:1048500002001CA9FDF776FD089940F6E860C2F257
:104860000000099046F24042C4F2020202604FF09A
:10487000006242608160C1604FF480620261416108
:104880008161C16101624162FDF742FC18B1FFE73D
:10489000FCF790FAFFE7FFE7219840F6E861C2F2E3
:1048A0000001C16321988863FFE725200790052157
:1048B0000022FEF713F80798FEF706F8E4E02198C7
:1048C000006844F60001C4F20001884269D1FFE7A4
:1048D000FFE70020159043F64000C4F20200016893
:1048E00041F480210160006800F480201590159843
:1048F000FFE7FFE70020149043F63000C4F2020007
:10490000016841F008010160006800F0080014909F
:104910001498FFE74FF440701C9002201D90002077
:1049200005901E9003201F900720209040F6004025
:10493000C4F202001CA9FDF705FD059940F6487078
:10494000C2F20000069046F27002C4F20202026057
:104950004FF06062426040228260C1604FF480622A
:10496000026141618161C16101624162FDF7D0FB79
:1049700018B1FFE7FCF71EFAFFE7FFE7219840F6C2
:104980004871C2F20001816321988863FFE7272004
:10499000049005210022FDF7A1FF0498FDF794FF84
:1049A00071E02198006841F20041C4F2010188429F
:1049B00068D1FFE7FFE70020139043F64400C4F2FC
:1049C0000200016841F020010160006800F0200051
:1049D00013901398FFE7FFE70020129043F6300092
:1049E000C4F20200016841F040010160006800F07B
:1049F000400012901298FFE74FF484401C90022070
:104A00001D90002002901E9003201F9008202090EF
:104A100041F60000C4F202001CA9FDF793FC0299C4
:104A200040F6A870C2F20000039046F22842C4F299
:104A3000020202604FF0206242608160C1604FF468
:104A40008062026141618161C16101624162FDF781
:104A50005FFB18B1FFE7FCF7ADF9FFE7FFE721982F
:104A600040F6A871C2F20001C16321988863FFE794
:104A70004720019005210022FDF730FF0198FDF746
:104A800023FFFFE7FFE7FFE7FFE7FFE722B080BD77
:104A900080B58AB008900791ADF81A2005930020E0
:104AA0000290089890F84200202840F08880FFE7A4
:104AB000079820B1FFE7BDF81A0020B9FFE70120F1
:104AC0008DF827007FE0089900204864089A222189
:104AD00082F8421008990863FDF72CFE0290BDF899
:104AE0001A0008998885BDF81A000899C8850898A1
:104AF0008068B0F5805F09D1FFE70898006928B9A0
:104B0000FFE7002004900798039004E007980490C2
:104B100000200390FFE7FFE70898C08D002846D0EB
:104B2000FFE70898029B05996A4611602021002240
:104B300001F00CFD40B1FFE70899202081F8420008
:104B400003208DF827003EE0049858B9FFE7089845
:104B5000006840686FF35F20039908800398023073
:104B600003901FE008988068B0F5805F08D0FFE7E9
:104B70000898806850B9FFE70898006930B9FFE7E6
:104B80000898006840680499087007E00898006871
:104B9000406800F07F0004990870FFE70498013036
:104BA0000490FFE70899C88D0138C885B4E70899D3
:104BB000202081F8420000208DF8270003E0022029
:104BC0008DF82700FFE79DF827000AB080BD0000A0
:104BD00080B584B002900191ADF80220029890F85F
:104BE0004200202817D1FFE7019820B1FFE7BDF868
:104BF000020020B9FFE701208DF80F000FE00299B5
:104C00000020086302980199BDF8022001F08AFB98
:104C10008DF80F0003E002208DF80F00FFE79DF8EC
:104C20000F0004B080BD000080B584B002900191F7
:104C3000ADF80220029890F84200202817D1FFE733
:104C4000019820B1FFE7BDF8020020B9FFE701207D
:104C50008DF80F000FE00299002008630298019977
:104C6000BDF8022001F0F6FB8DF80F0003E00220F2
:104C70008DF80F00FFE79DF80F0004B080BD000025
:104C800080B586B005900598006847F60041C4F2EB
:104C90000001884227D1FFE744F27C51C0F60101B0
:104CA000086849680491039009F038F801688A6837
:104CB0000421904702900598019002980168896B41
:104CC00088470146019888420CD1FFE702980168A5
:104CD0004A6903A900919047009902980268126BF3
:104CE0009047FFE7FFE706B080BD000081B000906D
:104CF00001B0704780B58AB008900791ADF81A20CE
:104D0000059300200290089890F84100202840F078
:104D10008180FFE7079820B1FFE7BDF81A0020B9AE
:104D2000FFE701208DF8270078E00899002048640B
:104D30000899212081F84100FDF7FCFC0290BDF8A4
:104D40001A0008998884BDF81A000899C884089840
:104D50008068B0F5805F09D1FFE70898006928B93D
:104D6000FFE7002004900798039004E00798049060
:104D700000200390FFE7FFE70898C08C78B3FFE7B7
:104D80000898029B05996A4611608021002201F073
:104D9000DDFB40B1FFE70899202081F841000320A6
:104DA0008DF827003AE0049858B9FFE70398008887
:104DB0006FF35F20089909684860039802300390F8
:104DC00008E0049800780899096848600498013060
:104DD0000490FFE70899C88C0138C884CCE708988C
:104DE000029B05996A4611604021002201F0AEFB4A
:104DF00040B1FFE70899202081F8410003208DF899
:104E000027000BE00899202081F8410000208DF850
:104E1000270003E002208DF82700FFE79DF8270018
:104E20000AB080BD80B586B004900391ADF80A2029
:104E3000049890F8410020286AD1FFE7039820B138
:104E4000FFE7BDF80A0020B9FFE701208DF8170041
:104E500062E0039804990862BDF80A000499888406
:104E6000BDF80A000499C884049900204864049A93
:104E7000212182F8411004998A6B45F6F961C0F648
:104E80000001D16304998A6B45F67571C0F6000183
:104E9000116404998A6B45F65551C0F60001D1643E
:104EA0000499896B086503A8019004980268806BD7
:104EB000019909680432BDF80A30FDF7E1F958B1EB
:104EC000FFE70499102048640499202081F84100EC
:104ED00001208DF817001FE0049801686FF0400072
:104EE0000860FFE7FFE70498006850E8050F40F00E
:104EF00080000090FFE700990498026842E80510DE
:104F00000028F0D1FFE7FFE700208DF8170003E04D
:104F100002208DF81700FFE79DF8170006B080BD4E
:104F200084B002900191ADF80220029890F84100FF
:104F3000202826D1FFE7019820B1FFE7BDF8020045
:104F400020B9FFE701208DF80F001EE001980299BB
:104F50000862BDF8020002998884BDF80200029937
:104F6000C884029900204864029A212182F84110E5
:104F700002990A68D16841F08001D1608DF80F0074
:104F800003E002208DF80F00FFE79DF80F0004B04A
:104F90007047000081B0009001B0704781B0009070
:104FA00001B07047FFE7FEE780B582B040F61850C9
:104FB000C2F20000009046F20041C4F2000101601C
:104FC00009214160002101918160C1604FF480326C
:104FD00002614FF480124261017641768176C1769A
:104FE00001774177FCF7FAFB18B1FFE7FBF7E2FE28
:104FF000FFE702B080BD000080B582B040F64050AF
:10500000C2F20000009046F60001C4F20001016007
:1050100009214160002101918160C1604FF480321B
:1050200002614FF480124261017641768176C17649
:1050300001774177FCF7D2FB18B1FFE7FBF7BAFE27
:10504000FFE702B080BD000080B58CB0FFE7002014
:105050000B9043F63000C4F20200016841F4800175
:105060000160006800F480000B900B98FFE7FFE7F9
:1050700000200A9043F63000C4F20200016841F4B7
:1050800000110160006800F400100A900A98FFE720
:105090000B2001900521079100220892FDF71EFCCC
:1050A0000198FDF711FC0799089A0C200290FDF772
:1050B00015FC0298FDF708FC0799089A0E2003904A
:1050C000FDF70CFC0398FDF7FFFB0799089A0F20EA
:1050D0000490FDF703FC0498FDF7F6FB0799089A86
:1050E00011200590FDF7FAFB0598FDF7EDFB0799F8
:1050F000089A39200690FDF7F1FB0698FDF7E4FBCE
:105100000799089A3A200990FDF7E8FB0998FDF7FE
:10511000DBFB0CB080BD0000B0B5ACB044F2106059
:10512000C0F60100016842688368D0F80CC0D0F86E
:1051300010E044692A94CDF8A4E0CDF8A0C02793EC
:105140002692259180692B9025A8002101910DF0D0
:1051500029F9019940F64C32C2F20002106044F283
:10516000A050C0F6010002684368D0F808C0D0F82B
:105170000CE00469456923952294CDF884E0CDF8CC
:1051800080C01F931E92806924901EA80DF00AF91A
:10519000019940F2BC02C2F20002106044F2845055
:1051A000C0F6010002684368D0F808C0D0F80CE0EF
:1051B000046945691C951B94CDF868E0CDF864C07E
:1051C0001893179280691D9017A80DF0EBF80199BC
:1051D00040F27802C2F20002106044F2D850C0F6E9
:1051E000010002684368D0F808C0D0F80CE00469F8
:1051F000456915951494CDF84CE0CDF848C011934D
:1052000010928069169010A80DF0CCF8019940F228
:10521000EC52C2F20002106044F2BC50C0F6010031
:1052200002684368D0F808C0D0F80CE0046945690A
:105230000E950D94CDF830E0CDF82CC00A9309926C
:1052400080690F9009A80DF0ADF8019940F2741231
:10525000C2F20002106044F2F450C0F6010002688D
:105260004368D0F808C0D0F80CE004694569079598
:105270000694CDF814E0CDF810C003930292806933
:10528000089002A80DF08EF840F2F051C2F2000131
:1052900008602CB0B0BD000086B0FFE7002005908C
:1052A00043F63000C4F20200016841F010010160D1
:1052B000006800F0100005900598FFE7FFE7002068
:1052C000049043F63000C4F20200016841F040014E
:1052D0000160006800F0400004900498FFE7FFE7D9
:1052E0000020039043F63000C4F20200016841F050
:1052F00001010160006800F0010003900398FFE7DE
:10530000FFE70020029043F63000C4F2020001687B
:1053100041F002010160006800F002000290029872
:10532000FFE7FFE70020019043F63000C4F20200DF
:10533000016841F008010160006800F00800019078
:105340000198FFE7FFE70020009043F63000C4F229
:105350000200016841F080010160006800F08000F7
:1053600000900098FFE706B07047000080B588B055
:1053700000210091079106910591049103910291FA
:10538000019141F25000C2F2000041F60002C4F265
:1053900000020260B3224260816040F27112C2607A
:1053A00001618161FEF73AFB18B1FFE7FBF702FDEF
:1053B000FFE760200190002202920392059241F2E1
:1053C0005000C2F2000001A9FEF786FA18B1FFE70B
:1053D000FBF7F0FCFFE741F25000C2F20000FEF7DD
:1053E00041FA08B080BD000080B582B041F2701073
:1053F000C2F20000019047F60001C4F20001016012
:105400004FF4E131416000218160C16001610C22F3
:1054100042618161C161FFF753F818B1FFE7FBF703
:10542000C9FCFFE702B080BD80B582B041F2B81080
:10543000C2F20000019047F60041C4F20001016091
:105440004FF4E131416000218160C16001610C22B3
:1054500042618161C161FFF733F818B1FFE7FBF7E3
:10546000A9FCFFE702B080BD80B582B041F2980090
:10547000C2F20000019041F20001C4F2010101609A
:1054800048F2A061C0F2010141604FF48051816097
:105490000021C1604FF4806202610C22426181618F
:1054A000C161FFF70DF818B1FFE7FBF783FCFFE7D9
:1054B00002B080BD80B582B041F2E000C2F20000CF
:1054C000019044F60001C4F2000101604FF4E131A3
:1054D000416000218160C16001610C2242618161F3
:1054E000C161FEF7EDFF18B1FFE7FBF763FCFFE7D3
:1054F00002B080BD80B582B041F22810C2F2000037
:10550000019041F20041C4F2010101604FF47A318F
:10551000416000218160C16001610C2242618161B2
:10552000C161FEF7CDFF18B1FFE7FBF743FCFFE7D2
:1055300002B080BDFFE7FEE780B582B0019002F0C7
:1055400035FEFFE740F62800C2F200000168013195
:105550000160006803F080FA01200CF009FFF1E718
:10556000FFE7FEE788B0079006910592079800F0E4
:10557000070004900498C0F10700052803D3FFE753
:105580000420019004E00498C0F107000190FFE7B7
:105590000198039004980430062803D8FFE7002000
:1055A000009003E0049803380090FFE70098029011
:1055B00006980399012202FA01F101390840029B81
:1055C000984005999A40013A1140084308B0704745
:1055D000EFF30980BFF36F8F154B1A681EF0100FA1
:1055E00008BF20ED108A20E9F04F10602DE9090076
:1055F0004FF0500080F31188BFF34F8FBFF36F8FD0
:105600000DF010FE4FF0000080F31188BDE8090096
:1056100019680868B0E8F04F1EF0100F08BFB0EC32
:10562000108A80F30988BFF36F8F704700BF00BFF7
:105630001C1400200000000000000000000000001A
:10564000074B19680868B0E8F04F80F30988BFF38A
:105650006F8F4FF0000080F31188704700BF00BFCC
:105660001C14002080B582B0019001F04FFCFFE7D0
:1056700002F00EFD40F64020C2F2000001F0D0FA28
:1056800001200CF075FEF3E780B582B00190FFE7D2
:1056900001200CF06DFEFBE780B582B04FF05000AA
:1056A00080F31188BFF36F8FBFF34F8F00900DF021
:1056B0007DFF40B1FFE74EF60451CEF200014FF0FE
:1056C00080500860FFE700200190019880F3118866
:1056D00002B080BD80B594B008A83021FAF7D0FDA3
:1056E000002007900690059004900390FFE70020AB
:1056F000029043F64000C4F20200016841F080517C
:105700000160006800F0805002900298FFE7FFE718
:105710000020019047F20000C4F20000016841F44B
:1057200040410160006800F4404001900198FFE7AB
:10573000012008904FF48030099002200E904FF421
:1057400080010F9106211091B42111911290042033
:10575000139008A8FDF73EFB18B1FFE7FBF72AFB03
:10576000FFE7FDF7DDF818B1FFE7FBF723FBFFE7E5
:105770000F20039002200490002005904FF4A050C9
:1057800006904FF48050079003A80521FDF728F9F3
:1057900018B1FFE7FBF70EFBFFE714B080BD000078
:1057A0004EF68851CEF20001086840F4700008609F
:1057B0007047000080B541F20800C2F20000FDF71A
:1057C00043FF80BD83B00290019102980068009071
:1057D00002980021C4F20101884225D0FFE7029817
:1057E000B0F1804F20D0FFE7029840F20041C4F2B0
:1057F0000001884218D0FFE7029840F60001C4F289
:105800000001884210D0FFE7029840F60041C4F240
:105810000001884208D0FFE7029840F20041C4F23C
:10582000010188420AD1FFE7009820F07000009043
:1058300001984168009808430090FFE70298002112
:10584000C4F20101884255D0FFE70298B0F1804FC1
:1058500050D0FFE7029840F20041C4F200018842B4
:1058600048D0FFE7029840F60001C4F200018842E8
:1058700040D0FFE7029840F60041C4F200018842A0
:1058800038D0FFE7029840F20041C4F2010188429B
:1058900030D0FFE7029844F20001C4F201018842CF
:1058A00028D0FFE7029844F20041C4F20101884287
:1058B00020D0FFE7029844F60001C4F201018842BB
:1058C00018D0FFE7029841F60001C4F200018842B7
:1058D00010D0FFE7029841F60041C4F2000188426F
:1058E00008D0FFE7029842F20001C4F200018842AA
:1058F0000AD1FFE7009820F4407000900198C16839
:10590000009808430090FFE7009820F0800001997C
:10591000496908430090019880680299C86201981B
:1059200000680299886202980021C4F2010188424D
:1059300008D0FFE7029840F20041C4F2010188421A
:1059400005D1FFE70198006902990863FFE7029912
:10595000086840F00400086002990120486100983E
:105960000299086003B0704784B0039002910192DD
:10597000029800F01F01012088400090009A0399CE
:10598000086A904308620198029901F01F0100FA29
:1059900001F20399086A1043086204B070470000DE
:1059A00085B0049003910498006A01900499086AF4
:1059B00020F0010008620498406800900498806913
:1059C0000290029820F070000290029820F00300EC
:1059D000029003980168029808430290019820F011
:1059E000020001900398816801980843019004988F
:1059F0000021C4F20101884208D0FFE7049840F278
:105A00000041C4F2010188420ED1FFE7019820F065
:105A1000080001900398C16801980843019001981B
:105A200020F004000190FFE704980021C4F2010176
:105A3000884208D0FFE7049840F20041C4F2010117
:105A4000884213D1FFE7009820F4807000900098FE
:105A500020F400700090039841690098084300907A
:105A600003988169009808430090FFE70098049923
:105A700048600298049988610398406804994863D3
:105A800001980499086205B07047000085B0049041
:105A900003910498006A01900499086A20F01000AC
:105AA0000862049840680090049880690290029807
:105AB00020F4E0400290029820F440700290039895
:105AC0000168029840EA01200290019820F020002D
:105AD000019003988168019840EA011001900498B0
