:020000040800F2
:10000000E04D00205D0200085D2E0008012B000875
:10001000492E0008250800084538000800000000A7
:10002000000000000000000000000000012F000898
:10003000AD09000800000000912E0008392F0008CB
:1000400077020008770200087702000877020008AC
:10005000770200087702000877020008770200089C
:10006000770200087702000877020008770200088C
:10007000770200087702000877020008770200087C
:10008000770200087702000877020008770200086C
:1000900029080008390800087702000877020008DC
:1000A000770200082D300008770200087702000868
:1000B000770200087702000877020008770200083C
:1000C000770200087702000877020008770200082C
:1000D0007702000825380008770200087702000838
:1000E000770200087702000877020008770200080C
:1000F00077020008770200087702000877020008FC
:1001000077020008770200087702000877020008EB
:1001100077020008770200087702000877020008DB
:1001200077020008C1080008D1080008770200081B
:1001300077020008770200087702000877020008BB
:1001400049080008590800087702000877020008EB
:1001500077020008E1080008770200083538000837
:10016000770200087702000877020008770200088B
:1001700077020008770200087702000800000000FC
:10018000770200087702000877020008770200086B
:10019000770200087702000877020008770200085B
:1001A00000000000000000007702000800F002F8E4
:1001B00000F045F80AA090E8000C82448344AAF1BC
:1001C0000107DA4501D100F03AF8AFF2090EBAE8BA
:1001D0000F0013F0010F18BFFB1A43F0010318477B
:1001E0002C7700004C770000103A24BF78C878C103
:1001F000FAD8520724BF30C830C144BF04680C602D
:10020000704700000023002400250026103A28BF74
:1002100078C1FBD8520728BF30C148BF0B60704778
:100220001FB507F00CFA9DE8030000F0EBF900F0B1
:100230003BF91FBD10B5002000F01AFA10BD00F008
:1002400059FA1146FFF7ECFF05F022FD00F091FA94
:1002500003B4FFF7EFFF03BC00F038F9094880470B
:1002600009480047FEE7FEE7FEE7FEE7FEE7FEE798
:10027000FEE7FEE7FEE7FEE704480549054A064BB0
:100280007047000019300008AD010008E047002069
:10029000E04D0020E0490020E049002053EA020C34
:1002A00000F069802DE9F04B4FF00006002B1FBFD6
:1002B000B3FA83F503FA05F424FA05F65E4012BF9B
:1002C0001643B2FA82F502FA05F4C5F120051EBF05
:1002D00022FA05FC44EA0C04203556EA044C4FEAA5
:1002E000144418BF641C4FF000084FF000099042FE
:1002F00071EB030C39D3002919BFB1FA81F701FA68
:1003000007F6B0FA80F700FA07F6C7F120071EBF1C
:1003100020FA07FC46EA0C062037B6FBF4FCA7EBF4
:100320000507103F07F01F0BCBF120062CFA06F64D
:100330000CFA0BFB44BFB3460026202FA4BF5E4639
:100340004FF0000B5BEA060C08BF4FF0010B19EBF6
:100350000B0948EB0608ABFB027C06FB02CC0BFB4F
:1003600003CCC01B71EB0C01C1E70B4602464146B2
:100370004846BDE8F08B13B5084318BF4FF0FF3077
:100380000146AFF30080BDE81C40704710B5002067
:1003900000F00FF9FFF74EFFBDE81040012000F01C
:1003A00095B80B460146184600F0ECB810B5203A57
:1003B000C0F00B80B1E81850A0E81850B1E8185010
:1003C000A0E81850203ABFF4F5AF5FEA027C24BFE2
:1003D000B1E81850A0E8185044BF18C918C0BDE8CB
:1003E00010405FEA827C24BF51F8043B40F8043B94
:1003F00008BF7047D20728BF31F8023B48BF11F849
:10040000012B28BF20F8023B48BF00F8012B7047A2
:100410004FF000020429C0F0128010F0030C00F02D
:100420001B80CCF1040CBCF1020F18BF00F8012BAB
:10043000A8BF20F8022BA1EB0C0100F00DB85FEA79
:10044000C17C24BF00F8012B00F8012B48BF00F845
:10045000012B70474FF0000200B5134694469646B4
:10046000203922BFA0E80C50A0E80C50B1F12001C7
:10047000BFF4F7AF090728BFA0E80C5048BF0CC075
:100480005DF804EB890028BF40F8042B08BF7047D3
:1004900048BF20F8022B11F0804F18BF00F8012B45
:1004A000704770477047704770B5064C7C44064DE6
:1004B0007D4404E02046016808448047241DAC4286
:1004C000F8D170BD7C7400008074000001491820D0
:1004D000ABBEFEE72600020070B5064600F072F8DB
:1004E000056806F10B0020F00704B4429CBF002011
:1004F00070BD2B466A68BAB11068A04210D304F1EF
:10050000080188423CBF5068586007D351681019F1
:1005100041601168091B016058601460101D70BDB6
:1005200013465268002AE7D12146284600F056F8C3
:100530000028DED170BD70B50446051F00F042F8FA
:100540000068002C14BF446870BD002C18BFAC427A
:100550003CBF20466468F8D301680A18AA4218BF55
:10056000456003D12A680546114401602868411995
:10057000A1421CBF6C6070BD61686960216808445D
:10058000286070BD2DE9F041074615460E46102043
:10059000FFF7A2FF04000AD06760C4E9026500F01B
:1005A00015F80168216004600020BDE8F081012099
:1005B000FBE710B500F082F8BDE8104000F079B814
:1005C00070470000004870476000002000487047F6
:1005D00090000020704770477047704738B5044658
:1005E0000A4600206946AFF30080002808BF38BDE6
:1005F00002460099204600F0A2F8012038BD0120F3
:1006000000F0D9B8F8B5AFF30080054600200C46DD
:10061000102000BF0646A819A0420DD932466946EF
:100620000020AFF30080070008BF00F0C4F8009876
:10063000A04218BF0546C419FFF7C4FF056007466E
:10064000F01D20F007004619284600F00AF8B442D1
:1006500008BFF8BDA21B31463868BDE8F84000F07D
:100660006EB800210160C0E901107047102070478A
:100670002DE9F0410646FFF7A9FF8046454613E005
:1006800016B1E068B0420ED120682860D4E90101BB
:10069000D8F8007088472046FFF74DFFD8F80000D3
:1006A000B842EBD100E025462C68002CE8D1BDE82B
:1006B000F081002801D0FFF709BF704710B5002175
:1006C00002A000F05FF8012010BD0000534947412F
:1006D0004252543A2041626E6F726D616C207465B3
:1006E000726D696E6174696F6E000000004870473A
:1006F000580000207546FFF7F9FFAE460500694631
:10070000534620F00700854618B020B5FFF7B4FD2A
:10071000BDE820404FF000064FF000074FF0000802
:100720004FF0000BAC46ACE8C009ACE8C009ACE83F
:10073000C009ACE8C00921F007018D4670470346A7
:1007400040688C46002818BF88423CBF034640687A
:10075000F8D318681844884207D00CF1030020F041
:100760000700001D411A521A0146081D0A60FFF7D2
:10077000E2BE10B50446AFF300802046BDE810404D
:10078000FFF766BD70B505460C460A2000E06D1CFB
:1007900000F018F835B128780028F8D102E0641C80
:1007A00000F010F814B120780028F8D1BDE87040AE
:1007B0000A2000F007B810B500F00CF8BDE81040B2
:1007C000FFF777BF08B569468DF800000320ABBE80
:1007D00008BD000010B5012805D0002103A0FFF7D7
:1007E000D1FF012010BD09A1F8E70000534947528D
:1007F000544D454D3A204F7574206F6620686561F1
:1008000070206D656D6F7279000000003A204865B8
:100810006170206D656D6F727920636F7272757093
:1008200074656400FEE7000080B540F25C40C2F2EF
:10083000000000F049FA80BD80B540F25C40C2F291
:10084000000000F041FA80BD80B540F28440C2F261
:10085000000000F039FA80BD80B540F28440C2F259
:10086000000000F031FA80BD03F0A0FB03F0F2FBC2
:1008700040F2B014C2F2000420460121002203F02D
:1008800021FD2046002104F0B9F903F061F940F29E
:100890000004C2F2000400BF204604F053FE0546E7
:1008A000204604F051FE064603F03AF80246284678
:1008B000314603F09FF9012005F00AFAECE7000049
:1008C00080B540F20C50C2F2000000F0FFFC80BD89
:1008D00080B540F2AC40C2F2000000F0F7FC80BDF1
:1008E00080B540F26C50C2F2000000F0EFFC80BD19
:1008F000D0F800C06FF00F024AF6AB2352FA8CF228
:10090000CAF6AA230146A2FB0330000905A31B5C1B
:1009100040F2FF302CEA00005F2A88BF0430C1E9B2
:100920001603704700061016000610168269816AC9
:10093000B2F5005F06D06AB9022912D0012914D09D
:10094000D1B90EE0032917D8DFE801F0020B020F3E
:100950000120704703293CBF012070471CBF0020C5
:100960007047C06AC0F300607047C06AA0F1C070F1
:10097000B0FA80F0400970470020704780B5D0F889
:1009800000C0D0F808E0DCF80000BEF1400F20F411
:100990008020CCF800000846CCF8043004BF104694
:1009A0000A46CCF80800CCF80C2080BD7047000047
:1009B00072B600BFFEE7000090F82020013A012A3D
:1009C00004D8006800F11402002004E000F12402C1
:1009D00001204FF480211368194311607047000013
:1009E00010B590F820E0D0F800C0AEF1010EBEF1D5
:1009F000010FDCF808E00ED81EF0E05F11D0CEF356
:100A0000016E012000FA0EF018608B687BB1486817
:100A100043EAC0030DE000F1240101204FF48022DD
:100A200023E000F1240101204FF400121DE00868CA
:100A30004305D1E9030403430CEB0E10C0F88031E9
:100A4000C0F88441097D012905D100F5C2710B6808
:100A500043F480730B605168C0F88C11126800F584
:100A6000C071C0F88821002001220B681A430A6077
:100A700010BD0000B0B590F82020013A012A2FD80F
:100A800046F20060C4F20000026842F00102026017
:100A9000026822F47C520260D1F814E0CC694A6A00
:100AA0000368012C43EA022202600EF01F024FF09D
:100AB000010303FA02F2C3696FEA020C23EA02039C
:100AC000C36113D02CBBC36803EA0C03C360CB68BB
:100AD0008C8844EA034300EBCE0423640B4611E008
:100AE000416A41F4802141620120B0BDC3681343D3
:100AF000C3600B688C8844EA034300EBCE04236494
:100B000001F10C038C681B8843EA044300EBCE041C
:100B1000636443688D6943EA0204D1F810E0096A0E
:100B2000002D08BF03EA0C0444604369BEF1000FC6
:100B300043EA020408BF03EA0C040129446102D11C
:100B4000C1691143C161016821F001010160002008
:100B5000B0BD00007047000090F82020013A012A43
:100B600084BF0020704700681022002908BF0C22B3
:100B7000805800F00300704710B590F82040013C09
:100B8000012C0CD8D0F800C079B1DCF81040A407D3
:100B90000FD100F1240101204FF4001276E000F1A2
:100BA000240101204FF4802270E0DCF80C40A407FF
:100BB00070D00CEB011CDCF8B0410CF5D87E14F0C1
:100BC00004049460DCF8B04119BFE4085460640D7B
:100BD0001460DEF800400CF5DA7E04F00204D46004
:100BE000DCF8B44124075ABFDEF8004004F00F04DB
:100BF00008241461DEF800400029C4F3072494613E
:100C0000DEF800404FEA14445461DCF8B8211A7051
:100C1000026802EB0112D2F8B8214FEA12225A7090
:100C2000026802EB0112D2F8B8214FEA12429A7020
:100C3000026802EB0112D2F8B8214FEA1262DA70B0
:100C4000026802EB0112D2F8BC211A71026802EBB1
:100C50000112D2F8BC214FEA12225A71026802EB4B
:100C60000112D2F8BC214FEA12429A71026802EBDB
:100C70000112D2F8BC214FEA1262DA71006814BF87
:100C800000F1100100F10C01002020220B681A4332
:100C90000A6010BD00F1240101204FF40012F5E7B5
:100CA00090F820100139012984BF002070470068A6
:100CB0008168C1F380618268C2F3C06280681144B8
:100CC000C0F30070084470472DE9F04F81B004462E
:100CD00000684669D0F804908768D0F80CB0D0F866
:100CE00010A0D0F81880F10703D1002530071CD4DC
:100CF00023E0F90710D00121BA07816009D47807F1
:100D000000F1AA80380700F1B080204600F07EFA9A
:100D100002E0204600F07CFA0025F80500F184800E
:100D2000F80300F1AA80300707D51BF0100004D0AB
:100D3000206845F400751021C160700708D51BF0CC
:100D4000080005D020680821C160204600F0F6F9AF
:100D5000B00706D52068C068800702D0204600F0A2
:100D6000EFF9700607D51AF0100004D0206845F49A
:100D7000806510210161B00608D51AF0080005D081
:100D8000206808210161204600F0F4F9F00606D53C
:100D900020680069800702D0204600F0EDF9B0031A
:100DA00008D519F0100005D02068102141602046B8
:100DB00000F0FCF9F00308D519F0080005D0206810
:100DC00008214160204600F02DFA300440F18F8068
:100DD0005FEA497040F1888006F4807008EA1020CC
:100DE00028435FEA8871014648BF41F00201B2051D
:100DF00058BF01465FEA48700D4648BF45F00405FC
:100E0000700558BF0D4630056ED518F070006BD0D8
:100E100010380009052862D8DFE800F0035356595E
:100E20005C5F45F008055AE020684FF48071BA0510
:100E300081600AD4780512D4380519D4204600F010
:100E4000E9F9F8037FF56FAF17E0204600F0E4F909
:100E5000F8037FF568AF10E04FF400655DE705F536
:100E60000055F8037FF55FAF07E04FF4805554E776
:100E700005F58045F8037FF556AF20684FF48031C3
:100E8000BA0381600AD478030FD4380313D4204600
:100E900000F0C4F930073FF548AF4EE7204600F0B8
:100EA000BFF930073FF541AF47E705F5004530078B
:100EB0003FF53BAF41E705F5803530073FF535AFEE
:100EC0003BE745F010050AE045F0200507E045F056
:100ED000400504E045F0800501E045F48075206898
:100EE000816921F0700181612068042141602DB188
:100EF000606A284360622046FFF72CFE01B0BDE81F
:100F0000F08F0000B0B5C8B1044690F8200010B9C9
:100F1000204600F077F82068016841F00101016087
:100F200000F002FC054600BF20684168C90707D1F0
:100F300000F0FAFB401B0B28F6D312E00120B0BDF5
:100F4000016821F00201016000F0EEFB054600BFE0
:100F50002068416889070DD500F0E6FB401B0B288F
:100F6000F6D3606A052140F400306062012084F805
:100F70002010B0BD217E0268012922F0800308BF45
:100F800042F080030360617E0268012922F0400381
:100F900008BF42F040030360A17E0268012922F0ED
:100FA000200308BF42F020030360E17E02680129AC
:100FB00042F0100308BF22F010030360217F026893
:100FC000012922F0080308BF42F008030360617F93
:100FD0000268012922F0040308BF42F00403036001
:100FE000D4E901C2D4E9033561691A432A431143A4
:100FF000ACF101021143C16100200121606284F85B
:101000002010B0BDB0B586B00021CDE90411CDE906
:101010000211006846F60002C4F2000290420191FB
:1010200036D046F20041C4F20001884240F083808D
:1010300040F2C001C2F200010A6843F64000C4F267
:101040000200531C0B6052B900210091016841F06D
:1010500000710160016801F00071009100990021A8
:10106000009150F8101C152441F0080140F8101CA4
:1010700050F8100C142500F0080000900098032090
:10108000019040F20040C4F2020000F5006037E039
:1010900043F64000C4F202000091016841F0806113
:1010A0000160016801F080610091009940F2C00187
:1010B000C2F200010A68531C0B6052B90021009172
:1010C000016841F000710160016801F00071009158
:1010D00000990021009150F8101C412441F00201B8
:1010E00040F8101C50F8100C402500F00200009051
:1010F00000984FF44050019040F20040C4F20200CA
:1011000002210291002103910321049109210591FB
:1011100001A900F03BFA28460521002200F0AEFBB1
:10112000284600F0A7FB20460521002200F0A6FB80
:10113000204600F09FFB06B0B0BD000070470000E5
:10114000B0B586B0054603F0A5FD01688A680021A8
:10115000904704460068816920468847A84201D02C
:1011600006B0B0BD2068694642692046904706B087
:10117000B0BD000070470000B0B586B0054603F072
:1011800089FD01688A6801219047044600688169E9
:1011900020468847A84201D006B0B0BD2068694605
:1011A00042692046904706B0B0BD0000704700007D
:1011B000B0B5044690F8200001281DD1022084F823
:1011C00020002068016821F00101016000F0ACFA04
:1011D000054600BF20684068C00713D000F0A4FA9D
:1011E000401B0B28F6D3606A40F400306062052093
:1011F00084F820000120B0BD606A40F400206062E5
:101200000120B0BD00206062B0BD0000704700004A
:1012100070470000704700007047000070470000F2
:10122000704700007047000070B5866D044600F0FE
:101230007BFA94F83510022925D105462068216CE7
:10124000026822F016020260426922F080024261C6
:1012500009B9A16C19B1016821F0080101600168A8
:1012600021F00101016000BF20680068C0070ED0B6
:1012700000F05AFA401B0628F6D3202060650320B0
:1012800084F835000CE080206065012008E0E06D06
:101290003F2101FA00F0B060012084F83500002001
:1012A000002184F8341070BD90F83510022909D15E
:1012B000052180F835100068016821F00101016006
:1012C000002070478021416501207047F0B581B052
:1012D00004460020009040F24800C2F2000002687C
:1012E000D4E9166048F2B51337680821C1F64E33C9
:1012F00081403942A2FB03250CD0226813685B07AA
:1013000008D5136823F004031360B160616D41F0E8
:101310000101616501218140394208D0226852698A
:10132000120604D5B160616D41F0020161650421CE
:101330008140394208D022681268920704D5B16012
:10134000616D41F00401616510218140394215D081
:1013500020680268120711D5B16002680168520363
:1013600006D4C90506D4016821F00801016001E036
:10137000080342D4216C09B120468847E16D202042
:1013800000FA01F23A4244D020680368DB0640D5F7
:10139000B26094F835300268052B1ED122F0160297
:1013A0000260426922F080024261226C0AB9A26C9A
:1013B0001AB1026822F0080202603F208840B06043
:1013C000012084F83500216D0020002984F83400C4
:1013D00040D02046884701B0F0BD0168520310D4C8
:1013E000C90512D4016821F010010160012084F8C0
:1013F0003500002084F8340007E0A16C0029BBD13F
:10140000BCE7080301D4616C00E0E16B09B1204640
:101410008847606DF0B1606DC00717D0052084F873
:1014200035002068A90A026822F00102026000BFAC
:10143000009A01328A42009202D80268D207F7D19C
:10144000012084F83500002084F83400E16C09B1F3
:101450002046884701B0F0BD2DE9F041044600F078
:1014600063F9C4B10546022084F8350000202168E4
:1014700084F83400086820F00100086026683068AD
:10148000C0070BD000F050F9401B0528F6D9032106
:101490002022032042E00120BDE8F081306848F2BC
:1014A0003F01CFF21001251D00EA010C2ECDD4E939
:1014B000050E41EA0C01114319432943D4E9077889
:1014C000084340EA0E01606A3943042841EA0801F2
:1014D00003D1D4E90B231143194331607169042806
:1014E00021F0070141EA00050CD1D4E90A1045EAD0
:1014F000010538B12046FFF719FA18B10121402241
:1015000001200BE020467561FFF7F2F9E16D3F2203
:1015100002FA01F18160002201210020626584F855
:101520003510BDE8F0810000B0B5044690F83400F5
:10153000012828D0012084F83400A56D94F83500E6
:1015400001281DD1022084F8350000206065204666
:10155000FFF714FAE26D3F23206803FA02F2216CD0
:10156000AA60026842F01602026019B1016841F0F7
:1015700008010160016841F0010101600020B0BD77
:10158000002084F834000220B0BD00002DE9F04FA7
:1015900083B000F13E4202F1FF724FEAB22242F202
:1015A00000470192C4F202070A224FF0010E002503
:1015B0004FF0000A4FF00008B84208BF092200921D
:1015C0000AE000BF08F101080AF1040AB8F1100F9F
:1015D00005F1020500F0A4800C680EFA08FB14EA7D
:1015E0000B09EFD04C6804F0030CACF1010EBEF116
:1015F000010F11D80322876802FA05F6CA68B743BB
:10160000AA403A4382604268C4F3001722EA0B0200
:1016100007FA08F73A434260BCF1030F1CD0C268D6
:1016200003238E6803FA05F7BA4306FA05F73A432F
:10163000BCF1020FC2600FD16FF0030202EA580240
:1016400002440AF01C060F23176A03FA06F40B691A
:10165000A743B3403B431362026803234F68AB4088
:101660009A4307F00303AB401A4317F4403F4FF08F
:10167000010E0260A6D0002243F644030292C4F297
:1016800002031A6843F6004442F480421A601A6862
:10169000C4F2010402F480420292029A28F003028A
:1016A0004FF6084B2244CFF6FF7B52F80B300AF07E
:1016B0000C070F26BE4023EA060C019B009E092B57
:1016C00038BF1E4606FA07F747EA0C0342F80B300C
:1016D000A2684B6842EA090743F60C4CDE0258BF89
:1016E00022EA0907A760C4F2010CDCF800209E0280
:1016F00042EA090758BF22EA0907CCF8007062687D
:101700009E0342EA090758BF22EA09076760226878
:10171000DB0342EA090358BF22EA0903236051E7C9
:1017200003B0BDE8F08F000044F25840C2F2000060
:101730000068704740F24C0044F25841C2F2000089
:10174000C2F2000100780A68104408607047000087
:1017500080B543F60040C4F20200016841F4007114
:101760000160016841F480610160016841F48071A9
:101770000160032000F092F80F2000F005F800F05F
:1017800055F8002080BD0000B0B586B0002543F6B6
:1017900044010195C4F202010A68044642F00102C4
:1017A0000A60096801A801F00101019101996946E7
:1017B00000F066F900F09CF94DF683614000C4F238
:1017C0001B31A0FB01014FF0FF3000EB914140F2D3
:1017D000CC500022C2F20000C4F2010240F2E73312
:1017E000C0E90021C0E902530561856100F06CFB8E
:1017F0000546C0B940F2CC50C2F2000000F094FBA4
:10180000054680B9192000F035F80F2C0AD81920A8
:101810002146002200F032F840F25000C2F20000EF
:10182000046000E00125284606B0B0BD80B582B056
:10183000002043F640010190C4F202014A6842F4DC
:1018400080424A604A6802F480420192019A009004
:101850000868002240F08050086008680F2100F0FE
:101860008050009000986FF0010000F007F802B07F
:1018700080BD000080B504F0F5F880BD70B5144659
:101880000D46064604F0FEF82946224601F0E8FA25
:101890000146304604F0FEF870BD000080B504F04B
:1018A0000BF980BD70B582B00020019043F6400076
:1018B000C4F202000168402641F0805101600068D6
:1018C000C4F20E2600F080500190019847F2040502
:1018D0000120C4F200053060FFF726FF044600BF78
:1018E0002868C00306D4FFF71FFF001BB0F57A7FFE
:1018F000F6D90EE001207060FFF716FF044600BF26
:101900002868800308D4FFF70FFF001BB0F57A7F2B
:10191000F6D9032002B070BD002002B070BD0000F7
:101920002DE9F041002800F08B8043F60808C4F24E
:1019300002080446D8F8F8030D4600F00F0088426C
:1019400007D288F8F853D8F8F80300F00F00A8423F
:1019500076D12068810717D5410705D5D8F8001042
:1019600041F4E051C8F80010010705D5D8F800107F
:1019700041F46041C8F80010D8F80010A26821F0C6
:10198000F0011143C8F80010C0073FD1D8F8F803A0
:1019900000F00F00A84207D988F8F853D8F8F803E8
:1019A00000F00F00A8424BD12068410707D5D8F8B6
:1019B0000010E26821F4E0511143C8F8001000075C
:1019C00008D5D8F80000216920F4604040EAC10041
:1019D000C8F8000000F09EF8D8F8001047F2E8625E
:1019E000C1F30311C0F60002515C40F2480220FA34
:1019F00001F140F25000C2F200000068C2F20002A1
:101A00001160FFF7C1FE0020BDE8F0816068811E13
:101A1000022907D258F8081C89015CBF0120BDE8E3
:101A2000F08110E0012807D158F8081C89035CBF39
:101A30000120BDE8F08106E058F8081C890702D4AF
:101A40000120BDE8F081D8F8001021F0030108431F
:101A5000C8F80000FFF768FE064641F2883700BF6D
:101A6000D8F80000616800F00C00B0EB810F8DD059
:101A7000FFF75AFE801BB842F2D90320BDE8F0817F
:101A80000F22026043F60802C4F20202136803F058
:101A900003034360136803F0F0038360136803F4E7
:101AA000E053C360D2F800C04FF4E05303EADC0314
:101AB0000361D2F8F80300F00F00086070470000DF
:101AC00040F24800C2F200000068704780B5FFF79E
:101AD000F7FF43F60801C4F20201096847F2F86211
:101AE000C1F38221C0F60002515CC84080BD0000F5
:101AF00080B5FFF7E5FF43F60801C4F2020109686B
:101B000047F2F862C1F34231C0F60002515CC840AE
:101B100080BD000010B543F60404C4F202046068FE
:101B200000F00C0008280AD0042819BF42F2004037
:101B3000C0F2F40041F60030C0F2B70010BD2068DA
:101B400021682368490241F60031C0F2B70100F074
:101B50003F02C3F388105CBF42F20041C0F2F401BF
:101B6000A1FB00010023FEF799FB21680222C1F3CB
:101B7000014102EB4101B0FBF1F010BD2DE9F04154
:101B800082B0002800F09F800446007843F60006EB
:101B9000C007C4F2020641D0B06800F00C0004286F
:101BA00005D13068800339D56068B8BB8BE0B06878
:101BB00000F00C00082802D170684002F1D465687A
:101BC000B5F5803F06D03068B5F5A02F06D140F4BA
:101BD00080203060306840F4803005E020F48030B0
:101BE0003060306820F480203060FFF79DFD002DCC
:101BF000054610D03068800310D4FFF795FD401BD8
:101C00006428F7D922E100BFFFF78EFD401B64284E
:101C10004FF0030054D830688003F5D42078800753
:101C20001AD5B06810F00C0F09D0B06800F00C00A5
:101C3000082840F08C807068400200F1888030688D
:101C4000800702D5E06801283DD13068216920F085
:101C5000F80040EAC10030602078000737D42078CF
:101C600040074AD4A56955B3B06800F00C000828B5
:101C700040F0A080012D26D07068E16900F4800258
:101C80008A4220D1216A00F03F028A421BD147F6E6
:101C9000C071626A0140B1EB821F14D1A16A4FF694
:101CA000FF73C903994300F44032A1F580318A42A1
:101CB00009D1E16A00F07060B0EB016F03D1002040
:101CC00002B0BDE8F081012002B0BDE8F08160699A
:101CD000002840F20000C4F247205AD00121C0F889
:101CE000801EFFF721FD0546706F8007B7D4FFF710
:101CF0001BFD401B0228F7D9A8E0306C4FF000080C
:101D0000C0000CD4CDF80480306C4FF0010840F0D6
:101D100080503064306C00F080500190019847F2A0
:101D20000007C4F200073868C00525D4386840F4BD
:101D300080703860FFF7F8FC054600BF3868C005C2
:101D40001AD4FFF7F1FC401B0228F7D97EE0E068C7
:101D5000002851D00020C4F2472001210160FFF784
:101D6000E3FC0546306880073FF56FAFFFF7DCFC0A
:101D7000401B0228F6D969E0A568012D05D0306F17
:101D8000052D4DD140F004003067306F40F0010068
:101D90004CE00021C0F8801EFFF7C6FC054600BFDE
:101DA000706F80077FF55BAFFFF7BEFC401B02281A
:101DB000F6D94BE00027C4F2472700203866FFF72A
:101DC000B3FC022D05460BD13068800156D5FFF7D4
:101DD000ABFC401B02284FF00300F5D970E700BFB1
:101DE000306880017FF56BAFFFF79EFC401B022837
:101DF0004FF00300F4D963E70020C4F2472000212C
:101E00000160FFF791FC0546306880077FF524AF3D
:101E1000FFF78AFC401B02284FF00300F4D94FE77C
:101E200020F001003067306F20F004003067FFF7CA
:101E30007BFC002D054641F2883713D0306F8007B8
:101E400013D4FFF771FC401BB842F7D9032002B04E
:101E5000BDE8F081FFF768FC401BB8424FF003007B
:101E60003FF62EAF306F8007F4D4B8F1000F3FF487
:101E7000F9AE306C20F080503064F3E604F11C05BC
:101E80002FCD084340EA8210D9034FF6FF729143E9
:101E9000A1F5803140EA0560084370600120386692
:101EA000FFF742FC044600BF306880013FF507AFF2
:101EB000FFF73AFC001B02284FF00300F4D9FFE6BD
:101EC0007047000070470000002804BF01207047E1
:101ED00010B5044690F83D0028B9002084F83C0075
:101EE000204600F01FF8022084F83D002068211DE4
:101EF00001F0A4F8012084F8460084F83E0084F83C
:101F00003F0084F8400084F8410084F8420084F8DF
:101F1000430084F8440084F8450084F83D00002024
:101F200010BD00007047000090F83D1001291CBF53
:101F300001207047022180F83D10006841F2FF72D5
:101F4000C168C4F20002904241F00101C1600DDCA1
:101F500040F2FF71C4F20001884215DCB0F1804FFD
:101F600029D040F20041C4F2000122E040F2FF31EA
:101F7000C4F20101884212DC41F60001C4F2000102
:101F8000884218D0002112E040F60001C4F200019E
:101F9000884210D040F60041C4F2000109E044F24A
:101FA0000001C4F20101884205D040F20041C4F2B0
:101FB0000101884206D1816801F00701062904BFAA
:101FC00000207047016841F0010101600020704766
:101FD00070470000B0B504460068C168026902EAB3
:101FE0000105A9071DD4680731D4280747D4E8069E
:101FF0005CD4E80773D128067BD4680606D5206830
:102000006FF040010161204600F050F9A80658BF6A
:10201000B0BD20686FF0200101612046FFF752FF3C
:10202000B0BD6FF002010161012121778069800755
:1020300003D02046FFF7CCFF05E0204600F092F8E1
:10204000204600F027F9002020776807CDD52068CA
:102050006FF00401016102212177806910F4407F53
:1020600003D02046FFF7B4FF05E0204600F07AF8E1
:10207000204600F00FF9002020772807B7D5206808
:102080006FF00801016104212177C069800703D046
:102090002046FFF79DFF05E0204600F063F820464C
:1020A00000F0F8F800202077E806A2D520686FF04D
:1020B0001001016108212177C06910F4407F03D02D
:1020C0002046FFF785FF05E0204600F04BF820464C
:1020D00000F0E0F800202077E8073FF48CAF20689C
:1020E0006FF001010161204600F0D6F828067FF567
:1020F00084AF20686FF0800101612046FFF7E0FEA9
:1021000068067FF583AF7AE780B586B00022059236
:10211000CDE9032241F600010068C4F200018842C3
:102120000292019201D006B080BD43F630000092C9
:10213000C4F20200036843F080030360006800F00B
:10214000800000900098402001900220CDE902021A
:102150000920059001F5013001A90492FFF716FA54
:1021600006B080BD70470000B0B5044690F83C0052
:10217000012804BF0220B0BD0D464FEAB201012084
:10218000032984F83C0037D8DFE801F0020A122264
:102190002068294600F0E8FF206850F8181F0EE07C
:1021A0002068294601F012F8206850F8181F16E040
:1021B0002068294601F040F8206850F81C1F41F0C3
:1021C00008010160016821F00401016029690FE044
:1021D0002068294601F066F8206850F81C1F41F479
:1021E00000610160016821F48061016029690902D0
:1021F0000268114301600020002184F83C10B0BD4A
:10220000002804BF0120704710B5044690F83D0037
:1022100028B9002084F83C00204600F01FF8022076
:1022200084F83D002068211D00F008FF012084F89B
:10223000460084F83E0084F83F0084F8400084F8AB
:10224000410084F8420084F8430084F8440084F894
:10225000450084F83D00002010BD000081B00068FA
:1022600041F60001C4F20001884201D001B070477C
:102270000020009043F64000C4F20200016841F0E3
:1022800040010160006800F040000090009801B03B
:10229000704700007047000080B500680021C4F25C
:1022A0000101884208BFFFF745FA80BD7047000072
:1022B00070B582B0044690F84200202822D100294F
:1022C0004FF0010518BF002A1DD001250026204629
:1022D0002563666301F0C8F9216B012913D10196CA
:1022E00021680A680192496801910199216851E8C1
:1022F000031F226841F0100142E80313002BF5D1BF
:10230000054600E00225284602B070BDB0B582B097
:102310000446006841F20001C4F20101884201D084
:1023200002B0B0BD47F26860C0F60000D0E900011D
:10233000CDE9000102F0E0FF01688A6800219047C2
:1023400005460068816B28468847A042E8D1286886
:102350006C46826A28462146904728682146026BCF
:102360002846904702B0B0BD7047000070B582B0FB
:10237000036804461868D9685D6900F02F02202AB6
:1023800001F0200205D122B1204601F09BF802B0F5
:1023900070BD5FEA007C08D005F0010E11F4907F5B
:1023A0008EF001054FD1002D4DD0226B0840C106A3
:1023B0003FD5012A3DD1002001901868019058684E
:1023C000019001985869400600F19E80A08DE18D32
:1023D000E28D002A1CBF401A5FEA004102D102B020
:1023E00070BD00BF216851E8031F226821F490717D
:1023F00042E80313002BF5D1216851E8051F22683C
:1024000021F0010142E80513002BF5D1202184F8C9
:1024100042100021216300BF216851E8031F226898
:1024200021F0100142E80313002BF5D10221616372
:10243000AEE0010600F1AE804006D0D5204601F0A6
:1024400027F802B070BDC30718BF11F4807303D022
:10245000636C43F00103636400F00406012383EA24
:1024600096062E4303D1666C46F00206666400F0C1
:10247000020683EA56032B4303D1636C43F0040343
:10248000636452EA0E0218BF0122BCF1000F04D5AA
:102490001AB1626C42F008026264626C002A9ED03B
:1024A0000840800602D5204601F00CF820684069FB
:1024B000616C00F0400001F00801401800F08480D9
:1024C000204600F0BDFF20684069400677D500BF78
:1024D000206850E8050F216820F0400041E805021F
:1024E000002AF5D1E06B002869D043F2F521C0F64F
:1024F00000010165FEF7D8FE00283FF470AFE06BE5
:10250000016D884702B070BDE06B016849688AB20E
:10251000002A44D0A38D9A4241D2E185C069B0F52A
:10252000807F30D0206850E8030F216820F480704D
:1025300041E80302002AF5D1206850E8050F216820
:1025400020F0010041E80502002AF5D1206850E89A
:10255000050F216820F0400041E80502002AF5D16E
:10256000202084F842000020206300BF206850E84B
:10257000030F216820F0100041E80302002AF5D182
:10258000E06BFEF751FE02206063A08DE18D401AE2
:1025900081B20FE0204601F0D7F802B070BDA18DE6
:1025A00091427FF41CAFC069B0F5807F7FF417AF14
:1025B000022060632046FFF7A9FE02B070BD2046EE
:1025C000FFF7D2FE02B070BD2046FFF7CDFE00201F
:1025D000606402B070BD0000002804BF0120704795
:1025E00010B5044690F8410028B9002084F8400056
:1025F000204600F021F8242084F841002068C168BA
:1026000021F40051C160204600F0C0FF206801693C
:1026100021F490410161416921F02A014161C168C1
:1026200041F40051C16000202021606484F8411011
:1026300084F84210606310BD2DE9F04387B0044672
:102640000020CDE90500CDE90300216844F6000231
:10265000C4F200029142029060D041F20040C4F204
:102660000100814200F0888041F20000C4F20100C4
:10267000814240F0EF80002643F630000196C4F21C
:102680000200416941F010014161416901F010010E
:10269000019101990196016841F002010160006811
:1026A00002A900F0020001900198C02002900220CF
:1026B000CDE90306032005900720069040F2004074
:1026C000C4F20200FEF762FF46F22840C4F20200A4
:1026D00040F2AC451830C2F200054FF000614FF4F3
:1026E000806285E843002846C5E90362C5E90566BE
:1026F000C5E907666E62FEF7AFFE002818BFFEF759
:1027000057F9252005210022E563AC63FFF7B6F8F1
:102710002520FFF7AFF807B0BDE8F08343F630019E
:102720000190C4F202010A6942F480220A610A6936
:1027300002F480220192019A01900A6842F0040298
:102740000A60096801F00401019101994FF44061A8
:1027500002910221CDE90310032005900720069085
:1027600040F20040C4F2020000F5806002A9FEF7CA
:102770000DFF07B0BDE8F083002643F63000019658
:10278000C4F20200416946F2284841F0200141614B
:102790004169C4F2020801F02001019101990196FA
:1027A000016841F040010160006802A900F04000AA
:1027B000019001984FF4844002900220CDE9030675
:1027C000032005900820069040F20040C4F2020069
:1027D00000F5A050FEF7DAFE40F20C55C2F20005FB
:1027E0004FF020674FF480692846C5E90087C5E9A6
:1027F0000266C5E90496C5E90666C5E90866FEF7FE
:102800002BFE002818BFFEF7D3F8E563AC6340F257
:102810006C5508F17800C2F200054021C5E90007B7
:1028200005F1080080E842022846C5E90566C5E9C9
:1028300007666E62FEF710FE002818BFFEF7B8F8B4
:10284000472005210022A563AC63FFF717F8472056
:10285000FFF710F807B0BDE8F08300002DE9F04164
:10286000044690F8420020281CBF0220BDE8F081F9
:102870000E4600294FF0010049D01746002A08BF34
:10288000BDE8F0814FF0000822201D46C4F84480C6
:1028900084F84200C4F83080FEF746FFA785E7853C
:1028A000A1680746B1F5805F10D12069002814BFE8
:1028B0003046B046064609E02068002640686FF3BF
:1028C0005F2028F8020BE08D0138E085E08DD0B163
:1028D000204620213A462B4600F060FFC8B9002E62
:1028E000EAD0A068B0F5805F08D008B9206928B1A7
:1028F0002068406800F07F0002E000BF2068406868
:1029000006F8010BDFE7202084F842000020BDE834
:10291000F081202084F842000320BDE8F08100000F
:1029200080B590F84230202B1CBF022080BD0029CA
:102930004FF0010318BF002A01D1184680BD0023C3
:10294000036300F091FE0346184680BD10B590F871
:102950004230202B1CBF022010BD00294FF0010483
:1029600018BF002A01D1204610BD0024046300F0E6
:10297000D1FE204610BD00007047000070470000E7
:102980002DE9F041044690F8410020281CBF0220A8
:10299000BDE8F0810E4600294FF0010042D01746F5
:1029A000002A08BFBDE8F0814FF0000821201D4635
:1029B000C4F8448084F84100FEF7B6FEA784E7849B
:1029C000A1680746B1F5805F0DD12069002814BFCA
:1029D0003046B046064606E016F8010B216848600E
:1029E000E08C0138E084E08C80B1204680213A46BA
:1029F0002B4600F0D3FEB8B9002EEDD138F8020B0B
:102A000021686FF35F2048600026E9E720464021F7
:102A10003A462B4600F0C2FE202184F841100028DF
:102A200018BF0320BDE8F081202084F84100032076
:102A3000BDE8F081B0B5044690F8410020281CBFE5
:102A40000220B0BD4FF00100C9B3002A134608BFF1
:102A5000B0BD4FF0000C21202162A384E384C4F8B0
:102A600044C084F84100A06B43F2F53E43F2354583
:102A70002268C0F6000EC0F60005C0E90FE543F27B
:102A80000535C0F600050432C0E9135CFEF74CFDC5
:102A900030B110206064202084F841000120B0BDD6
:102AA00020686FF040010160206850E8050F216840
:102AB00040F0800041E80502002AF5D10020B0BDB9
:102AC000034690F8410020281CBF022070470029CF
:102AD0004FF0010018BF002A00D170471962002092
:102AE00021219A84DA84586483F841101968CA68ED
:102AF00042F08002CA6070477047000070470000D3
:102B0000FEE7000080B540F25C4046F20041C2F2B0
:102B10000000C4F200010922002380E80E0000F149
:102B20000C014FF4803C4FF4801E81E80850836113
:102B30008383FEF7E7F9002818BFFDF739FF80BD52
:102B400080B540F2844046F60001C2F20000C4F2B3
:102B500000010922002380E80E0000F10C014FF46F
:102B6000803C4FF4801E81E8085083618383FEF728
:102B7000C9F9002818BFFDF71BFF80BD80B582B0E2
:102B80000020019043F63000C4F2020001680022E8
:102B900041F4800101600068052100F4800001908B
:102BA00001983920FEF76AFE3920FEF763FE3A20CD
:102BB00005210022FEF762FE3A20FEF75BFE45206B
:102BC00005210022FEF75AFE4520FEF753FE02B013
:102BD00080BD000010B59CB047F2C460C0F6000094
:102BE00090E80E50D0E90540159116921793CDF854
:102BF00060C0CDF864E0CDE91A4015A8002103F0CB
:102C000075F840F24431C2F20001086047F2A86052
:102C1000C0F6000090E81E5080690E9114900EA836
:102C200000210F9210931194CDF848C0CDF84CE0DC
:102C300003F05CF840F25821C2F20001086047F24C
:102C40008C60C0F6000090E81E50806907910D90DE
:102C500007A80021089209930A94CDF82CC0CDF85A
:102C600030E003F043F840F2BC01C2F2000108601A
:102C700047F27060C0F6000090E81E5080698DE851
:102C80001E5006906846002103F030F840F2B8016B
:102C9000C2F2000108601CB010BD000081B000212C
:102CA00043F630000091C4F20200026842F0400294
:102CB0000260026802F040020092009A00910268ED
:102CC00042F001020260026802F001020092009AE2
:102CD0000091026842F002020260026802F0020201
:102CE0000092009A0091026842F0080202600268B5
:102CF00002F008020092009A0091026842F0040279
:102D00000260026802F004020092009A00910168D9
:102D100041F080010160006800F0800000900098A0
:102D200001B0704710B588B040F2146041F6000160
:102D30000024C2F20000C4F20001F9230794CDE997
:102D40000544CDE90344CDE90144B32280E81600EF
:102D5000C0E903348461FFF753FA002818BFFDF778
:102D600027FE6020CDE9010440F21460C2F20000A9
:102D700001A9002203940594FFF7F6F9002818BF73
:102D8000FDF716FE40F21460C2F20000FFF7BCF936
:102D900008B010BD10B540F25C6041F2000C48F282
:102DA000A062C2F20000C4F2010CC0F201024FF4B2
:102DB000805300214FF4806E0C24C0E900C2C0E9AA
:102DC0000231C0E904E4C0E90611FFF705FC002860
:102DD00018BFFDF7EDFD10BD80B540F2A46044F6CC
:102DE0000001C2F20000C4F2000100234FF00C0CFD
:102DF0004FF4E13280E80E00C0E90333C0E905C3B7
:102E0000C361FFF7E9FB002818BFFDF7D1FD80BDC6
:102E100080B540F2EC6041F20041C2F20000C4F221
:102E2000010100234FF00C0C4FF4E13280E80E005A
:102E3000C0E90333C0E905C3C361FFF7CDFB002838
:102E400018BFFDF7B5FD80BDFEE7000000F084FD72
:102E500000F0ECFE012002F03BFFF9E7FEE7000086
:102E600000F0070080F00703042B28BF04234FF075
:102E7000FF3C03380CFA03F338BF0020994381402C
:102E80000CFA00F022EA000008437047000000003E
:102E9000EFF30980BFF36F8F154B1A681EF0100F08
:102EA00008BF20ED108A20E9F04F10602DE90900DD
:102EB0004FF0500080F31188BFF34F8FBFF36F8F37
:102EC00003F0A0FB4FF0000080F31188BDE809007B
:102ED00019680868B0E8F04F1EF0100F08BFB0EC9A
:102EE000108A80F30988BFF36F8F704700BF00BF5F
:102EF000B4070020000000000000000000000000F7
:102F0000074B19680868B0E8F04F80F30988BFF3F1
:102F10006F8F4FF0000080F31188704700BF00BF33
:102F2000B407002000F0D8FC012002F0D1FEFBE73E
:102F3000012002F0CDFEFBE780B54FF0500080F39A
:102F40001188BFF36F8FBFF34F8F03F09BFC30B13D
:102F50004EF60450CEF200004FF080510160002088
:102F600080F3118880BD000010B592B006AC2046F9
:102F70003021FDF76FFA002043F640010590CDE9BE
:102F80000300CDE901000090C4F202010A6842F09A
:102F900080520A60096801F0805100910099009008
:102FA00047F20000C4F20000016841F440410160B2
:102FB00000684FF4800100F4404000900098012028
:102FC00006904FF480300D910621079002200E915B
:102FD000B4210C90CDE90F10042011902046FEF78B
:102FE000CDFDB0B9FEF75EFC98B90F20019002202C
:102FF0000290002003904FF4A05004904FF48050B2
:10300000059001A80521FEF78BFC002804BF12B033
:1030100010BDFDF7CDFC00004EF68850CEF200004A
:10302000016841F4700101607047000080B540F212
:10303000CC50C2F20000FEF7CDFF80BD10B540F6C7
:10304000FF3E0368C4F2000E40F2004C7045C4F22B
:10305000010C0FDCB0F1804F19D040F20042C4F2F5
:103060000002904213D040F60002C4F200029042E7
:103070000DD010E040F60042C4F20002904206D0AB
:10308000604504D00022C4F20102904203D14A6894
:1030900023F07003134341F6FF72C4F20002904222
:1030A0000DDC70451FDCB0F1804F41D040F2004292
:1030B000C4F2000290423BD040F6000221E043F609
:1030C000FF72C4F20102904220DC42F20002C4F21C
:1030D000000290422CD00022C4F20102904227D07C
:1030E000604525D028E040F60042C4F2000290423C
:1030F0001ED041F60002C4F20002904218D041F600
:103100000042C4F20002904212D015E044F20002E4
:10311000C4F2010290420BD044F60002C4F2010254
:10312000904205D044F20042C4F20102904203D121
:10313000CA6823F44073134323F08002D1F800E0FF
:103140004B698C681A43C46240F48063C0F828E07D
:10315000634504BF09690163016841F0040101602E
:1031600001214161026010BDB0B5026A036A22F01C
:10317000020223F001030362D0F804E083690C68C3
:1031800023F073038D6843EA040C40F2004440F4DA
:103190008063C4F20104A34242EA050205D1CD686E
:1031A00022F00C0225F004052A43A34206D1D1E9FE
:1031B00005542EF440732B4343EA040EC0F804E098
:1031C000C0F818C0496841630262B0BD70B5026AB8
:1031D000036A22F0200223F010030362D0F804E017
:1031E00083690C6823F4E6438D6843EA042C40F2BB
:1031F000004440F48063C4F20104A34242EA051291
:1032000007D1CD686FF0400622F0C00206EA05152E
:103210002A43A34207D1D1E905652EF4406343EA6E
:10322000860343EA850EC0F804E0C0F818C0496878
:103230008163026270BD000070B5026A036A22F405
:10324000007223F480730362D0F804E0C3690C6851
:1032500023F073038D6843EA040C40F2004440F409
:103260008063C4F20104A34242EA052207D1CD687B
:1032700040F2FF462D0222F44062B5432A43A342A6
:1032800007D1D1E905652EF4405343EA061343EA1A
:10329000051EC0F804E0C0F81CC04968C1630262A2
:1032A00070BD000010B5D0F820C0026A40F20044A2
:1032B00022F4805202624268C369C4F2010423F41A
:1032C000E64E40F48063A3420B688C684EEA032EFE
:1032D0002CF4005343EA043C04D14B6922F48042AD
:1032E00042EA83124260C0F81CE049680164C0F8F9
:1032F00020C010BD80B5806B0021C185FFF734F878
:1033000080BD000010B5846B2068406994F84110BE
:10331000212907D110F0800004D00020E08420464D
:1033200000F0C2F82068406994F84210222907D1C1
:1033300010F0400004D00020E085204600F080F826
:10334000606C40F0100060642046FFF70DF810BD7F
:1033500080B50168806B0968C9052FD40021C1853B
:10336000016851E8031F026821F4807142E80313E9
:10337000002BF5D1016851E8051F026821F0010119
:1033800042E80513002BF5D1016851E8051F0268DA
:1033900021F0400142E80513002BF5D1202180F8EF
:1033A0004210016B012909D1016851E8031F02682D
:1033B00021F0100142E80313002BF5D100214163F5
:1033C000016B012903D1818DFEF7A0FF80BDFFF7BE
:1033D000D3FA80BD80B5806B01214163016B012967
:1033E00004D1818D4908FEF791FF80BDFFF7C6FA31
:1033F00080BD000080B50168806B0968C90516D4DE
:103400000021C184016851E8051F026821F0800194
:1034100042E80513002BF5D1016851E8031F02684B
:1034200041F0400142E80313002BF5D180BDFFF7C6
:1034300063FB80BD80B5806BFFF760FB80BD000043
:10344000016851E8031F026821F4907142E80313F8
:10345000002BF5D1016851E8051F026821F0010138
:1034600042E80513002BF5D1016B01290AD100BFF9
:10347000016851E8031F026821F0100142E80313BC
:10348000002BF5D1202180F8421000210163704704
:1034900080B50168CA6822F04002CA60202180F825
:1034A0004110FFF729FB80BD016851E8031F026846
:1034B00021F0C00142E80313002BF5D1202180F850
:1034C0004110704780B582B090F8421022291ED179
:1034D0008268B2F5805F02D1016900294AD0816A11
:1034E000B2F5805F07D00AB9026922B1026852685A
:1034F00002F07F0201E0026852680A700121826ACC
:1035000011448162C18D01390A04C18501D002B024
:1035100080BD0168CA6822F02002CA60CA6822F42D
:103520008072CA604A6922F001024A61202180F853
:10353000421000214163026B012A23D1016300BFC5
:10354000016851E8031F026821F0100142E80313EB
:10355000002BF5D101680A68D20606D50022019237
:103560000A680192496801910199818DFEF7CEFEAA
:1035700002B080BD0168826A49686FF35F211180E3
:103580000221BCE7FFF7F8F902B080BD10B5044690
:103590000068D4E902C22369016921F44051114352
:1035A0000161626943EA0C01E3691143C26819438E
:1035B00049F20C639A431143C1604169A26921F445
:1035C000407141F20043114340F48062C4F20103B0
:1035D0009A42416102D1FEF78BFA01E0FEF776FADA
:1035E000E16963681922B1F5004FA0FB02011CD10B
:1035F0005A00DB0FFCF752FE48F21F51C5F2EB11E7
:10360000A0FB01235A096FF0630302FB030032237E
:1036100003EBC000A0FB01014FF4F87000EA1110A9
:1036200000EB0210C1F342111AE09A009B0FFCF765
:1036300035FE48F21F51C5F2EB11A0FB01235A09D8
:103640006FF0630302FB0300322303EB0010A0FBC7
:103650000101F02000EA511000EB0210C1F3431108
:1036600022680843906010BDF0B581B01346002772
:103670000446816283854764222084F84200E06B1F
:1036800043F2513543F2D5360A462168C0F60005AB
:10369000C0F60006C0E90F5643F20536C0F6000634
:1036A0000431C0E91367FDF73FFF38B110206064B3
:1036B000202084F84200012001B0F0BD009720686E
:1036C00001680091406800900098206950B100BFE7
:1036D000206850E8030F216840F4807041E803023D
:1036E000002AF5D1206850E8050F216840F001005C
:1036F00041E80502002AF5D1206850E8050F21684D
:1037000040F0400041E80502002AF5D1002001B058
:10371000F0BD0000816200218285C28541642221C2
:1037200080F84210016921B10168CA6842F48072D0
:10373000CA600168486940F001004861C86840F00B
:1037400020020020CA60704790F84110212923D13F
:103750008168B1F5805F01D1016931B1016A026808
:103760004B1C03620978516007E0016A036831F875
:10377000022B6FF35F225A600162C18C01390A0487
:10378000C18418BF70470068C16821F08001C16022
:10379000C16841F04001C160704700002DE9F0416F
:1037A00082B00446006800680840884203D10020C7
:1037B00002B0BDE8F0811D460E4690465F1C04E055
:1037C000206800683040B04228D0002FF8D0FDF7C4
:1037D000ABFF01464FF003000DB3A1EB0801A94276
:1037E0001DD82068C1684907EAD5402EE8D0802E50
:1037F000E6D001680907E3D500250195016801912C
:103800004068019001982046FFF71AFE0820606486
:1038100084F84050012002B0BDE8F081002002B0E1
:10382000BDE8F08180B540F25C60C2F20000FEF7B6
:103830009DFD80BD80B540F2EC60C2F20000FEF755
:1038400095FD80BDFEE7000080B502F08BF902F027
:10385000A5F902F0CFF902F0E7F902F0FFF980BD17
:1038600080B502F087F902F0B1F980BDB0B540F241
:10387000B010C2F2000001F099F960B140F2B0144A
:10388000C2F2000420460121002200F01BFD204668
:10389000002101F0B3F940F2B014C2F20004204656
:1038A00001210022002500F00DFD2046002101F03D
:1038B000A5F944F26070C2F2000000F069FA44F227
:1038C000A070C2F2000000F063FA40F22840C2F299
:1038D0000000C0E90055B0BDB0B588B001F00CFDE6
:1038E00001688A680021904747F2E061C0F6000154
:1038F000D1E900120446CDE90612006806A9826AE1
:10390000204690476D46284602F052F82068294626
:10391000C26A20469047284602F052F808B0B0BD6F
:1039200080B540F2C800C2F200000121022201F07D
:1039300041F978B140F20000C2F2000000F096FBBD
:1039400040B140F2B010C2F200000121022201F0A9
:1039500031F980BD002080BDB0B586B040F25C205A
:10396000C2F20000007840F27024C007C2F20004E6
:10397000BFF35F8F17D040F26020C2F200000078E2
:10398000BFF35F8FC00724D06D462468284601F03E
:10399000BFFF20682946C26920469047284601F0AB
:1039A000BFFF06B0B0BD40F25C20C2F2000002F0E2
:1039B00093F80028DFD001F06DF901688A680021D2
:1039C0009047206040F25C20C2F2000002F0B2F8A2
:1039D000D1E740F26020C2F2000002F07DF800283A
:1039E000D2D001F057F901688A680121904740F26E
:1039F0007421C2F20001086040F26020C2F20000AF
:103A000002F098F8C0E70000F0B581B02DED028B10
:103A100040F2B010C2F2000001F0C8F860B940F204
:103A2000B014C2F2000420460121002200F01CFC68
:103A30002046012101F0E2F840F23475C2F200059F
:103A4000284600F067FA40F2C80440F23047C2F25C
:103A50000004C2F200072046022187ED080A01F0A7
:103A6000D1F840F2B016C2F200063046012187EDCF
:103A7000090A01F08DF897ED028A3046012101F024
:103A800087F89FED301A2846C0EE010AB0EE480ACA
:103A900000F088F9284600F03DFA30460121B0EEEA
:103AA000408A01F0AFF840F27475C2F20005F0EE02
:103AB000400A2846B0EE480A00F074F92046012179
:103AC00001F066F8F0EE400A9FED1F0A9FED1F1A05
:103AD00030EE800AF4EE410A44F26076F1EE10FA1C
:103AE000C8BFF0EE400A97ED010AC2F20006304668
:103AF000C7ED060A00F056F9304600F00BFA2046F2
:103B00000221B0EE408A01F07DF844F2A074C2F2C6
:103B10000004F0EE400A2046B0EE480A00F042F9F8
:103B2000204600F0F7F940F22844C2F2000428468B
:103B300084ED000A00F0EEF984ED010ABDEC028B81
:103B400001B0F0BD333373400000B4C30000344310
:103B500080B540F25C30C2F2000000F0DDF880BDBC
:103B6000B0B540F20004C2F20004204601F0D0FCDF
:103B700040F23045C2F2000595ED011A204630EEC4
:103B8000010A85ED010A01F0C7FC95ED012A9FEDC0
:103B9000161A95ED023AB4EE412A33EE400AF1EEE0
:103BA00010FA85ED020A02DD85ED011A08E09FEDAD
:103BB0000F1AB4EE412AF1EE10FAB8BF85ED011AE2
:103BC0009FED0B1AB4EE410AF1EE10FA02DD85ED1D
:103BD000021AB0BDBBEE0D1AB4EE410AF1EE10FAB6
:103BE000B8BF85ED021AB0BD00003442000034C2F7
:103BF0000000044210B540F25C34C2F200041346E7
:103C00000A460146204600F03BF8FFF7A9FF204690
:103C100000F07EF8022805D0002818BF10BDFFF77D
:103C200025FE10BDFFF7F0FE10BD0000B0B540F25C
:103C30002845C2F2000595ED000A40F2C804BDEE29
:103C4000C00AC2F2000410EE101A2046022200F050
:103C50001BFE204600F020FE9FED080A95ED012A8C
:103C600040F2B010C2F200000121F0EE400AB0EEC6
:103C7000401AF0EE401A00F09BFBB0BD00000000BF
:103C800070B590F8A0601D46044600F067F894F8FF
:103C9000A100022803D194F8A21002290ED06DB120
:103CA000032803D194F8A210022905D002281FD1BD
:103CB00094F8A21003291BD1022000E0002084F810
:103CC000A00094F8A000864208BF70BD04EB8601F6
:103CD00004EB0613D1F8A4209E6804EB00103244D4
:103CE0009A600022C1F8A42041680131416070BD92
:103CF000012805D194F8A210012901D10120DEE7A5
:103D00000328DED194F8A2000328DAD10320D6E7F5
:103D100090F8A0007047000080B547F2007C4FF09B
:103D2000000EC0F6000C00235CF8032000EB8301BA
:103D300040F82320C1E901EEC1F80CE0C1180433BA
:103D4000102BC1F8A4E0EFD140F20021C0F2020133
:103D5000C0F8A0100121416080BD000080F8A110D2
:103D600080F8A22080F8A3307047000010B5044608
:103D700040F20220A4F8A10004F1A3002921FCF7DD
:103D800047FB204610BD000080ED0C0A7047000084
:103D900000214163C0E90311C0E90511C0E9071121
:103DA0007047000010B52DED028B82B0B0EE608A36
:103DB000044600F0B3F82046B0EE480AFFF7E4FFEF
:103DC00094ED0B1A94ED0C3A94ED0F2A94ED000A41
:103DD00031EE431AB5EE402A21EE000AF1EE10FA58
:103DE00084ED0D1A84ED030A06D0B0EEC13AB4EEAC
:103DF000423AF1EE10FA23DA94ED0E3A94ED062AE7
:103E0000B5EE403A31EE022AF1EE10FA84ED062AC0
:103E100016DD04F11800B1EE434AB4EE423A014611
:103E20008DED014AF1EE10FAB8BF04F1380101AA94
:103E3000B4EE442AF1EE10FAA8BF0A4611680160F8
:103E400094ED013A94ED062A94ED075A94ED024A56
:103E500023EE023A31EE455A24EE054A30EE030ACB
:103E600084ED054A30EE040A94ED094A84ED043AE3
:103E700094ED0A3A2020B4EE404A84ED080AF1EEAF
:103E800010FAB8BF2420B4EE430AF1EE10FAB8BF1E
:103E90002820204490ED000AB5EE401AF1EE10FA09
:103EA00084ED080A04DDB4EE440AF1EE10FA09DAF2
:103EB000B5EE401AF1EE10FA26DAB4EE430AF1EE4E
:103EC00010FA21DC94ED0E3A32EE411AB5EE403A8A
:103ED000F1EE10FA84ED061A16DD04F11800B1EEC9
:103EE000432AB4EE413A01468DED002AF1EE10FA74
:103EF000B8BF04F138016A46B4EE421AF1EE10FA86
:103F0000A8BF0A4611680160606BE06102B0BDECB9
:103F1000028B10BD90ED080A7047000080ED0B0A7F
:103F200070470000B1EE613AC0ED091A80ED0A3A1F
:103F300080ED0E2AC0ED0F2A80EC030A70470000C6
:103F400010B50446FDF7F0FBA06010BD80B5D0E9C8
:103F5000031CD0E901E34A428B4238BFCA43991897
:103F60007145016005D2BCF1010F04BF0021016160
:103F700080BDBCF1000F18BF80BD0121016180BD73
:103F800010B50446FDF7D0FBE06010BD0022012310
:103F9000C0E90112C0E90323704700006421002238
:103FA0000123C0E90112C0E90323704780B540F244
:103FB0006420C2F200000078BFF35F8FC00704D016
:103FC00040F27820C2F2000080BD40F26420C2F2CC
:103FD000000001F081FD0028F2D040F27820C2F20A
:103FE000000000F03DF840F26420C2F2000001F051
:103FF000A1FDE5E74A1E072A16D890F80CC0BCF1CF
:104000000B0F11D8BCF1000F09D00023DAB2825C8B
:104010008A4208BF70470133DAB26245F6D30CF129
:104020000102027300F80C1070470000017B0B299D
:104030000FD851B1002200BFD3B2C35CFF2B08BF21
:1040400070470132D3B28B42F6D34A1C0273FF226F
:1040500042547047002101730161017570470000EF
:1040600000210173016101757047000010B500F176
:1040700034042046FFF764FF2046FFF767FF204621
:1040800001F014FA012803D1FFF790FFFFF7CEFFEC
:10409000204601F00BFAB0FA80F0400910BD000094
:1040A00080B53430FFF76CFF80BD0000002908BFE9
:1040B00070472DE9F04F81B00D460446FFF7F0FF41
:1040C000294600220B2301F0F3F9014601F02CFAF6
:1040D00029460B220B238046208001F0E9F9014696
:1040E00001F022FA294616220B238146608001F056
:1040F000DFF9014601F018FA294621220B238246F6
:10410000A08001F0D5F9014601F00EFAE080297C8B
:104110006A7C074601F004FA29462C2202238346D2
:10412000208101F0C5F929462E220223A07201F058
:10413000BFF9E072AAF58060A081A7F58067A8F5B5
:104140008066A9F58069ABF5806800B2E7812682B8
:10415000A4F81290A4F8148000F038F838B284ED76
:10416000080A00F033F830B284ED090A00F02EF8A6
:104170000FFA89F084ED0A0A00F028F80FFA88F0A7
:1041800084ED0B0A00F022F884ED0C0AA979EA7993
:1041900001F0C6F9E082297A6A7A01F0C1F9208338
:1041A000A97AEA7A01F0BCF96083297B01F0AAF9C7
:1041B0002077697B01F0A6F96077A97BEA7B01F0A3
:1041C000AFF9E08301B0BDE8F04F704700EE100A90
:1041D0009FED0C1AB8EEC00A80EE011ABFEE000A7D
:1041E000B4EE401AF1EE10FAB8BFB0EE401AB7EED6
:1041F000000AB4EE401AF1EE10FAB8BFB0EE410A70
:10420000704700BF0000254480EC0A0A7047000098
:104210004FF0FF308840C04302EE100A30EE600AD3
:10422000B8EEC22A31EE601A20EE020A80EE010AD0
:10423000BDEEC00A10EE100A704700004FF0FF30CC
:1042400002EE101A904030EEC01AB8EEC22AC043F7
:1042500021EE021A02EE100AB8EEC22A81EE021A0C
:1042600031EE000A7047000080B586B0022A06D001
:10427000012A0AD07AB900EB8100806E0AE000EBD7
:104280008100806E00F5007004E000EB8100806E1C
:1042900000F58070029008208DF80C006FF04070DF
:1042A00001904FF0FF3000900020ADF8140000F0B6
:1042B000F1FC00F0ADFD01680A696946904706B05F
:1042C00080BD000080B586B0022A06D0012A0AD03F
:1042D0007AB900EB8100806E0AE000EB8100806E0D
:1042E00000F5007004E000EB8100806E00F5807046
:1042F000029008208DF80C006FF0007001904FF0D4
:10430000FF3000900020ADF8140000F0C3FC00F076
:104310007FFD01680A696946904706B080BD0000CC
:1043200010B50446B0F9660094F868208B68104414
:10433000834218BF10BD94F870000A7800F0F000B6
:1043400040EA121084F870000878B4F87430000164
:1043500040EA121084F87000B1F8010000BA000CB5
:10436000A4F87200C8780A79000140EA121003F438
:1043700070421044A4F8740008794A79B4F8763091
:1043800000F00F0042EA002003F470421044A4F849
:104390007600887984F87800C879002184F879005B
:1043A000204600F079F82046012100F039FC10BDCC
:1043B0002DE9F0472DED088B86B0B0EE41AAB0EEA6
:1043C00060BAD0ED200A90ED211A88461021B0EE97
:1043D000428AB0EE619A0446FFF71AFFD4ED220A32
:1043E00094ED231A81462046B0EE4B0A0C21FFF7CC
:1043F0000FFFD4ED260A94ED271A05462046B0EEAD
:104400004A0A0C21FFF704FFD4ED280A94ED291A7B
:1044100082462046B0EE490A0C21FFF7F9FED4EDA2
:10442000240A94ED251A06462046B0EE480A0C21CF
:10443000FFF7EEFE04EB88044FEA1A23070AA46E86
:104440004FEA19212A0943EA0513350947EA0617F5
:1044500008268DF80700002002948DF80C608DF876
:1044600000108DF801908DF802208DF803308DF842
:1044700004A08DF805508DF80670ADF8140000F01A
:1044800009FC00F0C5FC01680A696946904706B05E
:10449000BDEC088BBDE8F0872DE9F04F81B02DED24
:1044A000028B00EB01170D46B7F8721090ED200A51
:1044B000D0ED210A10220446FFF7C0FE10EE100ACC
:1044C00003F022F841EC100B05EBC50204EBC20629
:1044D00086ED040B9FED500B53EC102B02F02CFEDD
:1044E00041EC100B204686ED020BB7F8741094EDEA
:1044F000220AD4ED230A6FF31F310C22FFF79EFE30
:1045000010EE100A03F000F841EC100B204686ED87
:10451000060BB7F8761094ED240AD4ED250A6FF354
:104520001F310C22FFF78AFE10EE100A02F0ECFF9A
:1045300041EC100B97F8780086ED0C0B02F071FD42
:1045400041EC100B96ED028B86ED0E0B96ED100BE9
:1045500059EC187B58EC10AB384649465246434656
:1045600006F1400B02F0E6FE9FED2D0B044653ECE6
:10457000102B0D4603F008F8B0B99FED2F0B5246F3
:1045800051EC100B434602F0D5FE3A464B4602F082
:10459000E9FA96ED120B53EC102B02F0E3FA41EC22
:1045A000100B86ED120B2DE09FED1F0B204653ECF8
:1045B000102B294602F0EFFFC0B99FED1D0B3846C6
:1045C00053EC102B494602F0CDFA5246434602F016
:1045D000B1FE96ED120B02460B4651EC100B02F0A9
:1045E000C1FA41EC100B86ED120B0BE096ED120BAD
:1045F000204653EC102B294602F0B4FA41EC100B84
:1046000086ED120B8BED008BBDEC028B01B0BDE88B
:10461000F08F00BF00BF00BFAE19661ADCA54C408A
:1046200000000000008066C00000000000806640BE
:1046300000000000008076C000000000008076408E
:104640002DE9F04F81B00E46DDF83880DDE90CA988
:10465000DDE90A7B64211C46154600F0EFFA47F2BB
:104660001071C0F60001083101600F99A0F8666072
:10467000C0E9207BC0E922A9C0F894101099C0F8C5
:104680009080C0F898101199C0F89C10DDE91221B3
:10469000C0E92821297880F868102168C16601B036
:1046A000BDE8F08F2DE9F04F95B09FED233A9FEDD7
:1046B0001D0ADFED1D0A9FED1D1ADFED1D1ADFED4E
:1046C0001D3A83460BA8BBEE022AF3EE022AF1EE56
:1046D000044AB0EE434A984691468A46FFF794FD55
:1046E0000DF1340CDDE91340DDE90BE19CE8EC1041
:1046F000CDE9084002A8CDE900E1ECC0584651469A
:104700004A464346CDF81CC0FFF79AFF47F21C709B
:10471000C0F6000000F108015846CBF8001015B0B3
:10472000BDE8F08FC3F548C1C3F54841000034C26D
:10473000000034420000FA430000000000000000C6
:104740002DE9F0412DED088BB0EE40BAF0EE60BAE5
:1047500080EC0A0B9FED300BB0EE438AB0EE429A2C
:10476000B0EE41AA044651EC100B53EC142BF0EEC2
:10477000638AF0EE629AF0EE61AA02F0A7FA41ECC9
:10478000100B55EC1B6B84ED0A0B9FED250B32468D
:1047900051EC100B2B4602F099FA9FED230B41ECE4
:1047A0001B0B53EC102B02F091FA02460B4602F061
:1047B000D9F99FED1F0B53EC102B02F0BDFC41EC1F
:1047C000100B53EC1A2B3046294684ED0CBB84EDBC
:1047D0000E0B02F0B1FC58EC195B2A46434602F07E
:1047E00075FA56EC187B3A46334602F0A5FC41ECCC
:1047F000100B384631462A46434684ED100B02F032
:1048000065FA41EC100B204684ED120B84ED14BBCD
:10481000BDEC088BBDE8F081000000000080764010
:10482000000000000000F03F0000000000004E40CB
:10483000182D4454FB21094010B50446B0F9660018
:1048400094F870200B891044834218BF10BDD1E941
:104850000001C4E91A0100BAB4F86A10000CA4F807
:10486000680008BAB4F86C10000CA4F86A0008BA22
:10487000000CA4F86C002046002100F025F820462A
:10488000012100F0CDF910BD09BA00EB4200090C7E
:10489000A0F876107047000080B586B0D0E91D12F0
:1048A000C06F029108218DF80C10CDE90020002086
:1048B000ADF8140000F0EEF900F0AAFA01680A69F8
:1048C0006946904706B080BD2DE9F04F81B02DEDCF
:1048D000088B82B000EBC1078346B7F96800B7F9CF
:1048E0006A50B7F96CA00E4602F084FB9BED2E0BCC
:1048F00002460B469BED30AB9BED32BB9BED349BF0
:1049000051EC100B02F018FC9FED670B814641EC57
:10491000180B06EBC6000BEBC00453EC102B4846FB
:10492000884684ED028B02F007FC41EC100B284610
:1049300084ED040B02F05EFB05460E4651EC1B0BAA
:104940002A46334602F0F8FB41EC100B51EC1A0BEF
:104950002A46334684ED060B02F0EEFB41EC100BC9
:10496000504684ED080B02F045FB9BED360B0546E7
:104970000E4651EC100B2A46334602F0DDFB41ECAB
:10498000100B51EC190B2A46334684ED0A0B02F04A
:10499000D3FB41EC100B97F86E0084ED0C0B02F08A
:1049A00040FB41EC100B04F1400084ED0E0B94ED44
:1049B000100B01905AEC105B484641462A4653467C
:1049C00002F0B8FC9FED3A0B064653EC102B0F4655
:1049D00002F0DAFD00BB9FED3C0B2A4651EC100BB8
:1049E000534602F0A7FC02460B464846414602F0F9
:1049F000B9F89BED380B53EC102B02F09DFB94EDB6
:104A0000120B02460B4651EC100B02F0ABF841ECD6
:104A1000100B84ED120B3BE09FED270B304653EC5F
:104A2000102B394602F0B7FDF0B99FED250B484633
:104A300053EC102B414602F095F82A46534602F0FB
:104A400079FC9BED380B94ED129B53EC102B02F08C
:104A500073FB02460B4651EC190B02F083F841EC54
:104A6000100B84ED120B13E09BED380B304653EC2A
:104A7000102B394602F060FB94ED120B02460B46F8
:104A800051EC100B02F06EF841EC100B84ED120BA0
:104A9000019880ED008B02B0BDEC088B01B0BDE841
:104AA000F08F00BF00BF00BF172751A246DF913F24
:104AB00000000000008066C000000000008066402A
:104AC00000000000008076C00000000000807640FA
:104AD000F0B581B00E4664211C461546074600F02D
:104AE000ADF847F22870C0F600000830386007F1D2
:104AF000900006A95822A7F86660FBF757FC2878B3
:104B00007C6787F87000384601B0F0BD00000000F7
:104B1000F0B5ADB09FED140B9FED151B9FED162B5F
:104B20009FED173B9FED184B044616A81D461646F1
:104B30000F46FFF705FE6946582250F8043B043A39
:104B400041F8043BF9D12046394632462B46FFF75F
:104B5000BFFF47F23470C0F6000000F108012046A4
:104B600021602DB0F0BD00BF000000000000F03F4C
:104B7000666666666666E63F000000000000D0409C
:104B80000000000000000840000000000000C040DD
:104B900080B501EBC10100EBC10010ED100B51EC31
:104BA000100B01F0ADFF00EE100A80BD90F864001C
:104BB0007047000001291CBF00207047B0B501EB11
:104BC000810100EB810000F13C0528461446FFF707
:104BD000B7F92846FFF7BAF9284600F067FC012824
:104BE00004D1FFF7E3F92146FFF704FA284600F065
:104BF0005DFCB0FA80F04009B0BD000080F86410A0
:104C00007047000080B501EBC10100EBC10010ED61
:104C10000A0B51EC100B01F073FF00EE100A80BD7F
:104C2000012918BF704780B501EB810100EB8100BD
:104C30003C30FFF7A5F9BDE880407047B0B586B0BD
:104C4000054647F24070C0F600000830286005F1C4
:104C500050000C46FFF7A2F9002085F8640001A877
:104C60002146FFF793F901AC1FCC05F1500C8CE8FD
:104C70000F0028462C6606B0B0BD000047F24C710C
:104C8000C0F600010831016070470000FEDE000040
:104C90007047000080B500F031F880BD022902465F
:104CA00007D802EB81008068002808BF02F11400D9
:104CB000704702F114007047022988BF7047002A2C
:104CC0001CBF00EB8100826070470000B0B500F1AE
:104CD0000804002504E000BF0135032D08BFB0BD66
:104CE00054F825000028F7D001688968884754F8EF
:104CF00025000168C9688847EEE7000010B540F25A
:104D00006820C2F200000078BFF35F8FC0070FD0A9
:104D100040F29024C2F20004207920B92046FFF727
:104D2000D5FF0120207140F29020C2F2000010BD9A
:104D300040F26820C2F2000000F0CEFE0028E7D06A
:104D400040F29024C2F20004204600F013F844F62A
:104D5000E55040F20002C0F60000C0F60002214615
:104D6000FBF71FFB40F26820C2F2000000F0E2FEF9
:104D7000CEE7000070B5044600F050F847F27870B6
:104D8000C0F6000008302060002004F1140540F255
:104D90005C412071C4E902002061C2F20001284692
:104DA0000022002300F046F904F1340640F2844169
:104DB000C2F2000130460E22012300F03BF92046EA
:104DC00000212A46FFF778FF204601213246FFF7EF
:104DD00073FF204670BD000080B500F003F800F0BE
:104DE0002AFE80BDB0B5044647F27870C0F60000D8
:104DF0000830254645F8140B04F1340000F036F96C
:104E0000284600F033F9204600F012F8B0BD00004B
:104E100080B501688A680021904780BD47F2907193
:104E2000C0F600010831016070470000FEDE00009E
:104E30007047000080B58AB001210891D0E90123B4
:104E4000C068CDE904030020CDE90000CDE90200EF
:104E5000CDE906010E20099069461046FBF70AFECF
:104E60000AB080BD2DE9F04186B00C4609690029E1
:104E700052D006468069F16906F11405884212D0C5
:104E800001AE30462946012200F0A6FC02982146D8
:104E900000F022FD029818300290304600F0A6FC87
:104EA00006B0BDE8F081D6E905014AF6AB28081A3C
:104EB000C010CAF6AA2800FB08F0471C284600F0DC
:104EC0008BFBB8422BD356F81C1F56E90223891AD4
:104ED000C91001FB08F1B7EB410F98BF4F00B1EBD0
:104EE000500F28BF0746981AC01000FB08F20DF1BA
:104EF000040840463946334600F0E6FB0398214655
:104F000000F0EAFC0398414618300390284600F070
:104F100071FC404600F0FCFB06B0BDE8F08128467D
:104F200000F057FB70B5D0E90546B44208BF70BD2C
:104F30000D4602E01834A64207D020690028F9D0B7
:104F40002046294600F054FBF4E770BD80B5FFF71A
:104F500071FF80BDB0B588B0054640680C46FBF7D0
:104F60009FFE78B1207B217D627D069088000490B1
:104F700050000590A0682269019231B10390002091
:104F8000029005E0002008B0B0BD02900020039020
:104F9000002168688DF81C1002A901AB2246FBF7BE
:104FA0001FFDB0FA80F0400908B0B0BD10B504464E
:104FB0004068FCF7FDF8E06820B1012818BF10BD7B
:104FC000102100E002216068FBF7F6FC10BD000034
:104FD00070B588B00446E26840680D461146FBF79C
:104FE000BBFD38B16068E16801AE32462B46FBF785
:104FF000C3FD10B1002008B070BDDDE90301002839
:10500000A0F10400B0FA80F04FEA501018BF043647
:1050100032682875881E059BB0FA80F04009AA60A6
:105020002B73687520682946026A20469047012044
:1050300008B070BD70B51C4615460E46FFF71EFE43
:1050400047F2A871C0F6000108310022C0E900163D
:10505000C0E90254C0E90422C0E9062270BD000084
:1050600080B500F003F800F0E6FC80BD10B5044602
:1050700047F2A870C0F6000000F10801204640F891
:10508000141B00F0F5FA2046FFF702FE10BD0000E9
:1050900080B50A46096841B1928832B14068FDF78F
:1050A0003FFCB0FA80F0400980BD002080BD0000C8
:1050B00080B5406801226423FDF7D0FBB0FA80F090
:1050C000400980BD80B50A46096841B1928832B175
:1050D0004068FDF7AFFCB0FA80F0400980BD0020C9
:1050E00080BD000080B582B040688DF807100DF1DA
:1050F000070101226423FDF743FCB0FA80F0400968
:1051000002B080BD80B582B04068026812681207A4
:105110000CD5002201920268136801935268019233
:10512000019A0B688A881946FDF7C2F802B080BD63
:1051300080B50A46096841B1928832B14068FDF7EE
:10514000B7F8B0FA80F0400980BD002080BD0000B3
:105150002DE9F04186B00C460969002952D0064677
:105160000069716906F10C05884212D001AE304623
:105170002946012200F062FB0298214600F0FCFB68
:10518000029818300290304600F062FB06B0BDE88D
:10519000F081D6E903014AF6AB28081AC010CAF616
:1051A000AA2800FB08F0471C284600F01BFAB8426A
:1051B0002BD356F8141F56E90223891AC91001FB94
:1051C00008F1B7EB410F98BF4F00B1EB500F28BF6C
:1051D0000746981AC01000FB08F20DF1040840467B
:1051E0003946334600F0AAFA0398214600F0C4FB82
:1051F0000398414618300390284600F02DFB4046A6
:1052000000F0C0FA06B0BDE8F081284600F0E1F9F0
:1052100070B5D0E90346B44208BF70BD0D4602E048
:105220001834A64207D020690028F9D02046294624
:1052300000F0E8F9F4E770BD7047000040680068CE
:10524000C16841F02001C1607047000080B50A4686
:10525000096841B1928832B14068FDF777FBB0FA36
:1052600080F0400980BD002080BD000080B50A4666
:10527000096841B1928832B14068FDF721FCB0FA6B
:1052800080F0400980BD002080BD000010B50C46B4
:1052900000F026F847F2D471C0F600010831002270
:1052A000C0E90014C0E90222C0E9042210BD0000D8
:1052B00080B500F003F800F0BEFB80BD10B50446D9
:1052C00047F2D470C0F6000000F10801204640F813
:1052D0000C1B00F0E3F9204600F00CF810BD0000B4
:1052E00047F61801C0F60001083101607047000060
:1052F000FEDE00007047000080B500F031F880BD90
:105300000229024607D802EB81008068002808BF06
:1053100002F11400704702F114007047022988BF9F
:105320007047002A1CBF00EB8100826070470000BC
:10533000B0B500F10804002504E000BF0135032DDD
:1053400008BFB0BD54F825000028F7D0016889686F
:10535000884754F825000168C9688847EEE70000CF
:1053600010B540F26C20C2F200000078BFF35F8FEE
:10537000C0070FD040F2E424C2F20004207920B923
:105380002046FFF7D5FF0120207140F2E420C2F251
:10539000000010BD40F26C20C2F2000000F09CFB47
:1053A0000028E7D040F2E424C2F20004204600F0D6
:1053B00013F845F2614040F20002C0F60000C0F66A
:1053C00000022146FAF7EDFF40F26C20C2F2000025
:1053D00000F0B0FBCEE70000F0B581B0044600F06D
:1053E00059F847F65C00C0F6000008302060002045
:1053F00004F1140540F25C612071C4E902002061EF
:10540000C2F200012846FFF741FF04F12C0640F2EA
:10541000A461C2F200013046FFF738FF04F14407EF
:1054200040F2EC61C2F200013846FFF72FFF204640
:1054300000212A46FFF772FF204601213246FFF77E
:105440006DFF204602213A46FFF768FF204601B073
:10545000F0BD000080B500F003F800F0ECFA80BD6C
:10546000B0B5044647F65C00C0F60000083025469B
:1054700045F8140B04F14400FFF720FF04F12C0061
:10548000FFF71CFF2846FFF719FF204600F00CF835
:10549000B0BD000047F67401C0F60001083101609C
:1054A00070470000FEDE0000704700000069704792
:1054B000B0B50BB302F007004FEAD20E00224FF056
:1054C000000C00BF11F80E40C5B2EC40451CE8B21C
:1054D00004F00104082804FA02F408BF0EF1010EDA
:1054E000083802F1010218BF284693424CEA040C26
:1054F000E8D11FFA8CF0B0BD4FF0000C1FFA8CF011
:10550000B0BD00000846002918BF01207047000008
:1055100090ED0A0A7047000090ED0B0A70470000FA
:1055200041EA022000B2704708B2B0F5B67FD8BF9A
:105530004FF4B67108B240F294629042A8BF11468F
:1055400008B27047807A7047C07A7047022984BFDA
:105550000020704700EB81008068002818BF012000
:10556000704700004068704740687047022984BF58
:105570000020704700EB81008068002818BF0120E0
:105580007047000047F68C00C0F600000830086045
:105590007047000080B5082000F050FA47F68C01F3
:1055A000C0F600010831016080BD000047F6B00080
:1055B000C0F60000083008607047000080B5082081
:1055C00000F03CFA47F6B001C0F600010831016076
:1055D00080BDFAF7DBFE00004AF6AA20C0F6AA203A
:1055E000704700004AF6AA20C0F6AA2070470000C3
:1055F00080B5006918B102689269904780BDFAF7DA
:10560000C5FE000080B5006918B102689269904734
:1056100080BDFAF7BBFE0000704700007047000035
:10562000704700007047000080B5082100F0C0F806
:1056300080BD00007047000080B500F0FCF980BD1F
:1056400080B5084600F0BCF880BD000080B5082198
:1056500000F0AEF880BD00007047000080B500F09B
:10566000EAF980BD80B5084600F0B2F880BD0000C0
:10567000B0B50568044675B16068A84205D000BFA2
:10568000183800F04DF98542FAD12068A1686560AC
:10569000091A00F08DF82046B0BD0000B0B50568CD
:1056A000044675B16068A84205D000BF183800F004
:1056B00087F98542FAD12068A1686560091A00F06F
:1056C00077F82046B0BD000070B516460D4604467A
:1056D0000020E060236151B14AF6AB20C0F6AA2059
:1056E000854212D205EB4500C00000F0A7F906EB99
:1056F000460100EBC10105EB450200EBC202C4E923
:1057000000012046A160E26070BDFAF73FFE000094
:10571000B0B50446D0E90150A84206D01838A060C0
:1057200000F0FEF8A068A842F8D1206820B12168F6
:10573000E268511A00F03CF82046B0BD70B516463C
:105740000D4604460020E060236151B14AF6AB20CB
:10575000C0F6AA20854212D205EB4500C00000F039
:105760006DF906EB460100EBC10105EB450200EBCC
:10577000C202C4E900012046A160E26070BDFAF7F0
:1057800005FE0000B0B50446D0E90150A84206D09D
:105790001838A06000F014F9A068A842F8D1206879
:1057A00020B12168E268511A00F002F82046B0BD2D
:1057B00080B500F001F880BD80B500F03CF980BDF7
:1057C00080B5D0E90021104600F010F980BD00003E
:1057D00080B500F01FF980BD0160496802EB42020C
:1057E000416001EBC201816070470000D0E9001206
:1057F0004A607047F0B581B0D0E900760446BE42F9
:105800000D460BD06868183E1838314600F048F84D
:105810006868B742A0F118006860F3D16868216831
:105820002060A868696061686060E868A960A16834
:10583000A0606868E960286001B0F0BD0160496857
:1058400002EB4202416001EBC2018160704700003F
:10585000D0E900124A607047F0B581B0D0E9007617
:105860000446BE420D460BD06868183E18383146D3
:1058700000F066F86868B742A0F118006860F3D1DC
:10588000686821682060A868696061686060E8688D
:10589000A960A168A0606868E960286001B0F0BDF7
:1058A000B0B50D460969044631B18D4208D00020DB
:1058B000216128612046B0BD002020612046B0BD96
:1058C0002046FFF7A9FE2061014628690268D268D8
:1058D00090472046B0BD0000B0B50D4609690446AA
:1058E00031B18D4208D0086882680846904700E0D0
:1058F000002020612046B0BD2046FFF78DFE2061CC
:10590000014628690268D26890472046B0BD000071
:1059100047F6B001C0F60001083101600061704730
:1059200010B504460069844205D010B10168496988
:105930008847204610BD016809698847204610BD88
:10594000B0B50D460969044631B18D4208D000203A
:10595000216128612046B0BD002020612046B0BDF5
:105960002046FFF75BFE2061014628690268D26885
:1059700090472046B0BD0000B0B50D460969044609
:1059800031B18D4208D0086882680846904700E02F
:10599000002020612046B0BD2046FFF73FFE206179
:1059A000014628690268D26890472046B0BD0000D1
:1059B00047F68C01C0F600010831016000617047B4
:1059C00010B504460069844205D010B101684969E8
:1059D0008847204610BD016809698847204610BDE8
:1059E00040F24030C2F20000006870474FF6FE728D
:1059F000114012290CD30028014608BF704780B51A
:105A000040F20000C2F20000FEF750FBBDE880400B
:105A10007047000010B5044640F2C800C2F2000012
:105A20002146FEF709FF40F2B010C2F20000214605
:105A3000FEF776FC10BDFAF77EBD000010B50446F7
:105A4000002808BF012400BF2046FAF745FD0028C2
:105A500018BF10BDFFF7C4FF08B18047F4E700206E
:105A600010BD0000002848BF704700F01F01012250
:105A700002FA01F14EF200124009CEF2000242F8A1
:105A8000201070474EF60C50CEF200000068C0F3B4
:105A9000022070474EF6145300F00F02CEF20003BE
:105AA00009011A4400F16043B0F1FF3FC8BF03F59C
:105AB00064421170704700004EF60C51CEF20001A6
:105AC0000A684FF6FF031A4060F30A2242F0806032
:105AD00040F0FD700860704780B5017811B94178D9
