:020000040800F2
:1000000030780020A5010008ED68000811630008A1
:10001000D1680008ED09000835B7000800000000AD
:10002000000000000000000000000000716D0008EA
:10003000390F000800000000016D0008056E00087F
:10004000BF010008BF010008BF010008BF01000890
:10005000BF010008BF010008BF010008BF01000880
:10006000BF010008BF010008BF010008BF01000870
:10007000510D0008BF010008BF010008BF010008C2
:10008000BF010008BF010008BF010008BF01000850
:10009000F1090008010A0008BF010008BF010008BB
:1000A000BF010008116F0008BF010008BF01000870
:1000B000BF010008BF010008BF010008BF01000820
:1000C000BF010008BF010008BF010008BF01000810
:1000D000BF010008657D0008BF010008757D0008AC
:1000E000BF010008BF010008BF010008BF010008F0
:1000F000BF010008BF010008BF010008BF010008E0
:10010000BF010008BF010008BF010008BF010008CF
:10011000BF010008BF010008BF010008BF010008BF
:10012000BF010008610D0008710D0008BF01000843
:10013000BF010008BF010008BF010008BF0100089F
:10014000110A0008210A0008BF0100085D690008C3
:10015000BF010008810D0008910D0008857D000891
:10016000BF010008BF010008BF010008BF0100086F
:10017000BF010008BF010008BF0100080000000027
:10018000BF010008BF010008DFF814D000F0C4FB75
:1001900000F076F800480047A172010800F0D8FB93
:1001A000307800200648804706480047FEE7FEE713
:1001B000FEE7FEE7FEE7FEE7FEE7FEE7FEE7FEE717
:1001C000FD6E0008890100082DE9F05F054600205A
:1001D00092469B4688460646814640241BE02846B8
:1001E00041464746224600F095FA53465A46C01A01
:1001F000914110D311461846224600F07CFA2D1A80
:1002000067EB01084F4622460120002100F073FAF7
:1002100017EB00094E41201EA4F10104DFDC484623
:1002200031462A464346BDE8F09F40EA01039B075A
:1002300003D009E008C9121F08C0042AFAD203E05B
:1002400011F8013B00F8013B521EF9D27047D2B2BF
:1002500001E000F8012B491EFBD270470022F6E7AF
:1002600010B513460A4604461946FFF7F0FF20462C
:1002700010BD421C10F8011B0029FBD1801A7047E9
:100280007CB507480090074801900546009C04E0B3
:100290002046016808448047241DAC42F8D17CBD4B
:1002A000D89A0108E89A01080B460146184600F062
:1002B00074BA2DE9FE4F804681EA0300C00F0C4658
:1002C000009021F0004123F00045B8EB0200A94165
:1002D00005D24046214690461C460B46024623F076
:1002E0000040104347D0270DC7F30A00C3F30A515B
:1002F0000290401A019040286BDAC3F3130040F4D7
:10030000801B0098924620B10023D2EB030A63EBD6
:100310000B0B01985946C0F14002504600F0EBF932
:1003200006460D4650465946019A00F003FA10EB76
:1003300008006141002487EA115284EAE7731A43F6
:1003400040D0009A62B3019A012A4FEA075215DCA5
:10035000001B61EB02014FF0004202EA0752CDE9B7
:100360000042001C41F5801132462B4600F072FA23
:1003700003B0BDE8F08F40462146F9E7001B61EB72
:100380000201001C41F5801300185B412018A2F502
:10039000001747EB030140EAD570B6196D4111E033
:1003A0006D084FEA360645EAC0754FEA0752001B52
:1003B00061EB0201001C41F5801149084FEA300051
:1003C0000019514132462B4603B0BDE8F04F00F012
:1003D00032BA0098012240000023D0EB020263EB06
:1003E000E073009821464FEAE074B8EB000061EB3F
:1003F0000401E9E783F000435BE781F0004158E73F
:100400002DE9FE4F81EA030404F0004421F000418D
:1004100000944FF0000B23F0004350EA01045ED03B
:1004200052EA03045BD0C3F30A54C1F30A552C44C7
:10043000A4F2F3340194A0FB0254C1F3130141F47C
:100440008011C3F3130343F4801301FB024400FB48
:10045000034E840A970A44EA815447EA8357A4FB6F
:10046000076802958D0A05FB07854FEA932C04FB6C
:100470000C542705029D4FEA065847EA1637B5EB9C
:1004800008056EEB070C870E920E47EA811742EAC9
:100490008312A7FB0201B6EB0B0164EB00042B0DEA
:1004A00043EA0C335E1844EB1C50DA465146E7FB36
:1004B0000201C5F313044FEA0B3343EA14534FEA26
:1004C0000432019C43EA0603A4F10C040294009C4C
:1004D000CDE900B400F0BEF903B0BDE8F08F002014
:1004E0000146F9E72DE9F04D81EA030404F0004BE1
:1004F00021F0004514464FF0000A23F0004150EA75
:10050000050220D054EA01021DD0C5F30A57024665
:10051000C5F31303C1F31300C1F30A5640F4801569
:1005200043F48013A7EB0608101BD64608F2FD38EB
:1005300073EB050002D308F1010801E092185B415A
:10054000B8F1000F03DA00200146BDE8F08D00206D
:100550004FF48011064684460EE0171B73EB050727
:1005600005D3121B63EB050306434CEA010C490853
:100570004FEA300092185B4150EA0107EDD152EA90
:10058000030012D082EA040083EA0501084305D083
:10059000101BAB4106D20122002306E000224FF0DF
:1005A000004302E06FF0010253101AEB06004CEB1F
:1005B000085110EB0A0041EB0B01BDE8F04D00F0D3
:1005C0003AB930B5041E71F1000404DB4FF0004469
:1005D000404264EB0101141E73F1000405DB1C466C
:1005E0004FF00043524263EB0403801A994101D358
:1005F000012030BD002030BD30B5041E71F1000473
:1006000004DB4FF00044404264EB0101141E73F11F
:10061000000405DB1C464FF00043524263EB040329
:10062000101A8B4101D3012030BD002030BD0EB522
:10063000C10F80EAE0700844CA07002140F233434A
:100640008DE80E000A460B4600F004F903B000BD29
:100650000EB540F2334102910021CDE900110A4666
:100660000B4600F0F7F803B000BD00F0004230F098
:1006700000400AD0C10D01F56071C0F3160042EAD6
:100680000151C208400711437047002001467047DE
:1006900001F0004330B421F0004150EA010206D0DD
:1006A0000A0DA2F56072C1F31301002A02DC30BC0E
:1006B00000207047440F44EAC104C100E01830BC78
:1006C00000EBC25000F080B880E8FF1FC0F834D0C3
:1006D000C0F838E0C0F83CE04FF00000704700BFC1
:1006E00080EC200B704700BF80EC200B704700BFF0
:1006F000C0EC200B7047202A04DB203A00FA02F1FC
:10070000002070479140C2F1200320FA03F31943FF
:1007100090407047202A04DB203A21FA02F00021A1
:10072000704721FA02F3D040C2F120029140084301
:1007300019467047202A06DBCB17203A41FA02F00F
:1007400043EAE07306E041FA02F3D040C2F120022E
:100750009140084319467047704710B5002200E0E9
:10076000521C835C8C5CA34201D1002BF8D1D8B21F
:10077000E1B2401A10BD10B50446481E014201D135
:10078000042901D2052010BD104618F0C7F810B199
:100790002060002010BD062010BD2DE9F041074665
:1007A00015460E46102018F0A1FA04000AD0676022
:1007B000C4E9026500F0C8F8016821600460002007
:1007C000BDE8F0810120FBE70029A8BF7047401C6D
:1007D000490008BF20F00100704710B4B0FA80FC57
:1007E00000FA0CF050EA010404BF10BC704749B194
:1007F000CCF1200421FA04F411FA0CF118BF012104
:1008000021430843A3EB0C01CB1D4FEA00614FEAE3
:10081000102042BF002010BC704700EBC3501044B2
:100820000029A4BF10BC7047401C490008BF20F03D
:10083000010010BC704710B5141E73F1000408DAF3
:10084000401C41F1000192185B411A4301D120F094
:10085000010010BD2DE9F04D92469B4611B1B1FA51
:1008600081F202E0B0FA80F220329046FFF743FFB7
:1008700004460F4640EA0A0041EA0B0153465A4635
:10088000084313D0114653EA010019D0C8F14002C1
:100890005046FFF73FFF05460E4650465946424632
:1008A000FFF729FF084305D0012004E02046394620
:1008B000BDE8F08D0020054346EAE0762C4337433F
:1008C0000A986305E40AA0EB08000022FD0A44EA46
:1008D00047540A3002D500200146E9E70105101906
:1008E0006941DDE9084500196941BDE8F04DA2E71D
:1008F00086469EE8FF1FDEF834D0DEF83CE0704705
:1009000090EC200B704700BF90EC200B704700BFAD
:10091000D0EC200B704700001CB509480090094836
:1009200001900546009C06E0E06840F0010394E871
:10093000070098471034AC42F6D3FFF729FC0000BB
:10094000B89A0108D89A0108004870470C000020A6
:100950002DE9F0410646FFF7F7FF8046454613E0D4
:1009600016B1E068B0420ED120682860D4E90101D8
:10097000D8F800708847204618F020F8D8F8000012
:10098000B842EBD100E025462C68002CE8D1BDE848
:10099000F081704770B58C1810F8015B15F00703F3
:1009A00001D110F8013B2A1106D110F8012B03E008
:1009B00010F8016B01F8016B5B1EF9D12B0705D410
:1009C0000023521E0DD401F8013BFAE710F8013B59
:1009D000CB1A921C03E013F8015B01F8015B521E75
:1009E000F9D5A142D8D3002070BD0000FFE7FEE793
:1009F00080B542F2B420C2F2000000F0E7FD80BDF5
:100A000080B542F2B420C2F2000000F0DFFD80BDEC
:100A100080B542F2DC20C2F2000000F0D7FD80BDBC
:100A200080B542F2DC20C2F2000000F0CFFD80BDB4
:100A300084B08DF80F000291ADF806209DF80F00EC
:100A40000146009123281DD80099DFE801F0121318
:100A50001415161B1B1B1B1B1B1B1B1B1B1B1B1BF8
:100A60001B1B1B1B1B1B1B1B1B1B1B1B1B1B1718DD
:100A7000191A08E007E006E005E004E003E002E000
:100A800001E000E0FFE7002004B07047002070475D
:100A900080B582B041F6D870C2F20000009041F2F9
:100AA0008821C2F200010022019207F013FD009894
:100AB00040F68821C2F2000107F0EEFC019802B076
:100AC00080BD000080B584B0039002910398029924
:100AD00009680AF057FC039941F6D870C2F2000089
:100AE000019007F0D9FC019807F07CFC002004B0CD
:100AF00080BD000083B0029001918DF8032000209A
:100B00008DF802009DF9020003B0704780B586B0F1
:100B10000490ADF80E1000208DF80D0041F6D8704D
:100B2000C2F20000D0F8BC0202900298D0F8140281
:100B300020B1FFE701208DF8170013E00499BDF8FC
:100B40000E2041F6D870C2F20000019007F0C2FCFE
:100B5000019807F0C9FD8DF80D009DF80D008DF886
:100B60001700FFE79DF8170006B080BD80B582B082
:100B700001900CF0EBF8FFE70BF0CCFF46F6BC5011
:100B8000C2F2000012F046F9012016F0C3FBF3E7B1
:100B9000F0B599B018900EF009FE0EF04DFF40F23E
:100BA0009850C2F20000012100220FF0A3FD0CF0CA
:100BB00007F9FFE70EF0FAFD0EF048FF40F20030B3
:100BC000C2F200000F9002210E9111F05FF90F9810
:100BD0008DED160A0321109111F058F90E990F9816
:100BE0008DED170A11F07EF90F9810998DED140A0A
:100BF00011F078F98DED150A41F69070C2F20000FF
:100C000090ED040A8DED120A40F26C10C2F2000061
:100C100011900DF0BFFF0146119800EE101AB8EECA
:100C2000400A8DED130A0DF0A5FF9DED120ADDEDD2
:100C3000130A01EE100AB8EE411A42F2E440C2F281
:100C4000000016A914AADFED401AB2EE0E2A0EF02B
:100C500047F941F6C840C2F2000001780131017045
:100C6000007805286BDBFFE741F6C841C2F20001BE
:100C70000020087040F28810C2F20000089013F0C3
:100C800079F801460898079113F07AF806900BF06E
:100C9000D9FA0699024607980BF056FE089813F009
:100CA00069F801460898099113F06AF80A900BF068
:100CB000C9FA0B9042F69060C2F2000000780D90E5
:100CC00046F6BC50C2F2000012F09CF8002818BF93
:100CD00001200C9042F69160C2F20000047842F2CA
:100CE000E440C2F200000EF015FB05460BF082F95D
:100CF00009990A9A0B9BDDF830E006460D9841F6FB
:100D0000B857C2F20007EC46CCF81470CCF810606B
:100D1000CCF80C5004F00104CCF80840CCF804E006
:100D200000F00100CCF8000042F69460C2F200002E
:100D30009FED060A0CF0E8FE0BF078FEFFE70120BD
:100D400016F0E8FA36E700BF6F12833A00007A45E2
:100D500080B542F2C430C2F2000001F039F980BD22
:100D600080B542F22440C2F2000001F031F980BDAA
:100D700080B542F20430C2F2000001F029F980BDD2
:100D800080B542F28440C2F2000001F021F980BD3A
:100D900080B542F26430C2F2000001F019F980BD62
:100DA00082B001900198007810384AF6AB21CAF65B
:100DB000AA21A0FB011000090090009949F2884087
:100DC000C0F60100405C0199C8650098042807D36B
:100DD000FFE701990868042262F30900886506E0CC
:100DE0000199086840F2FF3290438865FFE7019857
:100DF000806D02B07047000086B0059000208DF82D
:100E000013000598806A03900598806910BBFFE77E
:100E10000398029003281BD80299DFE801F0020D25
:100E20000218059890F82F00C00720B1FFE70120B5
:100E30008DF81300FFE70CE00598C06AB0F1C07FA1
:100E400004D1FFE701208DF81300FFE701E000E087
:100E5000FFE745E005988069B0F5005F25D1FFE721
:100E60000398019003281ED80199DFE801F00206DB
:100E7000021101208DF8130016E0059890F82F005C
:100E8000C00720B1FFE701208DF81300FFE70BE05A
:100E90000598C06AB0F1C07F04D1FFE701208DF84A
:100EA0001300FFE700E0FFE719E003980090032834
:100EB00004D3FFE70098032804D00EE001208DF84A
:100EC00013000BE0059890F82F00C00720B1FFE752
:100ED00001208DF81300FFE700E0FFE7FFE7FFE7E1
:100EE0009DF8130006B0704784B003900291019200
:100EF000009303980168086820F480200860009837
:100F000003990968486003988068402809D1FFE781
:100F10000198039909688860029803990968C86074
:100F200008E00298039909688860019803990968A4
:100F3000C860FFE704B070477047000072B6FFE773
:100F4000FEE7000080B584B047F61020C1F6FF70C0
:100F50000068039047F61420C1F6FF700068029005
:100F600047F61820C1F6FF700068019001990398B8
:100F700008440390039888B1FFE7039840F2E80122
:100F8000C2F2000100910231082205F0C3F9009974
:100F900002981231042205F0BDF9FFE704B080BDCC
:100FA00084B002900191029890F820008DF803001F
:100FB0009DF80300012805D0FFE79DF803000228F3
:100FC0000AD1FFE7019A0298016848691043486115
:100FD00000208DF80F0008E00299486A40F4802054
:100FE000486201208DF80F00FFE79DF80F0004B064
:100FF0007047000088B0069005910492039306980C
:1010000090F820008DF8070006980068806800902E
:101010000598806808B9FFE700E0FFE79DF8070042
:10102000012806D0FFE79DF80700022840F08080E5
:10103000FFE79DF80300400700280CD4FFE79DF868
:1010400003000007002806D4FFE79DF80300C00650
:10105000002864D5FFE70098C0F301600290029970
:1010600001208840039908600598806868B9FFE707
:1010700005980168C06840EA415006990968029ADB
:1010800001EB0211C1F880010EE005994A688868F9
:10109000C96840EAC200084306990968029A01EB50
:1010A0000211C1F88001FFE70598006906990968F7
:1010B000029A01EB0211C1F884010598007D012814
:1010C0000CD1FFE706980068029900EB0111D1F8F6
:1010D000840140F48070C1F88401FFE704984068FF
:1010E00006990968029A01EB0211C1F88C01049873
:1010F000006806990968029A01EB0211C1F888019B
:1011000006980068029900EB0111D1F8800140F0C7
:101110000100C1F8800100208DF81F0011E0069940
:10112000486A40F40010486201208DF81F0008E072
:101130000699486A40F48020486201208DF81F001B
:10114000FFE79DF81F0008B07047000086B00490CC
:101150000391049890F820008DF803009DF8030097
:10116000012806D0FFE79DF80300022840F0B08078
:10117000FFE746F20040C4F2000001900199D1F867
:10118000000240F00100C1F800020199D1F800020C
:1011900020F47C50C1F800020398426A0199D1F80A
:1011A000000240EA0220C1F800020398406900F002
:1011B0001F01012088400290029A0199D1F81C0277
:1011C0009043C1F81C020398C069F0B9FFE7029A86
:1011D0000199D1F80C029043C1F80C02039A90884F
:1011E000D168526940EA0140019901EBC201C1F89E
:1011F0004002039A10889168526940EA01400199BF
:1012000001EBC201C1F84402FFE70398C06901285D
:101210001ED1FFE7029A0199D1F80C021043C1F8E0
:101220000C02039A90881168526940EA01400199C2
:1012300001EBC201C1F84002039A9089916852699A
:1012400040EA0140019901EBC201C1F84402FFE705
:101250000398806940B9FFE7029A0199D1F8040226
:101260009043C1F8040207E0029A0199D1F8040200
:101270001043C1F80402FFE70398006940B9FFE793
:10128000029A0199D1F814029043C1F8140207E0C0
:10129000029A0199D1F814021043C1F81402FFE731
:1012A0000398006A012808D1FFE7029A0199D1F852
:1012B0001C021043C1F81C02FFE70199D1F800029B
:1012C00020F00100C1F8000200208DF8170008E0AE
:1012D0000499486A40F48020486201208DF8170084
:1012E000FFE79DF8170006B07047000081B000903E
:1012F00001B0704784B003900291002001900398E0
:1013000090F820008DF803009DF80300012805D017
:10131000FFE79DF80300022812D1FFE7029838B9D1
:10132000FFE703980068C06800F00300019006E042
:1013300003980068006900F003000190FFE7FFE7F1
:10134000019804B07047000086B0049003910292A7
:101350000193049890F820008DF803009DF8030095
:10136000012806D0FFE79DF80300022840F0E8803E
:10137000FFE7039880B9FFE704980068C06880071A
:1013800048B9FFE70499486A40F400104862012018
:101390008DF81700DDE00FE0049800680069800711
:1013A00048B9FFE70499486A40F4001048620120F8
:1013B0008DF81700CDE0FFE704980068039900EB73
:1013C0000110D0F8B00100F0040002998860029882
:1013D000806858B9FFE704980068039900EB011092
:1013E000D0F8B001400D029908600AE00498006846
:1013F000039900EB0110D0F8B001C00802994860D1
:10140000FFE704980068039900EB0110D0F8B001E1
:1014100000F002000299C86004980068039900EB8C
:101420000110D0F8B40100F00F00082804D3FFE742
:101430000299082008610BE004980068039900EB0A
:101440000110D0F8B40100F00F0002990861FFE725
:1014500004980068039900EB0110D0F8B40180B241
:10146000000A0299886104980068039900EB011052
:10147000D0F8B401000C02994861049800680399FF
:1014800000EB0110D0F8B8010199087004980068C9
:10149000039900EB0110D0F8B801000A01994870D7
:1014A00004980068039900EB0110D0F8B801000C13
:1014B0000199887004980068039900EB0110D0F836
:1014C000B801000E0199C87004980068039900EBF8
:1014D0000110D0F8BC0101990871049800680399C3
:1014E00000EB0110D0F8BC01000A01994871049882
:1014F0000068039900EB0110D0F8BC01000C0199C1
:10150000887104980068039900EB0110D0F8BC01C1
:10151000000E0199C871039838B9FFE70498016873
:10152000C86840F02000C86006E0049801680869B7
:1015300040F020000861FFE700208DF8170008E068
:101540000499486A40F48020486201208DF8170011
:10155000FFE79DF8170006B07047000083B00290C7
:1015600000200190029890F820008DF803009DF86B
:101570000300012805D0FFE79DF80300022822D1CF
:10158000FFE70298006880684001002804D5FFE763
:10159000019801300190FFE702980068806800011F
:1015A000002804D5FFE7019801300190FFE7029879
:1015B00000688068C000002804D5FFE7019801306A
:1015C0000190FFE7FFE7019803B0704780B58AB04C
:1015D00009900020089009980068406907900998D0
:1015E000006840680690099800688068059009982E
:1015F0000068C06804900998006800690390099821
:101600000068806902909DF81C00C007002800F067
:101610009480FFE79DF81400C00758B3FFE70998CE
:101620000168012088609DF814008007002804D517
:10163000FFE7099800F01CFC1BE09DF81400400730
:10164000002805D5FFE7089840F4006008900FE0F7
:101650009DF814000007002805D5FFE7089840F41E
:101660008050089003E0099800F0FEFBFFE7FFE7D9
:10167000FFE7FFE79DF81500C00760B3FFE7099893
:1016800001684FF4807088609DF81500800700287D
:1016900004D5FFE7099800F0F3FB1BE09DF8150067
:1016A0004007002805D5FFE7089840F4005008904F
:1016B0000FE09DF815000007002805D5FFE7089802
:1016C00040F48040089003E0099800F0D5FBFFE764
:1016D000FFE7FFE7FFE79DF81600C00760B3FFE7ED
:1016E000099801684FF4803088609DF816008007E3
:1016F000002804D5FFE7099800F0CAFB1BE09DF81D
:1017000016004007002805D5FFE7089840F4004080
:1017100008900FE09DF816000007002805D5FFE7A8
:10172000089840F48030089003E0099800F0ACFB82
:10173000FFE7FFE7FFE7FFE7FFE79DF81C00000773
:10174000002810D5FFE79DF81000C006002809D535
:10175000FFE7089840F4007008900998016810208D
:10176000C860FFE7FFE79DF81C00400700280FD581
:10177000FFE79DF810000007002808D5FFE709984B
:1017800001680820C860099800F0E0FAFFE7FFE769
:101790009DF81C00800700280BD5FFE7099800681A
:1017A000C068800720B1FFE7099800F0D3FAFFE78F
:1017B000FFE79DF81C004006002810D5FFE79DF8C4
:1017C0000C00C006002809D5FFE7089840F48060A7
:1017D00008900998016810200861FFE7FFE79DF86D
:1017E0001C00800600280FD5FFE79DF80C000007BD
:1017F000002808D5FFE709980168082008610998C2
:1018000000F0C6FAFFE7FFE79DF81C00C0060028BD
:101810000BD5FFE7099800680069800720B1FFE752
:10182000099800F0B9FAFFE7FFE79DF81E0080076E
:1018300000280FD5FFE79DF81800C006002808D53E
:10184000FFE70998016810204860099800F0C2FA83
:10185000FFE7FFE79DF81E00C00778B1FFE79DF89E
:1018600018000007002808D5FFE70998016808203C
:101870004860099800F010FBFFE7FFE79DF81D00A6
:101880000006002840F18D80FFE79DF81800400712
:10189000002840F18180FFE79DF81D00C00750B18E
:1018A000FFE79DF80800C00728B1FFE7089840F05F
:1018B00001000890FFE79DF81D00800700280BD568
:1018C000FFE79DF808008007002805D5FFE7089886
:1018D00040F002000890FFE79DF81D004007002837
:1018E0000BD5FFE79DF808004007002805D5FFE766
:1018F000089840F004000890FFE79DF81D000007DD
:10190000002848D5FFE79DF8080010F0700F42D07E
:10191000FFE7029800F0700001460191102814D0F2
:10192000FFE70198202815D0FFE70198302816D04E
:10193000FFE70198402817D0FFE70198502818D0FA
:10194000FFE70198602819D01DE0089840F00800D2
:10195000089019E0089840F01000089014E00898EA
:1019600040F0200008900FE0089840F040000890F8
:101970000AE0089840F08000089005E0089840F4DC
:101980008070089000E0FFE709980168886920F0FE
:1019900070008861FFE7FFE709980168042048604C
:1019A000FFE7089848B1FFE7089A0999486A104389
:1019B00048620998FFF79AFCFFE70AB080BD000073
:1019C00080B584B00290029820B9FFE701208DF81D
:1019D0000F00E0E0029890F8200020B9FFE702989D
:1019E00000F0DEF8FFE702980168086840F00100A7
:1019F000086000F095FF0190FFE7029800684068DA
:101A0000C007A8B9FFE700F08BFF0199401A0B2827
:101A10000DD3FFE70299486A40F40030486202990A
:101A2000052081F8200001208DF80F00B3E0E4E7E5
:101A300002980168086820F00200086000F070FF5A
:101A40000190FFE70298006840688007002815D5DC
:101A5000FFE700F065FF0199401A0B280DD3FFE75F
:101A60000299486A40F4003048620299052081F8E2
:101A7000200001208DF80F008DE0E3E70298007E42
:101A8000012807D1FFE702980168086840F080004C
:101A9000086006E002980168086820F0800008608D
:101AA000FFE70298407E012807D1FFE7029801680E
:101AB000086840F04000086006E002980168086885
:101AC00020F040000860FFE70298807E012807D1DF
:101AD000FFE702980168086840F02000086006E00F
:101AE00002980168086820F020000860FFE702986B
:101AF000C07E012807D1FFE702980168086820F03E
:101B00001000086006E002980168086840F01000C4
:101B10000860FFE70298007F012807D1FFE70298DD
:101B20000168086840F00800086006E00298016853
:101B3000086820F008000860FFE70298407F01284D
:101B400007D1FFE702980168086840F004000860C8
:101B500006E002980168086820F004000860FFE7CA
:101B6000029B19685A689868D3F80CC040EA0C00C8
:101B7000D3F810C040EA0C005B691843013A1043E7
:101B8000C861029900204862029A012182F820105F
:101B90008DF80F00FFE79DF80F0004B080BD000036
:101BA00080B594B0139000201290119010900F9077
:101BB0000E901398006846F20041C4F2000188427A
:101BC00053D1FFE740F2EC10C2F20000016801318E
:101BD00001600068012812D1FFE7FFE700200D90A7
:101BE00043F64000C4F20200016841F00071016058
:101BF000006800F000700D900D98FFE7FFE7FFE729
:101C000000200C9043F63000C4F20200016841F05D
:101C100008010160006800F008000C900C98FFE7D4
:101C200003200E9002210F91002107911091119035
:101C30000920129040F60040C4F202000EA900F004
:101C400093FC079A142005900521069100F03CFFB3
:101C5000059800F02FFF0699079A1520089000F0CC
:101C600033FF089800F026FF6EE01398006846F6F0
:101C70000001C4F20001884265D1FFE7FFE70020C0
:101C80000B9043F64000C4F20200016841F080610D
:101C90000160006800F080600B900B98FFE740F255
:101CA000EC10C2F2000001680131016000680128F7
:101CB00012D1FFE7FFE700200A9043F64000C4F28C
:101CC0000200016841F000710160006800F00070DE
:101CD0000A900A98FFE7FFE7FFE70020099043F624
:101CE0003000C4F20200016841F0020101600068A6
:101CF00000F0020009900998FFE760200E90022092
:101D00000F90002003901090032011900920129052
:101D100040F20040C4F202000EA900F025FC039A34
:101D2000402001900521029100F0CEFE019800F0C4
:101D3000C1FE0299039A4120049000F0C5FE049868
:101D400000F0B8FEFFE7FFE714B080BD81B000905F
:101D500001B0704780B58AB0099010F05DF9016854
:101D60008A680021904702900998019002980168C2
:101D70008969884701460198884206D1FFE70298A1
:101D800001684A6903A99047FFE70AB080BD0000D7
:101D900081B0009001B0704780B58AB0099010F012
:101DA0003BF901688A6801219047029009980190E7
:101DB000029801688969884701460198884206D1DE
:101DC000FFE7029801684A6903A99047FFE70AB054
:101DD00080BD000081B0009001B0704780B584B034
:101DE0000290029890F8200001282FD1FFE7029975
:101DF000022081F8200002980168086820F00100A4
:101E0000086000F08DFD0190FFE7029800684068CF
:101E1000C007A8B1FFE700F083FD0199401A0B2825
:101E20000DD3FFE70299486A40F4003048620299F6
:101E3000052081F8200001208DF80F000FE0E4E775
:101E40000299002048628DF80F0008E00299486A64
:101E500040F40020486201208DF80F00FFE79DF854
:101E60000F0004B080BD000081B0009001B0704749
:101E700081B0009001B0704781B0009001B0704710
:101E800081B0009001B0704781B0009001B0704700
:101E900081B0009001B0704781B0009001B07047F0
:101EA00080B584B002900298806D019000F038FDFA
:101EB0000090029890F8350002280DD0FFE70299B3
:101EC00080204865FFE70299002081F83400FFE791
:101ED00001208DF80F0055E002980168086820F095
:101EE0001600086002980168486920F08000486187
:101EF0000298006C20B9FFE70298806C38B1FFE7C8
:101F000002980168086820F008000860FFE702985E
:101F10000168086820F001000860FFE70298006887
:101F20000068C007C8B1FFE700F0FAFC0099401A4A
:101F3000062811D3FFE70299202048650299032063
:101F400081F83500FFE70299002081F83400FFE7AF
:101F500003208DF80F0015E0E0E70298C16D3F20E7
:101F60008840019988600299012081F83500FFE7D7
:101F70000299002081F83400FFE7FFE700208DF888
:101F80000F00FFE79DF80F0004B080BD82B0009005
:101F9000009890F83500022807D0FFE700998020CC
:101FA000486501208DF807000EE00099052081F8B2
:101FB000350000980168086820F001000860FFE71C
:101FC00000208DF80700FFE79DF8070002B070477A
:101FD00080B586B005900020039040F23000C2F238
:101FE0000000006848F2B511C1F64E31A0FB0110A7
:101FF000800A02900598806D019001980068049015
:1020000004980599C96DC840000700281AD5FFE754
:102010000598006800684007002812D5FFE705987A
:102020000168086820F0040008600598C16D082068
:102030008840019988600599486D40F00100486525
:10204000FFE7FFE704980599C96DC840C007A0B134
:10205000FFE7059800684069000600280CD5FFE7F7
:102060000598C16D01208840019988600599486DE7
:1020700040F002004865FFE7FFE704980599C96D45
:10208000C8404007002814D5FFE70598006800689D
:10209000800700280CD5FFE70598C16D0420884013
:1020A000019988600599486D40F004004865FFE794
:1020B000FFE704980599C96DC840C006002847D5B8
:1020C000FFE7059800680068000700283FD5FFE794
:1020D0000598C16D102088400199886005980068B6
:1020E0000068400300281AD5FFE7059800680068DB
:1020F0000003002809D4FFE70598006C20B1FFE732
:102100000598016C8847FFE708E00598806C20B1CE
:10211000FFE70598816C8847FFE7FFE716E0059821
:1021200000680068C005002807D4FFE7059801682B
:10213000086820F008000860FFE70598006C20B1EF
:10214000FFE70598016C8847FFE7FFE7FFE7FFE738
:1021500004980599C96DC8408006002840F18D801B
:10216000FFE7059800680068C006002840F18480F9
:10217000FFE70598C16D2020884001998860059887
:1021800090F83500052834D1FFE705980168086804
:1021900020F01600086005980168486920F080006A
:1021A00048610598006C20B9FFE70598806C38B14C
:1021B000FFE705980168086820F008000860FFE75D
:1021C0000598C16D3F2088400199886005990120DC
:1021D00081F83500FFE70599002081F83400FFE71A
:1021E0000598006D20B1FFE70598016D8847FFE76E
:1021F0007BE0059800680068400300281AD5FFE7D7
:102200000598006800680003002809D4FFE70598D6
:10221000406C20B1FFE70598416C8847FFE708E074
:102220000598C06B20B1FFE70598C16B8847FFE7B1
:10223000FFE720E0059800680068C005002811D479
:10224000FFE705980168086820F01000086005990C
:10225000012081F83500FFE70599002081F834005E
:10226000FFE7FFE70598C06B20B1FFE70598C16B5A
:102270008847FFE7FFE7FFE7FFE70598406DA0B35A
:10228000FFE70598406DC00730B3FFE705990520CB
:1022900081F8350005980168086820F001000860A1
:1022A000FFE70398013003900299884201D9FFE7C4
:1022B00007E0FFE7059800680068C0070028F0D134
:1022C000FFE70599012081F83500FFE70599002017
:1022D00081F83400FFE7FFE70598C06C20B1FFE705
:1022E0000598C16C8847FFE7FFE706B080BD000096
:1022F00080B586B004900020039000F011FB02909E
:10230000049820B9FFE701208DF81700A3E0049896
:10231000406A08B1FFE7FFE70499022081F8350021
:10232000FFE70499002081F83400FFE70498016872
:10233000086820F001000860FFE704980068006862
:10234000C00790B1FFE700F0EBFA0299401A0628A7
:102350000AD3FFE70499202048650499032081F8F7
:1023600035008DF8170076E0E7E70498006800680C
:102370000390039848F23F01CFF210010840039008
:10238000049900914868D1F808C0CB680A6940EA0E
:102390000C00184310434A6910438A691043CA6904
:1023A0001043096A01430398084303900498406A64
:1023B000042808D1FFE70499C86A096B0143039810
:1023C00008430390FFE7039804990968086004989C
:1023D000006840690390039820F007000390049878
:1023E000416A0398084303900498406A04281AD16C
:1023F000FFE70498816A0398084303900498C06A31
:1024000080B1FFE70498FEF7F7FC50B1FFE70499AD
:10241000402048650499012081F835008DF81700A7
:1024200019E0FFE7FFE703980499096848610498F9
:10243000FEF7B6FC01900498C16D3F2088400199D9
:102440008860049900204865049A012182F83510BB
:102450008DF81700FFE79DF8170006B080BD00005B
:1024600080B588B0069005910492039300208DF802
:102470000B000698806D0190FFE7069890F83400F5
:10248000012804D1FFE702208DF81F0045E00699DE
:10249000012081F83400FFE7FFE7069890F8350047
:1024A00001282BD1FFE70699022081F83500069913
:1024B0000020486506980599049A039BFEF714FDD1
:1024C0000698C16D3F208840019988600698016890
:1024D000086840F0160008600698006C38B1FFE705
:1024E00006980168086840F008000860FFE7069851
:1024F0000168086840F00100086009E0FFE70699FC
:10250000002081F83400FFE702208DF80B00FFE780
:102510009DF80B008DF81F00FFE79DF81F0008B025
:1025200080BD000080B584B0039000F0F9F90290FE
:10253000039801900198013048B1FFE740F238104C
:10254000C2F200000178019808440190FFE7FFE71C
:1025500000F0E6F90299401A0199884201D2FFE79A
:10256000F6E704B080BD00008EB00D900C91002005
:102570000A90099008900B90FFE70B980F2800F243
:10258000CC81FFE70B99012088400A900C980068E5
:102590000A990840099009980A99884240F0B88140
:1025A000FFE70C98406800F00300012807D0FFE720
:1025B0000C98406800F0030002282FD1FFE70D9827
:1025C000806808900B984100032000FA01F10898F8
:1025D000884308900C98C0680B99490000FA01F1F3
:1025E00008980843089008980D9988600D984068ED
:1025F00008900B99012000FA01F10898884308908F
:102600000C984068C0F300100B9900FA01F108988B
:102610000843089008980D994860FFE70C984068B7
:1026200000F00300032818D0FFE70D98C068089059
:102630000B984100032000FA01F1089888430890A4
:102640000C9880680B99490000FA01F1089808433A
:10265000089008980D99C860FFE70C98406800F052
:102660000300022826D1FFE70D980B996FF00302B3
:1026700002EA51010844006A08900B9800F0070034
:1026800081000F2000FA01F10898884308900C9807
:1026900000690B9901F00701890000FA01F108981F
:1026A0000843089008980D990B9B02EA53021144C5
:1026B0000862FFE70D98006808900B98410003201E
:1026C00000FA01F10898884308900C98406800F0DF
:1026D00003000B99490000FA01F10898084308909B
:1026E00008980D9908600C9880798007002800F000
:1026F0000E81FFE7FFE70020079043F64400C4F295
:102700000200016841F480410160006800F48040EB
:1027100007900798FFE70B9820F0030043F60801A5
:10272000C4F20101405808900B9800F003008100AA
:102730000F2000FA01F10898884308900D980021B5
:10274000C4F20201884203D1FFE7002006905EE058
:102750000D9840F20041C4F20201884203D1FFE724
:102760000120059050E00D9840F60001C4F20201EE
:10277000884203D1FFE70220049042E00D9840F622
:102780000041C4F20201884203D1FFE70320039015
:1027900034E00D9841F20001C4F20201884203D1F5
:1027A000FFE70420029026E00D9841F20041C4F2B8
:1027B0000201884203D1FFE70520019018E00D983F
:1027C00041F60001C4F20201884203D1FFE706206E
:1027D00000900AE00D9941F60042C4F2020208207E
:1027E000914208BF07200090FFE700980190FFE7A3
:1027F00001980290FFE702980390FFE70398049086
:10280000FFE704980590FFE705980690FFE7069814
:10281000C0B20B9901F00301890000FA01F1089898
:102820000843089008980B9921F0030143F6080229
:10283000C4F20102885043F60840C4F20100006867
:10284000089009990898884308900C988079C006E8
:10285000002805D5FFE70999089808430890FFE785
:10286000089843F60841C4F20101086043F60C40A1
:10287000C4F20100006808900999089888430890FC
:102880000C9880798006002805D5FFE709990898FB
:1028900008430890FFE7089843F60C41C4F2010191
:1028A000086043F60440C4F20100006808900999EA
:1028B0000898884308900C9880798007002805D5EF
:1028C000FFE70999089808430890FFE7089843F63E
:1028D0000441C4F20101086043F60040C4F2010063
:1028E0000068089009990898884308900C988079A6
:1028F000C00728B1FFE70999089808430890FFE747
:10290000089843F60041C4F201010860FFE7FFE7C1
:10291000FFE70B9801300B902FE60EB070470000D8
:1029200046F69050C2F200000068704740F238103E
:10293000C2F20000027846F69051C2F20001086827
:10294000104408607047000080B543F60041C4F2AF
:102950000201086840F400700860086840F4806074
:102960000860086840F480700860032000F0C6F832
:102970000F2000F005F800F071F8002080BD000085
:1029800080B58CB00B90002005900490FFE70020EC
:10299000019043F64400C4F20200016841F00101D5
:1029A0000160006800F0010001900198FFE706A8AF
:1029B00003A901F051FB01F091FB4000059005983F
:1029C0004DF68361C4F21B31A0FB01014FF0FF30D3
:1029D00000EB9140049042F62850C2F20000002122
:1029E000C4F20101016040F2E731C1600499416025
:1029F000002101618160816101F0F0FF8DF80B0021
:102A00009DF80B0028BBFFE742F62850C2F20000F9
:102A100002F036F88DF80B009DF80B00C0B9FFE707
:102A2000192000F047F80B980F280CD8FFE70B99F6
:102A30001920002200F048F80B9840F23C11C2F235
:102A40000001086003E001208DF80B00FFE7FFE7BD
:102A5000FFE79DF80B000CB080BD000080B582B090
:102A6000FFE70020019043F64400C4F20200016831
:102A700041F480410160006800F4804001900198B9
:102A8000FFE7FFE70020009043F64000C4F2020099
:102A9000016841F080510160006800F080500090B2
:102AA0000098FFE76FF001000F21002200F00CF802
:102AB00002B080BD80B582B08DF807009DF9070097
:102AC00013F010FD02B080BD80B586B08DF8170000
:102AD000049103920020029013F01CFD02909DF9D6
:102AE0001700019002980499039A03F001FF014630
:102AF000019813F017FD06B080BD000080B582B0CC
:102B00000190019813F030FD02B080BD82B00190B9
:102B10008DF8031002B0704782B00190ADF802103A
:102B2000BDF80200019909684862002002B07047B0
:102B300084B003908DF80B10ADF80820039800685E
:102B4000406A00909DF80B0048B9FFE7BDF80810F7
:102B5000009840EA014003990968886233E00398CD
:102B60000068816A009800EB1140009000208DF809
:102B70000700FFE79DF807009DF80B100139884218
:102B800013D2FFE7039800689DF8071000EB81005F
:102B9000D0F80411009800EB11400090FFE79DF879
:102BA000070001308DF80700E4E7BDF80810009831
:102BB00040EA0140039909689DF80B2001EB82016E
:102BC000C1F80001FFE7002004B0704780B582B073
:102BD00001900198D0F8E00406F03AFC02B080BD04
:102BE00080B582B001908DF80310019AD2F8E0040C
:102BF0009DF8031001EBC10302EB8302126A06F099
:102C00007BFA02B080BD000080B582B001908DF8E3
:102C10000310019AD2F8E0049DF8031001EBC10300
:102C200002EB8302D2F8602206F034FB02B080BDD2
:102C300080B582B001900198D0F8E00406F00EFC57
:102C400002B080BD80B584B003908DF80B109DF864
:102C50000B00000600280CD5FFE703989DF80B1029
:102C600001F00F0101EBC10100EB81001430019074
:102C70000CE003989DF80B1001F00F0101EBC1016E
:102C800000EB810000F515700190FFE703980068E4
:102C9000019908F06DF98DF80A009DF80A0004B05A
:102CA00080BD000080B584B002908DF807109DF8BB
:102CB0000700000600280FD5FFE702989DF80710CF
:102CC00001F00F0101EBC10100EB81001430009015
:102CD0000099012048700FE002989DF8071001F05C
:102CE0000F0101EBC10100EB810000F515700090B0
:102CF000009900204870FFE79DF8070000F00F00E2
:102D000000990870FFE7029890F89404012804D114
:102D1000FFE702208DF80F0014E00299012081F8EE
:102D20009404FFE7FFE702980068009907F010FCA1
:102D3000FFE70299002081F89404FFE700208DF856
:102D40000F00FFE79DF80F0004B080BD80B584B090
:102D500002908DF807109DF8070000F00F0002990F
:102D60000979884204D9FFE701208DF80F004DE072
:102D70009DF80700000600280FD5FFE702989DF890
:102D8000071001F00F0101EBC10100EB81001430CD
:102D900000900099012048700FE002989DF80710FC
:102DA00001F00F0101EBC10100EB810000F515708E
:102DB0000090009900204870FFE70099002088707B
:102DC0009DF8070000F00F0000990870FFE70298D7
:102DD00090F89404012804D1FFE702208DF80F0039
:102DE00014E00299012081F89404FFE7FFE70298BC
:102DF0000068009907F01CFEFFE70299002081F8A7
:102E00009404FFE700208DF80F00FFE79DF80F0006
:102E100004B080BD82B001908DF8031001989DF838
:102E2000031001F00F0101EBC10100EB8100D0F8AC
:102E3000680202B07047000080B586B004908DF83B
:102E40000F10ADF80C208DF80B3000208DF80A0023
:102E50009DF80F00000600280FD5FFE704989DF8A5
:102E60000F1001F00F0101EBC10100EB81001430E4
:102E700001900199012048700FE004989DF80F100F
:102E800001F00F0101EBC10100EB810000F51570AD
:102E90000190019900204870FFE79DF80F0000F0B5
:102EA0000F0001990870BDF80C006FF3DF20019945
:102EB00088609DF80B00019908710198407820B155
:102EC000FFE7019908784883FFE79DF80B00022887
:102ED00004D1FFE7019900204871FFE7FFE704985C
:102EE00090F89404012804D1FFE702208DF8170020
:102EF00015E00499012081F89404FFE7FFE70498A6
:102F00000068019907F0EEF9FFE70499002081F8C5
:102F10009404FFE79DF80A008DF81700FFE79DF87D
:102F2000170006B080BD000080B586B005908DF812
:102F300013100392029305989DF8131001F00F01EE
:102F400001EBC10100EB810000F5157001900398C1
:102F50000199C860029801990861019900204861AF
:102F6000019948709DF8130000F00F000199087056
:102F700005988079012804D1FFE703980199C86179
:102F8000FFE7059A10680199927907F0F5FD002096
:102F900006B080BD80B584B002908DF807109DF812
:102FA000070000F00F0002990979884204D9FFE771
:102FB00001208DF80F0058E09DF80700000600285A
:102FC0000FD5FFE702989DF8071001F00F0101EB04
:102FD000C10100EB8100143000900099012048707D
:102FE0000DE002989DF8071001EBC10100EB810094
:102FF00000F515700090009900204870FFE70099D7
:10300000012088709DF8070000F00F0000990870FB
:10301000FFE7029890F89404012804D1FFE702200A
:103020008DF80F0021E00299012081F89404FFE758
:10303000FFE702980068009907F04AFD9DF8070035
:10304000000740B9FFE7029A1068917902F29C42AA
:1030500007F09EFCFFE7FFE70299002081F8940447
:10306000FFE700208DF80F00FFE79DF80F0004B088
:1030700080BD000080B586B005908DF813100392D6
:10308000029305989DF8131001F00F0101EBC101A7
:1030900000EB81001430019003980199C8600298F8
:1030A0000199086101990020486101990120487047
:1030B0009DF8130000F00F000199087005988079C1
:1030C000012804D1FFE703980199C861FFE7059A39
:1030D00010680199927907F04FFD002006B080BD7D
:1030E00080B58CB00B900B9800680A900A980990F4
:1030F0000B98006808F072F8002840F00C84FFE795
:103100000B98006808F0D6F810B9FFE700F003BC90
:103110000998D0F80808C0F30D200B99C1F8D40421
:103120000B98006808F0C6F88007002807D5FFE76D
:103130000B980168486900F002004861FFE70B98AE
:10314000006808F0B7F8C006002862D5FFE70B98C2
:103150000168886920F0100088610A98006A02906E
:103160000B98029901F00F0101EBC10100EB810006
:1031700000F515700890029800F4F0110220B0EBF1
:10318000514F23D1FFE7BDF8080047F6F071084220
:103190001BD0FFE70A980899C968029AC2F30A127D
:1031A00008F096F8029847F6F07100EA0103089AD1
:1031B000D06800EB1310D060029800EA0102089971
:1031C000486900EB12104861FFE71BE0029800F429
:1031D000F0110620B0EB514F12D1FFE70A980B997E
:1031E00001F29C41082208F073F8029847F6F0714A
:1031F00000EA01020899486900EB1210486100E0FA
:10320000FFE7FFE70B980168886940F010008861CC
:10321000FFE70B98006808F04DF80003002840F124
:10322000A680FFE7002004900B98006807F0F0FFED
:103230000690FFE70698002800F09880FFE79DF8C9
:103240001800C007002800F08A80FFE70B9800688C
:103250009DF8101008F016F805909DF81400C007AE
:1032600060B1FFE70998049900EB41110120C1F812
:10327000080B0B98049903F0BFFBFFE79DF81400BF
:10328000000700280CD5FFE70998049900EB4111CD
:103290000820C1F8080B0B98049903F067FBFFE7BF
:1032A0009DF81400C006002808D5FFE70998049986
:1032B00000EB41111020C1F8080BFFE79DF8140046
:1032C000800700282DD5FFE70A98406900060028EE
:1032D00008D5FFE70999D1F8040840F48060C1F8E7
:1032E0000408FFE70B98049901EBC10100EB810092
:1032F00000F5157008900898C078012809D1FFE7FB
:1033000008990020C8700B989DF8101000F014FB6D
:10331000FFE70998049900EB41110220C1F8080B5E
:10332000FFE79DF814008006002808D5FFE70998FC
:10333000049900EB41112020C1F8080BFFE79DF82C
:1033400015008006002809D5FFE70998049900EBCD
:1033500041114FF40050C1F8080BFFE7FFE7049854
:103360000130049006984008069063E7FFE70B9849
:10337000006807F09FFF4003002840F1C680FFE788
:103380000B98006807F032FF069000200490FFE7DA
:103390000698002800F0B880FFE79DF81800C007E5
:1033A000002800F0AA80FFE70B9800689DF8101035
:1033B00007F040FF05909DF81400C00700283ED09C
:1033C000FFE7049800F00F01012000FA01F10391DA
:1033D000039B099AD2F834189943C2F83418099912
:1033E000049A01EB4211C1F808090B988079012871
:1033F0001FD1FFE70B98049901EBC10100EB81019C
:10340000CA69086A10440862049888B9FFE70B98F3
:10341000049901EBC10100EB8100406A40B9FFE76C
:103420000B99086801F29C42012107F0B1FAFFE70D
:10343000FFE70B989DF81010FFF7D2FBFFE79DF810
:1034400014000007002808D5FFE70998049900EB4D
:1034500041110820C1F80809FFE79DF81400C006D3
:10346000002808D5FFE70998049900EB41111020C6
:10347000C1F80809FFE79DF814004006002808D5A8
:10348000FFE70998049900EB41114020C1F80809B1
:10349000FFE79DF814008007002822D5FFE70A986F
:1034A000049907F037FE0B98049901EBC10100EB7A
:1034B0008100143008900898C078012809D1FFE7EE
:1034C00008990020C8700B989DF8101000F026FA9B
:1034D000FFE70998049900EB41110220C1F808099F
:1034E000FFE79DF814000006002805D5FFE70B98BC
:1034F000049903F065FBFFE7FFE7049801300490AF
:1035000006984008069043E7FFE70B98006807F02D
:10351000D1FEC00F00B3FFE70999D1F8040820F0ED
:103520000100C1F804080B9890F8CC04012808D1D8
:10353000FFE70B98002180F8CC140B98FFF7E6FA10
:1035400003E00B9800F0AAFBFFE70B9801684869BD
:1035500000F000404861FFE70B98006807F0AAFE02
:103560000005002811D5FFE70998D0F80808C00722
:1035700020B1FFE70B9800F01DFCFFE70B980168F6
:10358000486900F400604861FFE70B98006807F0A5
:1035900091FEC004002840F18680FFE70999D1F828
:1035A000040820F00100C1F804080B9800681021FD
:1035B00007F0B0FD00200790FFE707980B99097905
:1035C000884231D2FFE70998079900EB41114FF685
:1035D0007F30C1F808090999079A01EB4212D2F825
:1035E000001921F40011C2F800190999079A01EB9A
:1035F0004211C1F8080B0998079900EB4111D1F865
:10360000000B20F40010C1F8000B0998079900EB9B
:103610004111D1F8000B40F00060C1F8000BFFE74A
:10362000079801300790C8E70999D1F81C0840F0C5
:103630000110C1F81C080B98C07B78B1FFE709990D
:10364000D1F8840840F00B00C1F884080999D1F83A
:10365000440840F00B00C1F844080FE00999D1F884
:10366000140842F22B021043C1F814080999D1F84A
:10367000100840F00B00C1F81008FFE70999D1F8D5
:10368000000820F4FE60C1F800080B9A10689179D8
:1036900002F29C4207F07CF90B980168486900F43B
:1036A00080504861FFE70B98006807F003FE800434
:1036B00000281FD5FFE70B98006806F083FE0B98E3
:1036C000006807F065FD0B99C8710B9800680190C0
:1036D00000F0ECFC014601980B9AD27907F00AFF42
:1036E0000B9800F0B1FA0B980168486900F400509B
:1036F0004861FFE70B98006807F0DCFD0007002831
:103700000AD5FFE70B9800F0D3FA0B9801684869D7
:1037100000F008004861FFE70B98006807F0CAFD59
:103720000006002825D5FFE70A99886920F0800067
:10373000886101200490FFE704980B990979884279
:1037400016D2FFE70B98049901EBC10100EB810051
:1037500090F85702012806D1FFE70B989DF810104A
:10376000FFF770FAFFE7FFE7049801300490E3E702
:10377000FFE70B98006807F09DFDC00200283CD5CC
:10378000FFE701200490FFE704980B99097988422C
:103790002CD2FFE70998049900EB4110D0F80009FA
:1037A00002900B98049901EBC10100EB8100007EAF
:1037B000012816D1FFE79DF80B000006002810D560
:1037C000FFE70B98049901EBC10100EB8101012097
:1037D000C8750B989DF8101041F08001FFF732FA80
:1037E000FFE7FFE7049801300490CDE70B980168EC
:1037F000486900F480104861FFE70B98006807F003
:1038000059FD8002002856D5FFE701200490FFE70C
:1038100004980B990979884246D2FFE709980499E0
:1038200000EB4110D0F8000B02900B98049901EBCB
:10383000C10100EB810090F8580201282FD1FFE769
:103840009DF80B000006002829D5FFE7029800F438
:1038500080310B98D0F8D40400F00100B0EB114F88
:103860001DD1FFE70B98049901EBC10100EB810129
:10387000012081F857020A99886940F08000886128
:103880000A9840690006002808D4FFE70999D1F892
:10389000040840F40070C1F8040805E0FFE7FFE702
:1038A000049801300490B3E70B980168486900F46C
:1038B00000104861FFE70B98006807F0FBFC400030
:1038C00000280AD5FFE70B98FFF780F90B980168ED
:1038D000486900F080404861FFE70B98006807F0F6
:1038E000E9FC4007002815D5FFE70B980068406801
:1038F00002909DF808004007002804D5FFE70B98C8
:10390000FFF796F9FFE7029A0B98016848681043A1
:103910004860FFE7FFE70CB080BD000080B582B0D3
:1039200001908DF803100198D0F8E0049DF8031081
:1039300005F030FE02B080BD80B582B001908DF8F8
:1039400003100198D0F8E0049DF8031005F05AFE2A
:1039500002B080BD80B58EB00C900C9820B9FFE706
:1039600001208DF8370012E10C9800680B900C983C
:1039700090F8950440B9FFE70C99002081F8940471
:103980000C9800F009F9FFE70C99032081F89504E1
:103990000B98B0F1A04F04D1FFE70C99002088717B
:1039A000FFE70C98006806F0E9FF0C9B1868197C8B
:1039B0008DF8241059689A68DB680893079206917D
:1039C0000699079A089BDDF824C0EE46CEF800C0A1
:1039D00006F00EFD40B1FFE70C99022081F8950436
:1039E00001208DF83700D2E00C980068002107F024
:1039F000E3FC40B1FFE70C99022081F89504012017
:103A00008DF83700C3E000208DF82B00FFE79DF80C
:103A10002B000C990979884241DAFFE70C989DF850
:103A20002B1001EBC10100EB8101012048759DF8CD
:103A30002B000C9900EBC00201EB820108759DF888
:103A40002B000C9900EBC00201EB8201C8850C9899
:103A50009DF82B1001EBC10100EB810100200876DD
:103A60000C999DF82B2002EBC20201EB8201C86188
:103A70000C999DF82B2002EBC20201EB8201086237
:103A80000C999DF82B2002EBC20201EB82014862E7
:103A9000FFE79DF82B0001308DF82B00B7E70020E1
:103AA0008DF82B00FFE79DF82B000C9909798842CF
:103AB0003EDAFFE70C989DF82B1001EBC10100EBFB
:103AC0008101002081F855029DF82B100C9A01EB22
:103AD000C10302EB830282F854120C999DF82B204B
:103AE00002EBC20201EB820181F858020C999DF8A9
:103AF0002B2002EBC20201EB8201C1F85C020C999F
:103B00009DF82B2002EBC20201EB8201C1F860029A
:103B10000C999DF82B2002EBC20201EB8201C1F847
:103B20006402FFE79DF82B0001308DF82B00BAE707
:103B30000C9B1868197C8DF8141059689A68DB681A
:103B40000493039202910299039A049BDDF814C036
:103B5000EE46CEF800C006F0C3FD40B1FFE70C9979
:103B6000022081F8950401208DF837000FE00C99B0
:103B70000020019048740C99012081F895040C985C
:103B8000006806F097FD01988DF83700FFE79DF873
:103B900037000EB080BD000080B58AB009900020CB
:103BA0000890079006900590049009980068B0F17D
:103BB000A04F47D1FFE7FFE70020039043F6300016
:103BC000C4F20200016841F001010160006800F0E8
:103BD000010003900398FFE74FF4C05004900220C7
:103BE000059000200690032007900A2008900020EE
:103BF000C4F2020004A9FEF7B7FCFFE743F6340164
:103C0000C4F20201086840F080000860FFE700206D
:103C1000029043F64400C4F20200016841F480417E
:103C20000160006800F4804002900298FFE7FFE71F
:103C30004320019005210022FEF746FF0198FEF780
:103C400039FFFFE70AB080BD80B582B00190012046
:103C50008DF803000198C07920B9FFE700208DF8A6
:103C600003000CE00198C079022804D1FFE701208D
:103C70008DF8030002E0FDF761F9FFE7FFE7019827
:103C8000D0F8E0049DF8031005F0BEFD0198D0F8CF
:103C9000E00405F037FD02B080BD000080B582B0C1
:103CA00001900198D0F8E00405F07CFD02B080BDE1
:103CB00080B582B001900198D0F8E00405F084FD51
:103CC00002B080BD80B584B002908DF80710FFE788
:103CD000029890F89404012804D1FFE702208DF89F
:103CE0000F0019E00299012081F89404FFE7FFE733
:103CF0009DF8070002994874029800689DF8071023
:103D000007F0CAFBFFE70299002081F89404FFE75F
:103D100000208DF80F00FFE79DF80F0004B080BD74
:103D200080B582B001900199D1F8E00401F29C4184
:103D300005F094FD02B080BD80B584B00290029879
:103D400000680190FFE7029890F89404012804D1DC
:103D5000FFE702208DF80F0028E00299012081F88A
:103D60009404FFE7FFE70198C068400600280BD5E0
:103D7000FFE70298407B012806D1FFE70199886B95
:103D800040F480308863FFE70298006807F07EF90E
:103D90000298006806F078FCFFE70299002081F89D
:103DA0009404FFE700208DF80F00FFE79DF80F0057
:103DB00004B080BD80B582B001900198D0F8E004D5
:103DC00005F0CEFD01980168D1F8000E40F0010029
:103DD000C1F8000E0198C07A48B1FFE74EF61051C5
:103DE000CEF20001086840F006000860FFE702B06C
:103DF00080BD000080B584B002900191029820B986
:103E0000FFE701208DF80F0021E1019843F6004102
:103E1000C4F20201096801F00701884212D9FFE7E4
:103E2000019943F60040C4F202000170006800F0FE
:103E300007000199884204D0FFE701208DF80F00A8
:103E400005E1FFE702980078800700282AD5FFE700
:103E5000029800784007002809D5FFE743F60801DB
:103E6000C4F20201086840F4E0500860FFE70298DD
:103E700000780007002809D5FFE743F60801C4F2DF
:103E80000201086840F460400860FFE743F608015B
:103E9000C4F20201086820F0F000029A9268104310
:103EA0000860FFE702980078C00700286ED0FFE79F
:103EB00002984068012811D1FFE743F60000C4F2E0
:103EC0000200006800F400310020B0EB514F04D133
:103ED000FFE701208DF80F00B9E02CE00298406860
:103EE000022805D0FFE702984068032811D1FFE7B8
:103EF00043F60000C4F20200006800F000710020E8
:103F0000B0EB516F04D1FFE701208DF80F009EE068
:103F100010E043F60000C4F20200006800F0020165
:103F20000020B0EB510F04D1FFE701208DF80F0006
:103F30008DE0FFE7FFE743F60801C4F202010868DD
:103F400020F00300029A526810430860FEF7E8FC74
:103F50000090FFE743F60800C4F20200006800F09A
:103F60000C0002994968B0EB810F0ED0FFE7FEF715
:103F7000D7FC0099401A41F28931884204D3FFE707
:103F800003208DF80F0062E0E4E7FFE7019843F6B5
:103F90000041C4F20201096801F00701884212D20F
:103FA000FFE7019943F60040C4F202000170006887
:103FB00000F007000199884204D0FFE701208DF846
:103FC0000F0044E0FFE702980078400700280CD576
:103FD000FFE743F60801C4F20201086820F4E0504C
:103FE000029AD26810430860FFE702980078000741
:103FF00000280DD5FFE743F60801C4F20201086866
:1040000020F46040029A126940EAC2000860FFE7AB
:1040100000F076F843F60801C4F202010968C9B25B
:104020000A0949F27041C0F60101895CC84040F2BA
:104030003001C2F20001086040F23C10C2F2000000
:104040000068FEF79DFC00208DF80F00FFE79DF84B
:104050000F0004B080BD000082B001900091019972
:104060000F20086043F60800C4F20200016801F066
:104070000301019A5160016801F0F001019A916019
:10408000016801F4E051019AD160006800F46040D9
:10409000C0080199086143F60040C4F202000068BC
:1040A00000F007000099086002B0704740F230004D
:1040B000C2F200000068704780B5FFF7F7FF43F6D3
:1040C0000801C4F202010968C1F3822249F2804169
:1040D000C0F60101895CC84080BD000080B5FFF7D3
:1040E000E5FF43F60801C4F20201096889B24A0BF0
:1040F00049F28041C0F60101895CC84080BD0000E2
:1041000080B586B00020059004900390029043F69D
:104110000800C4F20200006800F00C0001460191A2
:1041200040B1FFE7019804280AD0FFE7019808286A
:104130000CD04FE042F20040C0F2F40002904FE099
:1041400041F60030C0F2B700029049E043F60400A7
:10415000C4F20200016801F03F01059100684002CD
:10416000002813D5FFE743F60400C4F202000068FC
:10417000C0F3881041F60031C0F2B701A0FB010185
:10418000059A0023FCF720F8049012E043F604009F
:10419000C4F202000068C0F3881042F20041C0F28D
:1041A000F401A0FB0101059A0023FCF70DF804902F
:1041B000FFE743F60400C4F20200006800F4403157
:1041C000022000EBD130039004980399B0FBF1F08A
:1041D000029005E042F20040C0F2F4000290FFE7D6
:1041E000029806B080BD000080B586B004900498A7
:1041F00020B9FFE701208DF8170050E304980078FC
:10420000C007002800F0A580FFE743F60800C4F2CD
:104210000200006800F00C00042813D0FFE743F60A
:104220000800C4F20200006800F00C0008281ED14B
:10423000FFE743F60400C4F20200006840020028D1
:1042400015D5FFE743F60000C4F20200006800F451
:1042500000310020B0EB514F08D0FFE704984068D0
:1042600020B9FFE701208DF8170018E370E0FFE7A1
:1042700004984068B0F5803F09D1FFE743F600019C
:10428000C4F20201086840F48030086020E004981D
:104290004068B0F5A02F0DD1FFE743F60001C4F24E
:1042A0000201086840F480200860086840F480300B
:1042B00008600CE043F60001C4F20201086820F433
:1042C00080300860086820F480200860FFE7FFE77E
:1042D000FFE704984068E8B1FFE7FEF721FB039091
:1042E000FFE743F60000C4F20200006800F400316A
:1042F0000020B0EB514F0CD1FFE7FEF711FB039903
:10430000401A652804D3FFE703208DF81700C6E2A2
:10431000E7E71CE0FEF704FB0390FFE743F600002D
:10432000C4F20200006800F400310020B0EB514FED
:104330000CD0FFE7FEF7F4FA0399401A652804D37E
:10434000FFE703208DF81700A9E2E7E7FFE7FFE7A3
:10435000FFE7049800788007002840F19680FFE787
:1043600043F60800C4F20200006810F00C0F13D0EE
:10437000FFE743F60800C4F20200006800F00C00FA
:1043800008282CD1FFE743F60400C4F202000068BD
:104390004002002823D4FFE743F60000C4F20200E5
:1043A000006800F002010020B0EB510F09D0FFE7D8
:1043B0000498C068012804D0FFE701208DF8170099
:1043C0006DE243F60001C4F20201086820F0F80033
:1043D000049A126940EAC2000860FFE754E00498BA
:1043E000C06870B3FFE70021C4F2472101200860D4
:1043F000FEF796FA0390FFE743F60000C4F20200CE
:10440000006800F002010020B0EB510F0CD1FFE773
:10441000FEF786FA0399401A032804D3FFE7032026
:104420008DF817003BE2E7E743F60001C4F2020112
:10443000086820F0F800049A126940EAC200086097
:1044400021E00021C4F2472100200860FEF768FA4D
:104450000390FFE743F60000C4F20200006800F09A
:1044600002010020B0EB510F0CD0FFE7FEF758FA25
:104470000399401A032804D3FFE703208DF817009F
:104480000DE2E7E7FFE7FFE7FFE7049800780007A2
:1044900000284BD5FFE70498406918B3FFE740F6C2
:1044A0008061C4F2472101200860FEF739FA0390C9
:1044B000FFE743F67400C4F20200006800F0020156
:1044C0000020B0EB510F0CD1FFE7FEF729FA03995A
:1044D000401A032804D3FFE703208DF81700DEE11C
:1044E000E7E722E040F68061C4F24721002008603F
:1044F000FEF716FA0390FFE743F67400C4F20200D9
:10450000006800F002010020B0EB510F0CD0FFE773
:10451000FEF706FA0399401A032804D3FFE70320A5
:104520008DF81700BBE1E7E7FFE7FFE704980078A5
:104530004007002840F1CE80FFE700208DF80700FB
:1045400043F64000C4F202000068C000002815D401
:10455000FFE7FFE70020009043F64000C4F20200AE
:10456000016841F080510160006800F080500090C7
:104570000098FFE701208DF80700FFE747F20000F1
:10458000C4F200000068C005002822D4FFE747F20B
:104590000001C4F20001086840F480700860FEF772
:1045A000BFF90390FFE747F20000C4F20000006883
:1045B000C00500280CD4FFE7FEF7B2F90399401AB2
:1045C000032804D3FFE703208DF8170067E1EAE72B
:1045D000FFE7FFE704988068012809D1FFE743F669
:1045E0007001C4F20201086840F0010008601FE099
:1045F0000498806805280DD1FFE743F67001C4F2E6
:104600000201086840F004000860086840F00100FA
:1046100008600CE043F67001C4F20201086820F063
:1046200001000860086820F004000860FFE7FFE769
:10463000FFE704988068F8B1FFE7FEF771F903908F
:10464000FFE743F67000C4F20200006800F00201C8
:104650000020B0EB510F0ED1FFE7FEF761F903998F
:10466000401A41F28931884204D3FFE703208DF8D4
:10467000170014E1E5E71EE0FEF752F90390FFE7AB
:1046800043F67000C4F20200006800F0020100204E
:10469000B0EB510F0ED0FFE7FEF742F90399401A35
:1046A00041F28931884204D3FFE703208DF81700D7
:1046B000F5E0E5E7FFE79DF80700012809D1FFE7EE
:1046C00043F64001C4F20201086820F080500860FF
:1046D000FFE7FFE704988069002800F0DC80FFE72F
:1046E00043F60800C4F20200006800F00C0008283D
:1046F00000F08580FFE70498806902285CD1FFE71D
:104700006021C4F2472100200860FEF709F90390F8
:10471000FFE743F60000C4F20200006800F00071F9
:104720000020B0EB516F0CD0FFE7FEF7F9F80399CA
:10473000401A032804D3FFE703208DF81700AEE0EA
:10474000E7E70499C869D1F820C04B6A8A6A40EA51
:104750000C0040EA8310D2034FF6FF739A43A2F590
:1047600080321043C96A40EA016043F60401C4F292
:10477000020108606021C4F2472101200860FEF7B1
:10478000CFF80390FFE743F60000C4F20200006890
:1047900000F000710020B0EB516F0CD1FFE7FEF785
:1047A000BFF80399401A032804D3FFE703208DF8CC
:1047B000170074E0E7E721E06021C4F24721002000
:1047C0000860FEF7ADF80390FFE743F60000C4F27F
:1047D0000200006800F000710020B0EB516F0CD0B7
:1047E000FFE7FEF79DF80399401A032804D3FFE77B
:1047F00003208DF8170052E0E7E7FFE74AE004984E
:104800008069012804D1FFE701208DF8170046E0F8
:1048100043F60400C4F20200006802900498806924
:10482000012831D0FFE7029800F480000499C9699B
:10483000884229D1FFE7029800F03F000499096AF5
:10484000884221D1FFE7029847F6C07108400499D9
:10485000496AB0EB811F17D1FFE7029800F440309E
:104860000499896AC9034FF6FF729143A1F580311B
:10487000884209D1FFE7029800F070600499C96A84
:10488000B0EB016F04D0FFE701208DF8170006E0C0
:10489000FFE7FFE7FFE700208DF81700FFE79DF82F
:1048A000170006B080BD000081B0009001B07047D5
:1048B00081B0009001B0704785B003900291FFE78E
:1048C000039890F83C00012804D1FFE702208DF8FE
:1048D00013007EE00399012081F83C00FFE7FFE729
:1048E0000399022081F83D00039800684068019018
:1048F0000398006880680090019820F07000019093
:104900000298016801980843019001980399096889
:104910004860039800680021C4F2010188423CD03D
:10492000FFE703980068B0F1804F36D0FFE70398A7
:10493000006840F20041C4F2000188422DD0FFE738
:104940000398006840F60001C4F20001884224D0B8
:10495000FFE70398006840F60041C4F20001884276
:104960001BD0FFE70398006840F20041C4F2010148
:10497000884212D0FFE70398006844F20001C4F2B5
:104980000101884209D0FFE70398006841F6000161
:10499000C4F2000188420ED1FFE7009820F08000A9
:1049A000009002984168009808430090009803998D
:1049B00009688860FFE70399012081F83D00FFE75F
:1049C0000399002081F83C00FFE700208DF81300D8
:1049D000FFE79DF8130005B07047000080B582B076
:1049E0000090009820B9FFE701208DF807003FE014
:1049F000009890F83D0040B9FFE70099002081F849
:104A00003C00009800F038F8FFE70099022081F898
:104A10003D00009951F8040B02F082FA0099012040
:104A200081F84600FFE70099012081F83E000099D7
:104A300081F83F00009981F84000009981F8410019
:104A4000FFE7FFE70099012081F84200009981F813
:104A50004300009981F84400009981F84500FFE780
:104A60000099012081F83D0000208DF80700FFE744
:104A70009DF8070002B080BD81B0009001B0704782
:104A800083B00190019890F83D00012804D0FFE721
:104A900001208DF80B006AE00199022081F83D00A9
:104AA00001980168C86840F00100C860019800687A
:104AB0000021C4F2010188423CD0FFE70198006860
:104AC000B0F1804F36D0FFE70198006840F2004116
:104AD000C4F2000188422DD0FFE70198006840F63B
:104AE0000001C4F20001884224D0FFE70198006869
:104AF00040F60041C4F2000188421BD0FFE7019854
:104B0000006840F20041C4F20101884212D0FFE780
:104B10000198006844F20001C4F20101884209D002
:104B2000FFE70198006841F60001C4F200018842E5
:104B300012D1FFE701980068806800F0070000903C
:104B40000098062807D0FFE701980168086840F040
:104B500001000860FFE706E001980168086840F07E
:104B600001000860FFE700208DF80B00FFE79DF8CB
:104B70000B0003B07047000081B0009001B0704797
:104B800080B584B0039003980068C06802900398D1
:104B90000068006901909DF804008007002824D572
:104BA000FFE79DF80800800700281DD5FFE7039860
:104BB00001686FF0020008610399012008770398EB
:104BC00000688069800720B1FFE70398FFF7D4FFF2
:104BD00006E0039800F018F9039800F029FAFFE7BF
:104BE000039900200877FFE7FFE79DF804004007DE
:104BF000002825D5FFE79DF80800400700281ED5AE
:104C0000FFE7039801686FF0040008610399022030
:104C1000087703980068806910F4407F04D0FFE7AC
:104C20000398FFF7A9FF06E0039800F0EDF803985A
:104C300000F0FEF9FFE7039900200877FFE7FFE7A0
:104C40009DF804000007002824D5FFE79DF8080020
:104C5000000700281DD5FFE7039801686FF00800E2
:104C6000086103990420087703980068C0698007E9
:104C700020B1FFE70398FFF77FFF06E0039800F0FD
:104C8000C3F8039800F0D4F9FFE7039900200877F0
:104C9000FFE7FFE79DF80400C006002825D5FFE7E1
:104CA0009DF80800C00600281ED5FFE7039801689C
:104CB0006FF01000086103990820087703980068D6
:104CC000C06910F4407F04D0FFE70398FFF754FF5A
:104CD00006E0039800F098F8039800F0A9F9FFE7C0
:104CE000039900200877FFE7FFE79DF80400C0075D
:104CF00078B1FFE79DF80800C00748B1FFE70398C7
:104D000001686FF001000861039800F0B3FAFFE753
:104D1000FFE79DF804000006002810D5FFE79DF886
:104D200008000006002809D5FFE7039801686FF026
:104D3000800008610398FFF7B7FDFFE7FFE79DF8E4
:104D400004004006002810D5FFE79DF80800400643
:104D5000002809D5FFE7039801686FF0400008615B
:104D6000039800F097FAFFE7FFE79DF8040080063C
:104D7000002810D5FFE79DF808008006002809D517
:104D8000FFE7039801686FF0200008610398FFF7C0
:104D90008FFDFFE7FFE704B080BD000080B588B05D
:104DA00007900020069005900490039002900798C9
:104DB000006840F60001C4F20001884222D1FFE7FA
:104DC000FFE70020019043F63000C4F202000168C2
:104DD00041F008010160006800F0080001900198AE
:104DE000FFE74FF4804002900220039000210491DD
:104DF0000591069040F60040C4F2020002A9FDF7BA
:104E0000B3FBFFE708B080BD81B0009001B07047F0
:104E100080B586B004900391029200208DF80700BF
:104E2000FFE7049890F83C00012804D1FFE7022036
:104E30008DF8170089E00499012081F83C00FFE714
:104E4000FFE7029800900C2800F270800099DFE8DC
:104E500001F0076D6D6D206D6D6D3A6D6D6D5300D8
:104E600004980068039902F049F904980168886978
:104E700040F00800886104980168886920F0040007
:104E80008861039802690498016888691043886101
:104E900050E004980068039902F0A6F904980168AC
:104EA000886940F40060886104980168886920F48A
:104EB000806088610398026904980168886940EA03
:104EC0000220886136E004980068039902F006FA2F
:104ED00004980168C86940F00800C8610498016836
:104EE000C86920F00400C861039802690498016849
:104EF000C8691043C8611DE004980068039902F076
:104F000067FA04980168C86940F40060C8610498B1
:104F10000168C86920F48060C86103980269049838
:104F20000168C86940EA0220C86103E001208DF8E9
:104F30000700FFE7FFE70499002081F83C00FFE746
:104F40009DF807008DF81700FFE79DF8170006B0E1
:104F500080BD000080B582B00090009820B9FFE7C6
:104F600001208DF807003FE0009890F83D0040B91F
:104F7000FFE70099002081F83C00009800F038F825
:104F8000FFE70099022081F83D00009951F8040BD9
:104F900001F0C6FF0099012081F84600FFE7009963
:104FA000012081F83E00009981F83F00009981F8C6
:104FB0004000009981F84100FFE7FFE700990120D8
:104FC00081F84200009981F84300009981F844007B
:104FD000009981F84500FFE70099012081F83D0024
:104FE00000208DF80700FFE79DF8070002B080BDA4
:104FF00082B001900198006840F60001C4F20001FF
:10500000884212D1FFE7FFE70020009043F64000FE
:10501000C4F20200016841F004010160006800F080
:10502000040000900098FFE7FFE702B0704700001F
:1050300081B0009001B0704780B58EB00C900B919C
:1050400000208DF82B000B9828B9FFE70C9890F8FA
:105050003E0008901CE00B98042805D1FFE70C984F
:1050600090F83F00079010E00B98082805D1FFE763
:105070000C9890F84000069004E00C9890F84100DD
:105080000690FFE706980790FFE707980890FFE76C
:105090000898012804D0FFE701208DF83700E5E0EB
:1050A0000B9828B9FFE70C99022081F83E001EE01A
:1050B0000B98042806D1FFE70C99022081F83F00E5
:1050C000059012E00B98082806D1FFE70C99022002
:1050D00081F84000049005E00C99022081F841001D
:1050E0000490FFE704980590FFE70598FFE70B9809
:1050F00003900C2825D80399DFE801F00723232328
:105100000E232323152323231C000C980168C86851
:1051100040F00200C86018E00C980168C86840F0D0
:105120000400C86011E00C980168C86840F00800ED
:10513000C8600AE00C980168C86840F01000C860B8
:1051400003E001208DF82B00FFE79DF82B000028DD
:1051500040F08780FFE70C9800680B9901220192CC
:1051600001F0B0FF01980C9909680022C4F2010215
:10517000914202900CD0FFE70C9800684FF6004176
:10518000CBF6FE710844B0FA80F040090290FFE7C8
:105190000298C00738B1FFE70C980168486C40F4EA
:1051A00000404864FFE70C9800680021C4F2010148
:1051B00088423CD0FFE70C980068B0F1804F36D0B1
:1051C000FFE70C98006840F20041C4F200018842F9
:1051D0002DD0FFE70C98006840F60001C4F20001F2
:1051E000884224D0FFE70C98006840F60041C4F2E2
:1051F000000188421BD0FFE70C98006840F2004194
:10520000C4F20101884212D0FFE70C98006844F212
:105210000001C4F20101884209D0FFE70C98006840
:1052200041F60001C4F20001884212D1FFE70C9858
:105230000068806800F0070009900998062807D0E8
:10524000FFE70C980168086840F001000860FFE77C
:1052500006E00C980168086840F001000860FFE76C
:10526000FFE79DF82B008DF83700FFE79DF837002A
:105270000EB080BD80B582B0019001980068002119
:10528000C4F20101884203D1FFE7FDF74FFBFFE7BE
:1052900002B080BD81B0009001B0704780B586B08B
:1052A00004900391ADF80A20049890F84200202859
:1052B00048D1FFE7039820B1FFE7BDF80A0020B905
:1052C000FFE701208DF8170040E0049901200863F2
:1052D00004990020486304980399BDF80A2002F05D
:1052E000BFFB8DF809000498006B012821D1FFE76E
:1052F000FFE700200190049800680068019004987E
:105300000068406801900198FFE7FFE7FFE7049815
:10531000006850E8030F40F010000090FFE700998C
:105320000498026842E803100028F0D1FFE7FFE785
:1053300003E001208DF80900FFE79DF809008DF8D2
:10534000170003E002208DF81700FFE79DF8170013
:1053500006B080BD80B592B01190ADF842101198A2
:10536000006841F20001C4F20101884227D1FFE741
:1053700049F29431C0F60101086849680F910E9016
:105380000DF0EEFA01688A68002190470D9011989F
:1053900006900D980168896B8847014606988842F7
:1053A0000CD1FFE70D9801688A6A0EA90591904714
:1053B00005990D980268126B9047FFE761E011981C
:1053C000006844F60001C4F20001884227D1FFE7DB
:1053D00049F29C31C0F60101086849680C910B90B4
:1053E0000DF0BEFA01688A68012190470A90119871
:1053F00004900A980168896B88470146049888429E
:105400000CD1FFE70A9801688A6A0BA903919047BB
:1054100003990A980268126B9047FFE730E01198F1
:10542000006841F20041C4F20101884227D1FFE740
:1054300049F2A431C0F60101086849680991089051
:105440000DF08EFA01688A68022190470790119842
:10545000029007980168896B884701460298884244
:105460000CD1FFE7079801688A6A08A90191904763
:10547000019907980268126B9047FFE7FFE7FFE783
:10548000FFE712B080BD000080B58EB00D900D9882
:10549000406C10F00E0F00F08580FFE7FFE7002062
:1054A0000C900D98006800680C900D98006840689A
:1054B0000C900C98FFE7FFE700200B900D98006818
:1054C00000680B900D98006840680B900B98FFE700
:1054D000FFE700200A900D98006800680A900D9878
:1054E000006840680A900A98FFE70D98006841F24A
:1054F0000001C4F20101884215D1FFE749F2AC3145
:10550000C0F6010108684968099108900DF028FA71
:1055100001688A68002190470790079801688A6AA5
:1055200008A990473DE00D98006844F60001C4F2D8
:105530000001884215D1FFE749F2B431C0F60101FC
:1055400008684968069105900DF00AFA01688A68B2
:10555000012190470490049801688A6A05A9904740
:105560001EE00D98006841F20041C4F2010188423A
:1055700015D1FFE749F2BC31C0F60101086849685E
:10558000039102900DF0ECF901688A6802219047BE
:105590000190019801688A6A02A99047FFE7FFE736
:1055A000FFE7FFE70EB080BD80B592B01190119873
:1055B00000680068109011980068C0680F901198FA
:1055C000006840690E9000200D900C90109800F03B
:1055D0000F000D900D9888B9FFE79DF840008006F8
:1055E00000280AD5FFE79DF83C008006002804D576
:1055F000FFE7119802F0E2F802E2FFE70D980028B9
:1056000000F0C280FFE79DF83800C00738B9FFE717
:10561000BDF83C0010F4907F00F0B680FFE79DF8E5
:105620004000C00758B1FFE79DF83D00C00730B10A
:10563000FFE71199486C40F001004864FFE79DF8CE
:105640004000400700280BD5FFE79DF83800C00751
:1056500030B1FFE71199486C40F002004864FFE761
:105660009DF84000800700280BD5FFE79DF8380023
:10567000C00730B1FFE71199486C40F0040048645E
:10568000FFE79DF840000007002811D5FFE79DF8CF
:105690003C008006002805D4FFE79DF83800C007CD
:1056A00030B1FFE71199486C40F008004864FFE70B
:1056B0001198406C002866D0FFE79DF840008006F6
:1056C00000280AD5FFE79DF83C008006002804D595
:1056D000FFE7119802F072F8FFE71198006840693F
:1056E000C0F380100C901198406C0007002804D47F
:1056F000FFE70C9800283ED0FFE7119801F0E4FF87
:10570000119800684069400600282FD5FFE7FFE7A1
:10571000FFE71198006850E8050F20F040000B905B
:10572000FFE70B991198026842E805100028F0D1B4
:10573000FFE7FFE71198C06B98B1FFE71198C16BC5
:1057400047F27540C0F6000008651198C06BFCF781
:105750001DFC28B1FFE71198C06B016D8847FFE77A
:1057600003E01198FFF790FEFFE703E01198FFF7C1
:105770008BFEFFE706E01198FFF786FE11990020E7
:105780004864FFE7FFE73BE11198006B012840F018
:105790001781FFE79DF84000C006002840F1108106
:1057A000FFE79DF83C00C006002840F10981FFE7B3
:1057B000FFE700200A901198006800680A9011988D
:1057C000006840680A900A98FFE7119800684069ED
:1057D0004006002840F19A80FFE71198C06B0068EE
:1057E0004068ADF82600BDF82600002875D0FFE718
:1057F000BDF826001199898D88426EDAFFE7BDF861
:1058000026001199C8851198C06BC069B0F5807FDA
:1058100058D0FFE7FFE7FFE71198006850E8030F53
:1058200020F480700890FFE708991198026842E818
:1058300003100028F0D1FFE7FFE7FFE7FFE711982B
:10584000006850E8050F20F001000790FFE7079976
:105850001198026842E805100028F0D1FFE7FFE741
:10586000FFE7FFE71198006850E8050F20F04000BF
:105870000690FFE706991198026842E80510002893
:10588000F0D1FFE7FFE71199202081F8420011993C
:1058900000200863FFE7FFE71198006850E8030F56
:1058A00020F010000590FFE705991198026842E882
:1058B00003100028F0D1FFE7FFE71198C06BFCF759
:1058C000EFFAFFE71199022048631198818DC28D8C
:1058D000891A89B2FFF73EFD17E0BDF8260011993D
:1058E000898D884210D1FFE71198C06BC069B0F56F
:1058F000807F08D1FFE71199022048631198818DBC
:10590000FFF728FDFFE7FFE7FFE779E01199888DB2
:10591000C98D401AADF812001198C08D00284ED0E4
:10592000FFE7BDF81200002849D0FFE7FFE7FFE7D7
:105930001198006850E8030F20F490700390FFE77F
:1059400003991198026842E803100028F0D1FFE79C
:10595000FFE7FFE7FFE71198006850E8050F20F028
:1059600001000290FFE702991198026842E80510D1
:105970000028F0D1FFE7FFE71199202081F84200CD
:10598000119900200863FFE7FFE71198006850E8CD
:10599000030F20F010000190FFE7019911980268B1
:1059A00042E803100028F0D1FFE7FFE71199022039
:1059B00048631198BDF81210FFF7CCFCFFE71FE019
:1059C0009DF84000000600280AD5FFE79DF83C003E
:1059D0000006002804D5FFE7119802F00BF90FE04C
:1059E0009DF84000400600280AD5FFE79DF83C00DE
:1059F0004006002804D5FFE7119801F0AFFEFFE74D
:105A000012B080BD80B582B00090009820B9FFE749
:105A100001208DF8070040E00098806908B1FFE799
:105A200000E0FFE7009890F8410040B9FFE70099D7
:105A3000002081F84000009800F034F8FFE700995A
:105A4000242081F8410000980168C86820F40050C3
:105A5000C860009801F066FF00980168086920F4AA
:105A60009040086100980168486920F02A00486168
:105A700000980168C86840F40050C8600099002090
:105A80004864009A202182F84110009A82F842105E
:105A9000009948638DF80700FFE79DF8070002B002
:105AA00080BD000080B59CB01B9000201A9019901A
:105AB0001890179016901B98006841F20001C4F2EC
:105AC0000101884240F0BB80FFE7FFE7002015900E
:105AD00043F64400C4F20200016841F01001016085
